{
  "_format": "hh-sol-artifact-1",
  "contractName": "MiddleFeeDistribution",
  "sourceName": "contracts/staking/MiddleFeeDistribution.sol",
  "abi": [
    {
      "inputs": [
        {
          "internalType": "address",
          "name": "_rdntToken",
          "type": "address"
        },
        {
          "internalType": "address",
          "name": "mfdStats",
          "type": "address"
        },
        {
          "internalType": "contract ILPFeeDistribution",
          "name": "_lpFeeDistribution",
          "type": "address"
        },
        {
          "internalType": "contract IMultiFeeDistribution",
          "name": "_multiFeeDistribution",
          "type": "address"
        }
      ],
      "stateMutability": "nonpayable",
      "type": "constructor"
    },
    {
      "anonymous": false,
      "inputs": [
        {
          "indexed": false,
          "internalType": "address",
          "name": "token",
          "type": "address"
        },
        {
          "indexed": false,
          "internalType": "uint256",
          "name": "amount",
          "type": "uint256"
        }
      ],
      "name": "ForwardReward",
      "type": "event"
    },
    {
      "anonymous": false,
      "inputs": [
        {
          "indexed": true,
          "internalType": "address",
          "name": "previousOwner",
          "type": "address"
        },
        {
          "indexed": true,
          "internalType": "address",
          "name": "newOwner",
          "type": "address"
        }
      ],
      "name": "OwnershipTransferred",
      "type": "event"
    },
    {
      "anonymous": false,
      "inputs": [
        {
          "indexed": false,
          "internalType": "address",
          "name": "token",
          "type": "address"
        },
        {
          "indexed": false,
          "internalType": "uint256",
          "name": "amount",
          "type": "uint256"
        }
      ],
      "name": "Recovered",
      "type": "event"
    },
    {
      "anonymous": false,
      "inputs": [
        {
          "indexed": false,
          "internalType": "address",
          "name": "opEx",
          "type": "address"
        },
        {
          "indexed": false,
          "internalType": "uint256",
          "name": "ratio",
          "type": "uint256"
        }
      ],
      "name": "SetOperationExpenses",
      "type": "event"
    },
    {
      "inputs": [
        {
          "internalType": "address",
          "name": "_rewardsToken",
          "type": "address"
        }
      ],
      "name": "addReward",
      "outputs": [],
      "stateMutability": "nonpayable",
      "type": "function"
    },
    {
      "inputs": [],
      "name": "admin",
      "outputs": [
        {
          "internalType": "address",
          "name": "",
          "type": "address"
        }
      ],
      "stateMutability": "view",
      "type": "function"
    },
    {
      "inputs": [
        {
          "internalType": "address[]",
          "name": "_rewardTokens",
          "type": "address[]"
        }
      ],
      "name": "forwardReward",
      "outputs": [],
      "stateMutability": "nonpayable",
      "type": "function"
    },
    {
      "inputs": [],
      "name": "getLPFeeDistributionAddress",
      "outputs": [
        {
          "internalType": "address",
          "name": "",
          "type": "address"
        }
      ],
      "stateMutability": "view",
      "type": "function"
    },
    {
      "inputs": [],
      "name": "getMFDstatsAddress",
      "outputs": [
        {
          "internalType": "address",
          "name": "",
          "type": "address"
        }
      ],
      "stateMutability": "view",
      "type": "function"
    },
    {
      "inputs": [],
      "name": "getMultiFeeDistributionAddress",
      "outputs": [
        {
          "internalType": "address",
          "name": "",
          "type": "address"
        }
      ],
      "stateMutability": "view",
      "type": "function"
    },
    {
      "inputs": [],
      "name": "getRdntTokenAddress",
      "outputs": [
        {
          "internalType": "address",
          "name": "",
          "type": "address"
        }
      ],
      "stateMutability": "view",
      "type": "function"
    },
    {
      "inputs": [
        {
          "internalType": "address",
          "name": "user",
          "type": "address"
        }
      ],
      "name": "lockedBalances",
      "outputs": [
        {
          "internalType": "uint256",
          "name": "total",
          "type": "uint256"
        },
        {
          "internalType": "uint256",
          "name": "unlockable",
          "type": "uint256"
        },
        {
          "internalType": "uint256",
          "name": "locked",
          "type": "uint256"
        },
        {
          "components": [
            {
              "internalType": "uint256",
              "name": "amount",
              "type": "uint256"
            },
            {
              "internalType": "uint256",
              "name": "unlockTime",
              "type": "uint256"
            }
          ],
          "internalType": "struct LockedBalance[]",
          "name": "lockData",
          "type": "tuple[]"
        }
      ],
      "stateMutability": "view",
      "type": "function"
    },
    {
      "inputs": [],
      "name": "lpFeeDistribution",
      "outputs": [
        {
          "internalType": "contract ILPFeeDistribution",
          "name": "",
          "type": "address"
        }
      ],
      "stateMutability": "view",
      "type": "function"
    },
    {
      "inputs": [],
      "name": "lpLockingRewardRatio",
      "outputs": [
        {
          "internalType": "uint256",
          "name": "",
          "type": "uint256"
        }
      ],
      "stateMutability": "view",
      "type": "function"
    },
    {
      "inputs": [
        {
          "internalType": "address",
          "name": "user",
          "type": "address"
        },
        {
          "internalType": "uint256",
          "name": "amount",
          "type": "uint256"
        },
        {
          "internalType": "bool",
          "name": "withPenalty",
          "type": "bool"
        }
      ],
      "name": "mint",
      "outputs": [],
      "stateMutability": "nonpayable",
      "type": "function"
    },
    {
      "inputs": [
        {
          "internalType": "address",
          "name": "",
          "type": "address"
        }
      ],
      "name": "minters",
      "outputs": [
        {
          "internalType": "bool",
          "name": "",
          "type": "bool"
        }
      ],
      "stateMutability": "view",
      "type": "function"
    },
    {
      "inputs": [],
      "name": "mintersAreSet",
      "outputs": [
        {
          "internalType": "bool",
          "name": "",
          "type": "bool"
        }
      ],
      "stateMutability": "view",
      "type": "function"
    },
    {
      "inputs": [],
      "name": "multiFeeDistribution",
      "outputs": [
        {
          "internalType": "contract IMultiFeeDistribution",
          "name": "",
          "type": "address"
        }
      ],
      "stateMutability": "view",
      "type": "function"
    },
    {
      "inputs": [],
      "name": "operationExpenseRatio",
      "outputs": [
        {
          "internalType": "uint256",
          "name": "",
          "type": "uint256"
        }
      ],
      "stateMutability": "view",
      "type": "function"
    },
    {
      "inputs": [],
      "name": "operationExpenses",
      "outputs": [
        {
          "internalType": "address",
          "name": "",
          "type": "address"
        }
      ],
      "stateMutability": "view",
      "type": "function"
    },
    {
      "inputs": [],
      "name": "owner",
      "outputs": [
        {
          "internalType": "address",
          "name": "",
          "type": "address"
        }
      ],
      "stateMutability": "view",
      "type": "function"
    },
    {
      "inputs": [],
      "name": "rdntToken",
      "outputs": [
        {
          "internalType": "contract IMintableToken",
          "name": "",
          "type": "address"
        }
      ],
      "stateMutability": "view",
      "type": "function"
    },
    {
      "inputs": [
        {
          "internalType": "address",
          "name": "tokenAddress",
          "type": "address"
        },
        {
          "internalType": "uint256",
          "name": "tokenAmount",
          "type": "uint256"
        }
      ],
      "name": "recoverERC20",
      "outputs": [],
      "stateMutability": "nonpayable",
      "type": "function"
    },
    {
      "inputs": [],
      "name": "renounceOwnership",
      "outputs": [],
      "stateMutability": "nonpayable",
      "type": "function"
    },
    {
      "inputs": [
        {
          "internalType": "contract ILPFeeDistribution",
          "name": "_lpFeeDistribution",
          "type": "address"
        }
      ],
      "name": "setLPFeeDistribution",
      "outputs": [],
      "stateMutability": "nonpayable",
      "type": "function"
    },
    {
      "inputs": [
        {
          "internalType": "uint256",
          "name": "_lpLockingRewardRatio",
          "type": "uint256"
        }
      ],
      "name": "setLpLockingRewardRatio",
      "outputs": [],
      "stateMutability": "nonpayable",
      "type": "function"
    },
    {
      "inputs": [
        {
          "internalType": "address[]",
          "name": "_minters",
          "type": "address[]"
        }
      ],
      "name": "setMinters",
      "outputs": [],
      "stateMutability": "nonpayable",
      "type": "function"
    },
    {
      "inputs": [
        {
          "internalType": "address",
          "name": "_operationExpenses",
          "type": "address"
        },
        {
          "internalType": "uint256",
          "name": "_operationExpenseRatio",
          "type": "uint256"
        }
      ],
      "name": "setOperationExpenses",
      "outputs": [],
      "stateMutability": "nonpayable",
      "type": "function"
    },
    {
      "inputs": [
        {
          "internalType": "address",
          "name": "newOwner",
          "type": "address"
        }
      ],
      "name": "transferOwnership",
      "outputs": [],
      "stateMutability": "nonpayable",
      "type": "function"
    }
  ],
  "bytecode": "0x60a06040523480156200001157600080fd5b5060405162001bc238038062001bc2833981016040819052620000349162000172565b6000620000406200016e565b600080546001600160a01b0319166001600160a01b0383169081178255604051929350917f8be0079c531659141344cd1fd0a4f28419497f9722a3daafe3b4186f6b6457e0908290a3506001600160601b0319606085901b16608052600880546001600160a01b038581166001600160a01b03199283161790925560018054858416908316179055600280548484169083161790556113886003556007805490911633179055604051637e51dad560e11b81529085169063fca3b5aa906200010d90309060040162000202565b602060405180830381600087803b1580156200012857600080fd5b505af11580156200013d573d6000803e3d6000fd5b505050506040513d601f19601f82011682018060405250810190620001639190620001d9565b50505050506200022f565b3390565b6000806000806080858703121562000188578384fd5b8451620001958162000216565b6020860151909450620001a88162000216565b6040860151909350620001bb8162000216565b6060860151909250620001ce8162000216565b939692955090935050565b600060208284031215620001eb578081fd5b81518015158114620001fb578182fd5b9392505050565b6001600160a01b0391909116815260200190565b6001600160a01b03811681146200022c57600080fd5b50565b60805160601c6119666200025c6000398061068e5280610b005280610bb05280610c4c52506119666000f3fe608060405234801561001057600080fd5b50600436106101735760003560e01c806398f442bb116100de578063d1a1beb411610097578063f2fde38b11610071578063f2fde38b146102ba578063f46eccc4146102cd578063f851a440146102e0578063f8b336ac146102e857610173565b8063d1a1beb41461028c578063d30be9031461029f578063dd36bd0e146102b257610173565b806398f442bb146102395780639c9b2e211461024c578063ab453a591461025f578063b82def9314610267578063c8d508b01461027c578063cd57ed6c1461028457610173565b8063715018a611610130578063715018a6146101f15780638980f11f146101f95780638bb403eb1461020c5780638da5cb5b146102145780638fd9f2ca1461021c57806392d1dbae1461023157610173565b80630483a7f61461017857806308c51c65146101a457806328f40748146101b95780634c6f7131146101ce578063542b3cb8146101d6578063547d0096146101de575b600080fd5b61018b610186366004611505565b6102fb565b60405161019b94939291906117f1565b60405180910390f35b6101b76101b236600461158d565b610398565b005b6101c161067d565b60405161019b9190611758565b6101c161068c565b6101c16106b0565b6101b76101ec36600461158d565b6106bf565b6101b76107a0565b6101b7610207366004611521565b610854565b6101c1610917565b6101c1610926565b610224610935565b60405161019b91906117a8565b6101c161093e565b6101b7610247366004611521565b61094d565b6101b761025a366004611505565b6109d8565b6101c1610afe565b61026f610b22565b60405161019b91906117e8565b6101c1610b28565b6101c1610b3c565b6101b761029a36600461154c565b610b4b565b6101b76102ad366004611505565b610ec1565b61026f610f42565b6101b76102c8366004611505565b610f48565b6102246102db366004611505565b611052565b6101c1611067565b6101b76102f6366004611647565b611076565b600254604051630241d3fb60e11b8152600091829182916060916001600160a01b0390911690630483a7f690610335908890600401611758565b60006040518083038186803b15801561034d57600080fd5b505afa158015610361573d6000803e3d6000fd5b505050506040513d6000823e601f3d908101601f191682016040526103899190810190611677565b93509350935093509193509193565b60005b81518110156106795760008282815181106103b257fe5b60200260200101516001600160a01b03166370a08231306040518263ffffffff1660e01b81526004016103e59190611758565b60206040518083038186803b1580156103fd57600080fd5b505afa158015610411573d6000803e3d6000fd5b505050506040513d601f19601f82011682018060405250810190610435919061165f565b60065490915061010090046001600160a01b03161580159061045957506000600454115b156104dd57600061048161271061047b600454856110da90919063ffffffff16565b9061113c565b905080156104cf576104cf600660019054906101000a90046001600160a01b0316828686815181106104af57fe5b60200260200101516001600160a01b031661117e9092919063ffffffff16565b6104d982826111d0565b9150505b8282815181106104e957fe5b60200260200101516001600160a01b03166370a08231306040518263ffffffff1660e01b815260040161051c9190611758565b60206040518083038186803b15801561053457600080fd5b505afa158015610548573d6000803e3d6000fd5b505050506040513d601f19601f8201168201806040525081019061056c919061165f565b9050600061058b61271061047b600354856110da90919063ffffffff16565b905080156105b45760015484516105b4916001600160a01b03169083908790879081106104af57fe5b60008484815181106105c257fe5b60200260200101516001600160a01b03166370a08231306040518263ffffffff1660e01b81526004016105f59190611758565b60206040518083038186803b15801561060d57600080fd5b505afa158015610621573d6000803e3d6000fd5b505050506040513d601f19601f82011682018060405250810190610645919061165f565b9050801561066e57600254855161066e916001600160a01b03169083908890889081106104af57fe5b50505060010161039b565b5050565b6001546001600160a01b031690565b7f000000000000000000000000000000000000000000000000000000000000000081565b6002546001600160a01b031681565b6106c7611212565b6007546001600160a01b039081169116148061070257506106e6611212565b6001600160a01b03166106f7610926565b6001600160a01b0316145b6107275760405162461bcd60e51b815260040161071e906117b3565b60405180910390fd5b60065460ff161561073757600080fd5b60005b815181101561078f5760016005600084848151811061075557fe5b6020908102919091018101516001600160a01b03168252810191909152604001600020805460ff191691151591909117905560010161073a565b50506006805460ff19166001179055565b6107a8611212565b6000546001600160a01b0390811691161461080a576040805162461bcd60e51b815260206004820181905260248201527f4f776e61626c653a2063616c6c6572206973206e6f7420746865206f776e6572604482015290519081900360640190fd5b600080546040516001600160a01b03909116907f8be0079c531659141344cd1fd0a4f28419497f9722a3daafe3b4186f6b6457e0908390a3600080546001600160a01b0319169055565b61085c611212565b6000546001600160a01b039081169116146108be576040805162461bcd60e51b815260206004820181905260248201527f4f776e61626c653a2063616c6c6572206973206e6f7420746865206f776e6572604482015290519081900360640190fd5b6108da6108c9610926565b6001600160a01b038416908361117e565b7f8c1256b8896378cd5044f80c202f9772b9d77dc85c8a6eb51967210b09bfaa28828260405161090b92919061176c565b60405180910390a15050565b6008546001600160a01b031690565b6000546001600160a01b031690565b60065460ff1681565b6001546001600160a01b031681565b610955611212565b6007546001600160a01b03908116911614806109905750610974611212565b6001600160a01b0316610985610926565b6001600160a01b0316145b6109ac5760405162461bcd60e51b815260040161071e906117b3565b600680546001600160a01b0390931661010002610100600160a81b031990931692909217909155600455565b6109e0611212565b6007546001600160a01b0390811691161480610a1b57506109ff611212565b6001600160a01b0316610a10610926565b6001600160a01b0316145b610a375760405162461bcd60e51b815260040161071e906117b3565b600254604051639c9b2e2160e01b81526001600160a01b0390911690639c9b2e2190610a67908490600401611758565b600060405180830381600087803b158015610a8157600080fd5b505af1158015610a95573d6000803e3d6000fd5b5050600154604051639c9b2e2160e01b81526001600160a01b039091169250639c9b2e219150610ac9908490600401611758565b600060405180830381600087803b158015610ae357600080fd5b505af1158015610af7573d6000803e3d6000fd5b5050505050565b7f000000000000000000000000000000000000000000000000000000000000000090565b60035481565b60065461010090046001600160a01b031681565b6002546001600160a01b031690565b3360009081526005602052604090205460ff16610b6757600080fd5b81610b7157610ebc565b6000610b8e61271061047b600354866110da90919063ffffffff16565b90508015610c3f576001546040516340c10f1960e01b81526001600160a01b037f00000000000000000000000000000000000000000000000000000000000000008116926340c10f1992610beb929190911690859060040161176c565b602060405180830381600087803b158015610c0557600080fd5b505af1158015610c19573d6000803e3d6000fd5b505050506040513d601f19601f82011682018060405250810190610c3d919061162b565b505b6002546001600160a01b037f00000000000000000000000000000000000000000000000000000000000000008116916340c10f199116610c7f86856111d0565b6040518363ffffffff1660e01b8152600401610c9c92919061176c565b602060405180830381600087803b158015610cb657600080fd5b505af1158015610cca573d6000803e3d6000fd5b505050506040513d601f19601f82011682018060405250810190610cee919061162b565b506001600160a01b038416301415610ddf578015610d6d576001546040516334686fad60e21b81526001600160a01b039091169063d1a1beb490610d3a90839085908790600401611785565b600060405180830381600087803b158015610d5457600080fd5b505af1158015610d68573d6000803e3d6000fd5b505050505b6002546001600160a01b031663d1a1beb481610d8986856111d0565b856040518463ffffffff1660e01b8152600401610da893929190611785565b600060405180830381600087803b158015610dc257600080fd5b505af1158015610dd6573d6000803e3d6000fd5b50505050610eba565b8015610e4c576001546040516334686fad60e21b81526001600160a01b039091169063d1a1beb490610e1990879085908790600401611785565b600060405180830381600087803b158015610e3357600080fd5b505af1158015610e47573d6000803e3d6000fd5b505050505b6002546001600160a01b031663d1a1beb485610e6886856111d0565b856040518463ffffffff1660e01b8152600401610e8793929190611785565b600060405180830381600087803b158015610ea157600080fd5b505af1158015610eb5573d6000803e3d6000fd5b505050505b505b505050565b610ec9611212565b6007546001600160a01b0390811691161480610f045750610ee8611212565b6001600160a01b0316610ef9610926565b6001600160a01b0316145b610f205760405162461bcd60e51b815260040161071e906117b3565b600180546001600160a01b0319166001600160a01b0392909216919091179055565b60045481565b610f50611212565b6000546001600160a01b03908116911614610fb2576040805162461bcd60e51b815260206004820181905260248201527f4f776e61626c653a2063616c6c6572206973206e6f7420746865206f776e6572604482015290519081900360640190fd5b6001600160a01b038116610ff75760405162461bcd60e51b81526004018080602001828103825260268152602001806118c06026913960400191505060405180910390fd5b600080546040516001600160a01b03808516939216917f8be0079c531659141344cd1fd0a4f28419497f9722a3daafe3b4186f6b6457e091a3600080546001600160a01b0319166001600160a01b0392909216919091179055565b60056020526000908152604090205460ff1681565b6007546001600160a01b031681565b61107e611212565b6007546001600160a01b03908116911614806110b9575061109d611212565b6001600160a01b03166110ae610926565b6001600160a01b0316145b6110d55760405162461bcd60e51b815260040161071e906117b3565b600355565b6000826110e957506000611136565b828202828482816110f657fe5b04146111335760405162461bcd60e51b81526004018080602001828103825260218152602001806118e66021913960400191505060405180910390fd5b90505b92915050565b600061113383836040518060400160405280601a81526020017f536166654d6174683a206469766973696f6e206279207a65726f000000000000815250611216565b604080516001600160a01b038416602482015260448082018490528251808303909101815260649091019091526020810180516001600160e01b031663a9059cbb60e01b179052610ebc9084906112b8565b600061113383836040518060400160405280601e81526020017f536166654d6174683a207375627472616374696f6e206f766572666c6f77000081525061146f565b3390565b600081836112a25760405162461bcd60e51b81526004018080602001828103825283818151815260200191508051906020019080838360005b8381101561126757818101518382015260200161124f565b50505050905090810190601f1680156112945780820380516001836020036101000a031916815260200191505b509250505060405180910390fd5b5060008385816112ae57fe5b0495945050505050565b6112ca826001600160a01b03166114c9565b61131b576040805162461bcd60e51b815260206004820152601f60248201527f5361666545524332303a2063616c6c20746f206e6f6e2d636f6e747261637400604482015290519081900360640190fd5b600080836001600160a01b0316836040518082805190602001908083835b602083106113585780518252601f199092019160209182019101611339565b6001836020036101000a0380198251168184511680821785525050505050509050019150506000604051808303816000865af19150503d80600081146113ba576040519150601f19603f3d011682016040523d82523d6000602084013e6113bf565b606091505b509150915081611416576040805162461bcd60e51b815260206004820181905260248201527f5361666545524332303a206c6f772d6c6576656c2063616c6c206661696c6564604482015290519081900360640190fd5b805115610eba5780806020019051602081101561143257600080fd5b5051610eba5760405162461bcd60e51b815260040180806020018281038252602a815260200180611907602a913960400191505060405180910390fd5b600081848411156114c15760405162461bcd60e51b815260206004820181815283516024840152835190928392604490910191908501908083836000831561126757818101518382015260200161124f565b505050900390565b6000813f7fc5d2460186f7233c927e7db2dcc703c0e500b653ca82273b7bfad8045d85a4708181148015906114fd57508115155b949350505050565b600060208284031215611516578081fd5b813561113381611899565b60008060408385031215611533578081fd5b823561153e81611899565b946020939093013593505050565b600080600060608486031215611560578081fd5b833561156b81611899565b9250602084013591506040840135611582816118b1565b809150509250925092565b6000602080838503121561159f578182fd5b823567ffffffffffffffff8111156115b5578283fd5b8301601f810185136115c5578283fd5b80356115d86115d38261187b565b611857565b81815283810190838501858402850186018910156115f4578687fd5b8694505b8385101561161f57803561160b81611899565b8352600194909401939185019185016115f8565b50979650505050505050565b60006020828403121561163c578081fd5b8151611133816118b1565b600060208284031215611658578081fd5b5035919050565b600060208284031215611670578081fd5b5051919050565b6000806000806080858703121561168c578081fd5b8451935060208086015193506040808701519350606087015167ffffffffffffffff808211156116ba578485fd5b818901915089601f8301126116cd578485fd5b81516116db6115d38261187b565b81815285810190848701868402860188018e10156116f7578889fd5b8895505b838610156117465786818f031215611711578889fd5b8651878101818110878211171561172457fe5b88528151815288820151898201528352600195909501949187019186016116fb565b50999c989b5096995050505050505050565b6001600160a01b0391909116815260200190565b6001600160a01b03929092168252602082015260400190565b6001600160a01b0393909316835260208301919091521515604082015260600190565b901515815260200190565b6020808252818101527f63616c6c6572206973206e6f74207468652061646d696e206f72206f776e6572604082015260600190565b90815260200190565b60006080820186835260208681850152604086818601526080606086015282865180855260a0870191508388019450855b8181101561184757855180518452850151858401529484019491830191600101611822565b50909a9950505050505050505050565b60405181810167ffffffffffffffff8111828210171561187357fe5b604052919050565b600067ffffffffffffffff82111561188f57fe5b5060209081020190565b6001600160a01b03811681146118ae57600080fd5b50565b80151581146118ae57600080fdfe4f776e61626c653a206e6577206f776e657220697320746865207a65726f2061646472657373536166654d6174683a206d756c7469706c69636174696f6e206f766572666c6f775361666545524332303a204552433230206f7065726174696f6e20646964206e6f742073756363656564a264697066735822122022014aba0d527df7f4b2e94a3c75d27e0499ac854014ca9602e6a31703ca19fc64736f6c63430007060033",
  "linkReferences": {},
  "deployedLinkReferences": {}
}