{
  "_format": "hh-sol-artifact-1",
  "contractName": "Compounder",
  "sourceName": "contracts/radiant/accessories/Compounder.sol",
  "abi": [
    {
      "anonymous": false,
      "inputs": [
        {
          "indexed": false,
          "internalType": "uint8",
          "name": "version",
          "type": "uint8"
        }
      ],
      "name": "Initialized",
      "type": "event"
    },
    {
      "anonymous": false,
      "inputs": [
        {
          "indexed": true,
          "internalType": "address",
          "name": "previousOwner",
          "type": "address"
        },
        {
          "indexed": true,
          "internalType": "address",
          "name": "newOwner",
          "type": "address"
        }
      ],
      "name": "OwnershipTransferred",
      "type": "event"
    },
    {
      "anonymous": false,
      "inputs": [
        {
          "indexed": false,
          "internalType": "address",
          "name": "account",
          "type": "address"
        }
      ],
      "name": "Paused",
      "type": "event"
    },
    {
      "anonymous": false,
      "inputs": [
        {
          "indexed": false,
          "internalType": "address[]",
          "name": "_tokens",
          "type": "address[]"
        }
      ],
      "name": "RewardBaseTokensUpdated",
      "type": "event"
    },
    {
      "anonymous": false,
      "inputs": [
        {
          "indexed": false,
          "internalType": "address",
          "name": "_token",
          "type": "address"
        },
        {
          "indexed": false,
          "internalType": "address[]",
          "name": "_routes",
          "type": "address[]"
        }
      ],
      "name": "RoutesUpdated",
      "type": "event"
    },
    {
      "anonymous": false,
      "inputs": [
        {
          "indexed": false,
          "internalType": "address",
          "name": "account",
          "type": "address"
        }
      ],
      "name": "Unpaused",
      "type": "event"
    },
    {
      "inputs": [],
      "name": "PERCENT_DIVISOR",
      "outputs": [
        {
          "internalType": "uint256",
          "name": "",
          "type": "uint256"
        }
      ],
      "stateMutability": "view",
      "type": "function"
    },
    {
      "inputs": [
        {
          "internalType": "address[]",
          "name": "_tokens",
          "type": "address[]"
        }
      ],
      "name": "addRewardBaseTokens",
      "outputs": [],
      "stateMutability": "nonpayable",
      "type": "function"
    },
    {
      "inputs": [],
      "name": "addressProvider",
      "outputs": [
        {
          "internalType": "address",
          "name": "",
          "type": "address"
        }
      ],
      "stateMutability": "view",
      "type": "function"
    },
    {
      "inputs": [],
      "name": "autocompoundThreshold",
      "outputs": [
        {
          "internalType": "uint256",
          "name": "minStakeAmtEth",
          "type": "uint256"
        }
      ],
      "stateMutability": "view",
      "type": "function"
    },
    {
      "inputs": [],
      "name": "baseToken",
      "outputs": [
        {
          "internalType": "address",
          "name": "",
          "type": "address"
        }
      ],
      "stateMutability": "view",
      "type": "function"
    },
    {
      "inputs": [],
      "name": "bountyManager",
      "outputs": [
        {
          "internalType": "address",
          "name": "",
          "type": "address"
        }
      ],
      "stateMutability": "view",
      "type": "function"
    },
    {
      "inputs": [
        {
          "internalType": "address",
          "name": "_user",
          "type": "address"
        },
        {
          "internalType": "bool",
          "name": "_execute",
          "type": "bool"
        }
      ],
      "name": "claimCompound",
      "outputs": [
        {
          "internalType": "uint256",
          "name": "fee",
          "type": "uint256"
        }
      ],
      "stateMutability": "nonpayable",
      "type": "function"
    },
    {
      "inputs": [],
      "name": "compoundFee",
      "outputs": [
        {
          "internalType": "uint256",
          "name": "",
          "type": "uint256"
        }
      ],
      "stateMutability": "view",
      "type": "function"
    },
    {
      "inputs": [
        {
          "internalType": "address",
          "name": "_uniRouter",
          "type": "address"
        },
        {
          "internalType": "address",
          "name": "_mfd",
          "type": "address"
        },
        {
          "internalType": "address",
          "name": "_baseToken",
          "type": "address"
        },
        {
          "internalType": "address",
          "name": "_addressProvider",
          "type": "address"
        },
        {
          "internalType": "address",
          "name": "_lockZap",
          "type": "address"
        },
        {
          "internalType": "uint256",
          "name": "_compoundFee",
          "type": "uint256"
        },
        {
          "internalType": "uint256",
          "name": "_slippageLimit",
          "type": "uint256"
        }
      ],
      "name": "initialize",
      "outputs": [],
      "stateMutability": "nonpayable",
      "type": "function"
    },
    {
      "inputs": [
        {
          "internalType": "address",
          "name": "_user",
          "type": "address"
        },
        {
          "internalType": "uint256",
          "name": "_pending",
          "type": "uint256"
        }
      ],
      "name": "isEligibleForAutoCompound",
      "outputs": [
        {
          "internalType": "bool",
          "name": "",
          "type": "bool"
        }
      ],
      "stateMutability": "view",
      "type": "function"
    },
    {
      "inputs": [
        {
          "internalType": "uint256",
          "name": "_pending",
          "type": "uint256"
        }
      ],
      "name": "isEligibleForCompound",
      "outputs": [
        {
          "internalType": "bool",
          "name": "eligible",
          "type": "bool"
        }
      ],
      "stateMutability": "view",
      "type": "function"
    },
    {
      "inputs": [
        {
          "internalType": "address",
          "name": "",
          "type": "address"
        }
      ],
      "name": "lastAutocompound",
      "outputs": [
        {
          "internalType": "uint256",
          "name": "",
          "type": "uint256"
        }
      ],
      "stateMutability": "view",
      "type": "function"
    },
    {
      "inputs": [],
      "name": "lockZap",
      "outputs": [
        {
          "internalType": "address",
          "name": "",
          "type": "address"
        }
      ],
      "stateMutability": "view",
      "type": "function"
    },
    {
      "inputs": [],
      "name": "multiFeeDistribution",
      "outputs": [
        {
          "internalType": "address",
          "name": "",
          "type": "address"
        }
      ],
      "stateMutability": "view",
      "type": "function"
    },
    {
      "inputs": [],
      "name": "owner",
      "outputs": [
        {
          "internalType": "address",
          "name": "",
          "type": "address"
        }
      ],
      "stateMutability": "view",
      "type": "function"
    },
    {
      "inputs": [],
      "name": "pause",
      "outputs": [],
      "stateMutability": "nonpayable",
      "type": "function"
    },
    {
      "inputs": [],
      "name": "paused",
      "outputs": [
        {
          "internalType": "bool",
          "name": "",
          "type": "bool"
        }
      ],
      "stateMutability": "view",
      "type": "function"
    },
    {
      "inputs": [],
      "name": "priceProvider",
      "outputs": [
        {
          "internalType": "address",
          "name": "",
          "type": "address"
        }
      ],
      "stateMutability": "view",
      "type": "function"
    },
    {
      "inputs": [],
      "name": "rdntToken",
      "outputs": [
        {
          "internalType": "contract IMintableToken",
          "name": "",
          "type": "address"
        }
      ],
      "stateMutability": "view",
      "type": "function"
    },
    {
      "inputs": [],
      "name": "renounceOwnership",
      "outputs": [],
      "stateMutability": "nonpayable",
      "type": "function"
    },
    {
      "inputs": [
        {
          "internalType": "uint256",
          "name": "",
          "type": "uint256"
        }
      ],
      "name": "rewardBaseTokens",
      "outputs": [
        {
          "internalType": "address",
          "name": "",
          "type": "address"
        }
      ],
      "stateMutability": "view",
      "type": "function"
    },
    {
      "inputs": [
        {
          "internalType": "address",
          "name": "",
          "type": "address"
        },
        {
          "internalType": "uint256",
          "name": "",
          "type": "uint256"
        }
      ],
      "name": "rewardToBaseRoute",
      "outputs": [
        {
          "internalType": "address",
          "name": "",
          "type": "address"
        }
      ],
      "stateMutability": "view",
      "type": "function"
    },
    {
      "inputs": [],
      "name": "selfCompound",
      "outputs": [
        {
          "internalType": "uint256",
          "name": "fee",
          "type": "uint256"
        }
      ],
      "stateMutability": "nonpayable",
      "type": "function"
    },
    {
      "inputs": [],
      "name": "selfEligibleCompound",
      "outputs": [
        {
          "internalType": "bool",
          "name": "eligible",
          "type": "bool"
        }
      ],
      "stateMutability": "view",
      "type": "function"
    },
    {
      "inputs": [
        {
          "internalType": "address",
          "name": "_manager",
          "type": "address"
        }
      ],
      "name": "setBountyManager",
      "outputs": [],
      "stateMutability": "nonpayable",
      "type": "function"
    },
    {
      "inputs": [
        {
          "internalType": "uint256",
          "name": "_compoundFee",
          "type": "uint256"
        }
      ],
      "name": "setCompoundFee",
      "outputs": [],
      "stateMutability": "nonpayable",
      "type": "function"
    },
    {
      "inputs": [
        {
          "internalType": "address",
          "name": "_token",
          "type": "address"
        },
        {
          "internalType": "address[]",
          "name": "_routes",
          "type": "address[]"
        }
      ],
      "name": "setRoutes",
      "outputs": [],
      "stateMutability": "nonpayable",
      "type": "function"
    },
    {
      "inputs": [
        {
          "internalType": "uint256",
          "name": "_slippageLimit",
          "type": "uint256"
        }
      ],
      "name": "setSlippageLimit",
      "outputs": [],
      "stateMutability": "nonpayable",
      "type": "function"
    },
    {
      "inputs": [],
      "name": "slippageLimit",
      "outputs": [
        {
          "internalType": "uint256",
          "name": "",
          "type": "uint256"
        }
      ],
      "stateMutability": "view",
      "type": "function"
    },
    {
      "inputs": [
        {
          "internalType": "address",
          "name": "newOwner",
          "type": "address"
        }
      ],
      "name": "transferOwnership",
      "outputs": [],
      "stateMutability": "nonpayable",
      "type": "function"
    },
    {
      "inputs": [],
      "name": "uniRouter",
      "outputs": [
        {
          "internalType": "address",
          "name": "",
          "type": "address"
        }
      ],
      "stateMutability": "view",
      "type": "function"
    },
    {
      "inputs": [],
      "name": "unpause",
      "outputs": [],
      "stateMutability": "nonpayable",
      "type": "function"
    },
    {
      "inputs": [
        {
          "internalType": "address",
          "name": "_user",
          "type": "address"
        }
      ],
      "name": "userEligibleForCompound",
      "outputs": [
        {
          "internalType": "bool",
          "name": "eligible",
          "type": "bool"
        }
      ],
      "stateMutability": "view",
      "type": "function"
    },
    {
      "inputs": [
        {
          "internalType": "address",
          "name": "_user",
          "type": "address"
        }
      ],
      "name": "viewPendingRewards",
      "outputs": [
        {
          "internalType": "address[]",
          "name": "tokens",
          "type": "address[]"
        },
        {
          "internalType": "uint256[]",
          "name": "amts",
          "type": "uint256[]"
        }
      ],
      "stateMutability": "view",
      "type": "function"
    },
    {
      "inputs": [
        {
          "internalType": "uint256",
          "name": "",
          "type": "uint256"
        }
      ],
      "name": "wethToRadiant",
      "outputs": [
        {
          "internalType": "address",
          "name": "",
          "type": "address"
        }
      ],
      "stateMutability": "view",
      "type": "function"
    }
  ],
  "bytecode": "0x608060405234801561001057600080fd5b506130cc806100206000396000f3fe608060405234801561001057600080fd5b50600436106102415760003560e01c80635c975abb11610145578063b19f2dbc116100bd578063c55dae631161008c578063e08094c811610071578063e08094c814610494578063f2fde38b146104a7578063ff66a305146104ba57600080fd5b8063c55dae631461046e578063d3cb96fa1461048157600080fd5b8063b19f2dbc14610422578063b33f952714610435578063b36b9ffd14610448578063b888879e1461045b57600080fd5b806378940b6c116101145780638da5cb5b116100f95780638da5cb5b146103eb5780638f432074146103fc578063a0e47bf61461040f57600080fd5b806378940b6c146103db5780638456cb59146103e357600080fd5b80635c975abb146103ad57806365ee91a7146103b85780636eec47ce146103c0578063715018a6146103d357600080fd5b80633299fcc7116101d85780634870dd9a116101a7578063542b3cb81161018c578063542b3cb81461037e57806356dac67b146103915780635b07871a146103a457600080fd5b80634870dd9a146103625780634c6f71311461036b57600080fd5b80633299fcc7146103035780633d717544146103245780633f4ba83a146103375780634451a2a21461033f57600080fd5b80631fe4ba17116102145780631fe4ba17146102c057806327ec5066146102d55780632954018c146102e85780633239d438146102fb57600080fd5b806306346c30146102465780630a6c3bb21461027657806317053a7e1461028d5780631be6fde3146102ad575b600080fd5b60a154610259906001600160a01b031681565b6040516001600160a01b0390911681526020015b60405180910390f35b61027f60975481565b60405190815260200161026d565b61027f61029b36600461289d565b60a36020526000908152604090205481565b6102596102bb3660046128c1565b6104cd565b6102d36102ce3660046128c1565b6104f7565b005b6102d36102e33660046128c1565b610568565b609b54610259906001600160a01b031681565b61027f6105d3565b61031661031136600461289d565b610756565b60405161026d92919061291e565b6102d3610332366004612a7d565b6109ed565b6102d3610a5c565b61035261034d3660046128c1565b610a6e565b604051901515815260200161026d565b61027f61271081565b609954610259906001600160a01b031681565b60a054610259906001600160a01b031681565b61035261039f36600461289d565b610a81565b61027f60985481565b60655460ff16610352565b610352610ac4565b6102596103ce3660046128c1565b610b06565b6102d3610b16565b61027f610b28565b6102d3610b3a565b6033546001600160a01b0316610259565b61027f61040a366004612adb565b610b4a565b609f54610259906001600160a01b031681565b6102d3610430366004612b14565b610e5a565b6102d3610443366004612b49565b610eb0565b60a254610259906001600160a01b031681565b609c54610259906001600160a01b031681565b609a54610259906001600160a01b031681565b61025961048f366004612bcc565b6113ad565b6103526104a2366004612bcc565b6113e5565b6102d36104b536600461289d565b6114db565b6102d36104c836600461289d565b61156b565b609e81815481106104dd57600080fd5b6000918252602090912001546001600160a01b0316905081565b6104ff611595565b611f408110158015610512575061271081105b6105635760405162461bcd60e51b815260206004820152601660248201527f496e76616c696420736c697070616765206c696d69740000000000000000000060448201526064015b60405180910390fd5b609855565b610570611595565b60008111801561058257506107d08111155b6105ce5760405162461bcd60e51b815260206004820152601460248201527f496e76616c696420636f6d706f756e6420666565000000000000000000000000604482015260640161055a565b609755565b609c5460a254604080517fd9cdd51300000000000000000000000000000000000000000000000000000000815290516000936001600160a01b0390811693859391169163d9cdd513916004808201926020929091908290030181865afa158015610641573d6000803e3d6000fd5b505050506040513d601f19601f820116820180604052508101906106659190612bf8565b90506000826001600160a01b0316636f5cdb6c6040518163ffffffff1660e01b8152600401602060405180830381865afa1580156106a7573d6000803e3d6000fd5b505050506040513d601f19601f820116820180604052508101906106cb9190612bf8565b9050826001600160a01b031663313ce5676040518163ffffffff1660e01b8152600401602060405180830381865afa15801561070b573d6000803e3d6000fd5b505050506040513d601f19601f8201168201806040525081019061072f9190612bf8565b61073a90600a612d0b565b6107448284612d17565b61074e9190612d36565b935050505090565b60a0546040517fdc01f60d0000000000000000000000000000000000000000000000000000000081526001600160a01b03838116600483015260609283926000929091169063dc01f60d90602401600060405180830381865afa1580156107c1573d6000803e3d6000fd5b505050506040513d6000823e601f3d908101601f191682016040526107e99190810190612d58565b9050600181516107f99190612e0c565b67ffffffffffffffff81111561081157610811612975565b60405190808252806020026020018201604052801561083a578160200160208202803683370190505b5092506001815161084b9190612e0c565b67ffffffffffffffff81111561086357610863612975565b60405190808252806020026020018201604052801561088c578160200160208202803683370190505b5091506000805b82518110156109e55760995483516001600160a01b03909116908490839081106108bf576108bf612e23565b6020026020010151600001516001600160a01b0316146109d3578281815181106108eb576108eb612e23565b6020026020010151600001516001600160a01b031663b16a19de6040518163ffffffff1660e01b8152600401602060405180830381865afa158015610934573d6000803e3d6000fd5b505050506040513d601f19601f820116820180604052508101906109589190612e39565b85838151811061096a5761096a612e23565b60200260200101906001600160a01b031690816001600160a01b03168152505082818151811061099c5761099c612e23565b6020026020010151602001518483815181106109ba576109ba612e23565b6020908102919091010152816109cf81612e56565b9250505b806109dd81612e56565b915050610893565b505050915091565b6109f5611595565b6001600160a01b038216600090815260a4602090815260409091208251610a1e9284019061280e565b507fbdcf5c7cd2942fc5ccabe6763e7068cae07e81eab2274cbf60f941357fc726c08282604051610a50929190612e71565b60405180910390a15050565b610a64611595565b610a6c6115ef565b565b6000610a786105d3565b90911015919050565b6000806000610a8f84610756565b609a549193509150600090610ab090849084906001600160a01b0316611641565b9050610aba6105d3565b1115949350505050565b6000806000610ad233610756565b609a549193509150600090610af390849084906001600160a01b0316611641565b9050610afd6105d3565b11159392505050565b609d81815481106104dd57600080fd5b610b1e611595565b610a6c6000611705565b6000610b35336001610b4a565b905090565b610b42611595565b610a6c611757565b6000610b5860655460ff1690565b15610b6557506000610e54565b6001600160a01b038316331415600080610b7e86610756565b609a549193509150600090610b9f90849084906001600160a01b0316611641565b90508315610c765760a2546001600160a01b03163314610c015760405162461bcd60e51b815260206004820152600e60248201527f21626f756e74796d616e61676572000000000000000000000000000000000000604482015260640161055a565b6000610c0d88836113e5565b905080610c70578615610c625760405162461bcd60e51b815260206004820152601d60248201527f6e6f7420656c696769626c6520666f72206175746f636f6d706f756e64000000604482015260640161055a565b600095505050505050610e54565b50610ccb565b610c7f81610a6e565b610ccb5760405162461bcd60e51b815260206004820152601560248201527f6d696e207374616b6520616d74206e6f74206d65740000000000000000000000604482015260640161055a565b85610d05576000610cdc8288611794565b905061271060975482610cef9190612d17565b610cf99190612d36565b95505050505050610e54565b6000610d1088611a42565b60985490915082610d2383612710612d17565b610d2d9190612d36565b1015610d7b5760405162461bcd60e51b815260206004820152601160248201527f746f6f206d75636820736c697070616765000000000000000000000000000000604482015260640161055a565b8415610da857610da561271060975483610d959190612d17565b610d9f9190612d36565b88611794565b95505b610db188611e6c565b508415610e4e5760995460a25460405163095ea7b360e01b81526001600160a01b0391821660048201526024810189905291169063095ea7b3906044016020604051808303816000875af1158015610e0d573d6000803e3d6000fd5b505050506040513d601f19601f82011682018060405250810190610e319190612e93565b506001600160a01b038816600090815260a3602052604090204290555b50505050505b92915050565b610e62611595565b8051610e7590609d90602084019061280e565b507fb55f0df293d67d65dc862e41c2fbfc662b213b761342ac229f5a24f3c70bfe3381604051610ea59190612eb0565b60405180910390a150565b600054610100900460ff1615808015610ed05750600054600160ff909116105b80610eea5750303b158015610eea575060005460ff166001145b610f5c5760405162461bcd60e51b815260206004820152602e60248201527f496e697469616c697a61626c653a20636f6e747261637420697320616c72656160448201527f647920696e697469616c697a6564000000000000000000000000000000000000606482015260840161055a565b6000805460ff191660011790558015610f7f576000805461ff0019166101001790555b6001600160a01b038816610fc35760405162461bcd60e51b815260206004820152600b60248201526a307830206164647265737360a81b604482015260640161055a565b6001600160a01b0387166110075760405162461bcd60e51b815260206004820152600b60248201526a307830206164647265737360a81b604482015260640161055a565b6001600160a01b03861661104b5760405162461bcd60e51b815260206004820152600b60248201526a307830206164647265737360a81b604482015260640161055a565b6001600160a01b03851661108f5760405162461bcd60e51b815260206004820152600b60248201526a307830206164647265737360a81b604482015260640161055a565b6001600160a01b0384166110d35760405162461bcd60e51b815260206004820152600b60248201526a307830206164647265737360a81b604482015260640161055a565b6000831180156110e557506107d08311155b6111315760405162461bcd60e51b815260206004820152601460248201527f496e76616c696420636f6d706f756e6420666565000000000000000000000000604482015260640161055a565b611f408210158015611144575061271082105b6111905760405162461bcd60e51b815260206004820152601660248201527f496e76616c696420736c697070616765206c696d697400000000000000000000604482015260640161055a565b609f80546001600160a01b03808b166001600160a01b03199283161790925560a080548a84169083168117909155609a80548a8516908416179055609b805489851690841617905560a1805493881693909216929092179055604080517f4c6f71310000000000000000000000000000000000000000000000000000000081529051634c6f7131916004818101926020929091908290030181865afa15801561123d573d6000803e3d6000fd5b505050506040513d601f19601f820116820180604052508101906112619190612e39565b609980546001600160a01b0319166001600160a01b0392831617905560a054604080517f0a065fb600000000000000000000000000000000000000000000000000000000815290519190921691630a065fb69160048083019260209291908290030181865afa1580156112d8573d6000803e3d6000fd5b505050506040513d601f19601f820116820180604052508101906112fc9190612e39565b609c80546001600160a01b0319166001600160a01b0392831617905560408051808201909152609a5482168152609954909116602082015261134290609e90600261280e565b5060978390556098829055611355611fa9565b61135d61201c565b80156113a3576000805461ff0019169055604051600181527f7f26b83ff96e1f2b6a682f133852f6798a09c465da95921460cefb38474024989060200160405180910390a15b5050505050505050565b60a460205281600052604060002081815481106113c957600080fd5b6000918252602090912001546001600160a01b03169150829050565b6001600160a01b038216600090815260a3602052604081205460019015611433576001600160a01b038416600090815260a36020526040902054620151809061142e9042612e0c565b101590505b60a0546040517fada71bc20000000000000000000000000000000000000000000000000000000081526001600160a01b0386811660048301529091169063ada71bc290602401602060405180830381865afa158015611496573d6000803e3d6000fd5b505050506040513d601f19601f820116820180604052508101906114ba9190612e93565b80156114ca57506114ca83610a6e565b80156114d35750805b949350505050565b6114e3611595565b6001600160a01b03811661155f5760405162461bcd60e51b815260206004820152602660248201527f4f776e61626c653a206e6577206f776e657220697320746865207a65726f206160448201527f6464726573730000000000000000000000000000000000000000000000000000606482015260840161055a565b61156881611705565b50565b611573611595565b60a280546001600160a01b0319166001600160a01b0392909216919091179055565b6033546001600160a01b03163314610a6c5760405162461bcd60e51b815260206004820181905260248201527f4f776e61626c653a2063616c6c6572206973206e6f7420746865206f776e6572604482015260640161055a565b6115f761208f565b6065805460ff191690557f5db9ee0a495bf2e6ff9c91a7834c1ba4fdd244a5e8aa4e537bd38aeae4b073aa335b6040516001600160a01b03909116815260200160405180910390a1565b600082518451146116945760405162461bcd60e51b815260206004820152600f60248201527f6c656e677468206d69736d617463680000000000000000000000000000000000604482015260640161055a565b835160005b818110156116fc576116de8682815181106116b6576116b6612e23565b6020026020010151858784815181106116d1576116d1612e23565b60200260200101516120e1565b6116e89084612ec3565b9250806116f481612e56565b915050611699565b50509392505050565b603380546001600160a01b038381166001600160a01b0319831681179093556040519116919082907f8be0079c531659141344cd1fd0a4f28419497f9722a3daafe3b4186f6b6457e090600090a35050565b61175f61235a565b6065805460ff191660011790557f62e78cea01bee320cd4e420270b5ea74000d11b0c9f74754ebdbfc544b05a2586116243390565b600080609c60009054906101000a90046001600160a01b03166001600160a01b0316634b94f50e6040518163ffffffff1660e01b8152600401602060405180830381865afa1580156117ea573d6000803e3d6000fd5b505050506040513d601f19601f8201168201806040525081019061180e9190612bf8565b905083156119b55782156118f657609f54609a54611839916001600160a01b039182169116866123ad565b609f546000906001600160a01b03166338ed17398683609e3061185e42610258612ec3565b6040518663ffffffff1660e01b815260040161187e959493929190612f19565b6000604051808303816000875af115801561189d573d6000803e3d6000fd5b505050506040513d6000823e601f3d908101601f191682016040526118c59190810190612f55565b905080600182516118d69190612e0c565b815181106118e6576118e6612e23565b60200260200101519250506119b5565b609f546040517fd06ca61f0000000000000000000000000000000000000000000000000000000081526000916001600160a01b03169063d06ca61f90611943908890609e90600401612fdb565b600060405180830381865afa158015611960573d6000803e3d6000fd5b505050506040513d6000823e601f3d908101601f191682016040526119889190810190612f55565b905080600182516119999190612e0c565b815181106119a9576119a9612e23565b60200260200101519250505b60006119c18383612d17565b9050612710609854866119d49190612d17565b6119de9190612d36565b6119ec6305f5e10083612d36565b1015611a3a5760405162461bcd60e51b815260206004820152601160248201527f746f6f206d75636820736c697070616765000000000000000000000000000000604482015260640161055a565b505092915050565b60a0546040517fb2d6e66d0000000000000000000000000000000000000000000000000000000081526001600160a01b0383811660048301526000921690819063b2d6e66d90602401600060405180830381600087803b158015611aa557600080fd5b505af1158015611ab9573d6000803e3d6000fd5b505050506000609b60009054906101000a90046001600160a01b03166001600160a01b0316630261bf8b6040518163ffffffff1660e01b8152600401602060405180830381865afa158015611b12573d6000803e3d6000fd5b505050506040513d601f19601f82011682018060405250810190611b369190612e39565b905060005b609d54811015611dff576000609d8281548110611b5a57611b5a612e23565b6000918252602090912001546040516370a0823160e01b81523060048201526001600160a01b03909116906370a0823190602401602060405180830381865afa158015611bab573d6000803e3d6000fd5b505050506040513d601f19601f82011682018060405250810190611bcf9190612bf8565b905080611bdc5750611ded565b6000609d8381548110611bf157611bf1612e23565b60009182526020918290200154604080517fb16a19de00000000000000000000000000000000000000000000000000000000815290516001600160a01b039092169263b16a19de926004808401938290030181865afa158015611c58573d6000803e3d6000fd5b505050506040513d601f19601f82011682018060405250810190611c7c9190612e39565b6040517f69328dec0000000000000000000000000000000000000000000000000000000081526001600160a01b03808316600483015260001960248301523060448301529192506000918616906369328dec906064016020604051808303816000875af1158015611cf1573d6000803e3d6000fd5b505050506040513d601f19601f82011682018060405250810190611d159190612bf8565b609a549091506001600160a01b03838116911614611de957609f54611d47906001600160a01b038481169116836123ad565b609f546001600160a01b03838116600090815260a46020526040812091909216916338ed17399184919030611d7e42610258612ec3565b6040518663ffffffff1660e01b8152600401611d9e959493929190612f19565b6000604051808303816000875af1925050508015611dde57506040513d6000823e601f3d908101601f19168201604052611ddb9190810190612f55565b60015b611de757611de9565b505b5050505b80611df781612e56565b915050611b3b565b50609a546040516370a0823160e01b81523060048201526001600160a01b03909116906370a0823190602401602060405180830381865afa158015611e48573d6000803e3d6000fd5b505050506040513d601f19601f820116820180604052508101906114d39190612bf8565b609a546040516370a0823160e01b815230600482015260009182916001600160a01b03909116906370a0823190602401602060405180830381865afa158015611eb9573d6000803e3d6000fd5b505050506040513d601f19601f82011682018060405250810190611edd9190612bf8565b90508015611fa35760a154609a54611f02916001600160a01b039182169116836123ad565b60a1546040517fd47808850000000000000000000000000000000000000000000000000000000081526000600482018190526024820184905260448201526001600160a01b0385811660648301529091169063d4780885906084016020604051808303816000875af1158015611f7c573d6000803e3d6000fd5b505050506040513d601f19601f82011682018060405250810190611fa09190612bf8565b91505b50919050565b600054610100900460ff166120145760405162461bcd60e51b815260206004820152602b60248201527f496e697469616c697a61626c653a20636f6e7472616374206973206e6f74206960448201526a6e697469616c697a696e6760a81b606482015260840161055a565b610a6c61251e565b600054610100900460ff166120875760405162461bcd60e51b815260206004820152602b60248201527f496e697469616c697a61626c653a20636f6e7472616374206973206e6f74206960448201526a6e697469616c697a696e6760a81b606482015260840161055a565b610a6c612592565b60655460ff16610a6c5760405162461bcd60e51b815260206004820152601460248201527f5061757361626c653a206e6f7420706175736564000000000000000000000000604482015260640161055a565b600080609b60009054906101000a90046001600160a01b03166001600160a01b031663fca513a86040518163ffffffff1660e01b8152600401602060405180830381865afa158015612137573d6000803e3d6000fd5b505050506040513d601f19601f8201168201806040525081019061215b9190612e39565b60405163b3596f0760e01b81526001600160a01b03878116600483015291925060009183169063b3596f0790602401602060405180830381865afa1580156121a7573d6000803e3d6000fd5b505050506040513d601f19601f820116820180604052508101906121cb9190612bf8565b60405163b3596f0760e01b81526001600160a01b03878116600483015291925060009184169063b3596f0790602401602060405180830381865afa158015612217573d6000803e3d6000fd5b505050506040513d601f19601f8201168201806040525081019061223b9190612bf8565b90506000876001600160a01b031663313ce5676040518163ffffffff1660e01b8152600401602060405180830381865afa15801561227d573d6000803e3d6000fd5b505050506040513d601f19601f820116820180604052508101906122a19190612ff4565b60ff1690506000876001600160a01b031663313ce5676040518163ffffffff1660e01b8152600401602060405180830381865afa1580156122e6573d6000803e3d6000fd5b505050506040513d601f19601f8201168201806040525081019061230a9190612ff4565b60ff16905061231a82600a612d0b565b6123249084612d17565b61232f82600a612d0b565b612339868a612d17565b6123439190612d17565b61234d9190612d36565b9998505050505050505050565b60655460ff1615610a6c5760405162461bcd60e51b815260206004820152601060248201527f5061757361626c653a2070617573656400000000000000000000000000000000604482015260640161055a565b80158061244057506040517fdd62ed3e0000000000000000000000000000000000000000000000000000000081523060048201526001600160a01b03838116602483015284169063dd62ed3e90604401602060405180830381865afa15801561241a573d6000803e3d6000fd5b505050506040513d601f19601f8201168201806040525081019061243e9190612bf8565b155b6124b25760405162461bcd60e51b815260206004820152603660248201527f5361666545524332303a20617070726f76652066726f6d206e6f6e2d7a65726f60448201527f20746f206e6f6e2d7a65726f20616c6c6f77616e636500000000000000000000606482015260840161055a565b604080516001600160a01b038416602482015260448082018490528251808303909101815260649091019091526020810180517bffffffffffffffffffffffffffffffffffffffffffffffffffffffff1663095ea7b360e01b179052612519908490612609565b505050565b600054610100900460ff166125895760405162461bcd60e51b815260206004820152602b60248201527f496e697469616c697a61626c653a20636f6e7472616374206973206e6f74206960448201526a6e697469616c697a696e6760a81b606482015260840161055a565b610a6c33611705565b600054610100900460ff166125fd5760405162461bcd60e51b815260206004820152602b60248201527f496e697469616c697a61626c653a20636f6e7472616374206973206e6f74206960448201526a6e697469616c697a696e6760a81b606482015260840161055a565b6065805460ff19169055565b600061265e826040518060400160405280602081526020017f5361666545524332303a206c6f772d6c6576656c2063616c6c206661696c6564815250856001600160a01b03166126ee9092919063ffffffff16565b805190915015612519578080602001905181019061267c9190612e93565b6125195760405162461bcd60e51b815260206004820152602a60248201527f5361666545524332303a204552433230206f7065726174696f6e20646964206e60448201527f6f74207375636365656400000000000000000000000000000000000000000000606482015260840161055a565b60606114d3848460008585600080866001600160a01b031685876040516127159190613047565b60006040518083038185875af1925050503d8060008114612752576040519150601f19603f3d011682016040523d82523d6000602084013e612757565b606091505b509150915061276887838387612773565b979650505050505050565b606083156127df5782516127d8576001600160a01b0385163b6127d85760405162461bcd60e51b815260206004820152601d60248201527f416464726573733a2063616c6c20746f206e6f6e2d636f6e7472616374000000604482015260640161055a565b50816114d3565b6114d383838151156127f45781518083602001fd5b8060405162461bcd60e51b815260040161055a9190613063565b828054828255906000526020600020908101928215612863579160200282015b8281111561286357825182546001600160a01b0319166001600160a01b0390911617825560209092019160019091019061282e565b5061286f929150612873565b5090565b5b8082111561286f5760008155600101612874565b6001600160a01b038116811461156857600080fd5b6000602082840312156128af57600080fd5b81356128ba81612888565b9392505050565b6000602082840312156128d357600080fd5b5035919050565b600081518084526020808501945080840160005b838110156129135781516001600160a01b0316875295820195908201906001016128ee565b509495945050505050565b60408152600061293160408301856128da565b82810360208481019190915284518083528582019282019060005b818110156129685784518352938301939183019160010161294c565b5090979650505050505050565b634e487b7160e01b600052604160045260246000fd5b6040805190810167ffffffffffffffff811182821017156129ae576129ae612975565b60405290565b604051601f8201601f1916810167ffffffffffffffff811182821017156129dd576129dd612975565b604052919050565b600067ffffffffffffffff8211156129ff576129ff612975565b5060051b60200190565b600082601f830112612a1a57600080fd5b81356020612a2f612a2a836129e5565b6129b4565b82815260059290921b84018101918181019086841115612a4e57600080fd5b8286015b84811015612a72578035612a6581612888565b8352918301918301612a52565b509695505050505050565b60008060408385031215612a9057600080fd5b8235612a9b81612888565b9150602083013567ffffffffffffffff811115612ab757600080fd5b612ac385828601612a09565b9150509250929050565b801515811461156857600080fd5b60008060408385031215612aee57600080fd5b8235612af981612888565b91506020830135612b0981612acd565b809150509250929050565b600060208284031215612b2657600080fd5b813567ffffffffffffffff811115612b3d57600080fd5b6114d384828501612a09565b600080600080600080600060e0888a031215612b6457600080fd5b8735612b6f81612888565b96506020880135612b7f81612888565b95506040880135612b8f81612888565b94506060880135612b9f81612888565b93506080880135612baf81612888565b9699959850939692959460a0840135945060c09093013592915050565b60008060408385031215612bdf57600080fd5b8235612bea81612888565b946020939093013593505050565b600060208284031215612c0a57600080fd5b5051919050565b634e487b7160e01b600052601160045260246000fd5b600181815b80851115612c62578160001904821115612c4857612c48612c11565b80851615612c5557918102915b93841c9390800290612c2c565b509250929050565b600082612c7957506001610e54565b81612c8657506000610e54565b8160018114612c9c5760028114612ca657612cc2565b6001915050610e54565b60ff841115612cb757612cb7612c11565b50506001821b610e54565b5060208310610133831016604e8410600b8410161715612ce5575081810a610e54565b612cef8383612c27565b8060001904821115612d0357612d03612c11565b029392505050565b60006128ba8383612c6a565b6000816000190483118215151615612d3157612d31612c11565b500290565b600082612d5357634e487b7160e01b600052601260045260246000fd5b500490565b60006020808385031215612d6b57600080fd5b825167ffffffffffffffff811115612d8257600080fd5b8301601f81018513612d9357600080fd5b8051612da1612a2a826129e5565b81815260069190911b82018301908381019087831115612dc057600080fd5b928401925b828410156127685760408489031215612dde5760008081fd5b612de661298b565b8451612df181612888565b81528486015186820152825260409093019290840190612dc5565b600082821015612e1e57612e1e612c11565b500390565b634e487b7160e01b600052603260045260246000fd5b600060208284031215612e4b57600080fd5b81516128ba81612888565b6000600019821415612e6a57612e6a612c11565b5060010190565b6001600160a01b03831681526040602082015260006114d360408301846128da565b600060208284031215612ea557600080fd5b81516128ba81612acd565b6020815260006128ba60208301846128da565b60008219821115612ed657612ed6612c11565b500190565b6000815480845260208085019450836000528060002060005b838110156129135781546001600160a01b031687529582019560019182019101612ef4565b85815284602082015260a060408201526000612f3860a0830186612edb565b6001600160a01b0394909416606083015250608001529392505050565b60006020808385031215612f6857600080fd5b825167ffffffffffffffff811115612f7f57600080fd5b8301601f81018513612f9057600080fd5b8051612f9e612a2a826129e5565b81815260059190911b82018301908381019087831115612fbd57600080fd5b928401925b8284101561276857835182529284019290840190612fc2565b8281526040602082015260006114d36040830184612edb565b60006020828403121561300657600080fd5b815160ff811681146128ba57600080fd5b60005b8381101561303257818101518382015260200161301a565b83811115613041576000848401525b50505050565b60008251613059818460208701613017565b9190910192915050565b6020815260008251806020840152613082816040850160208701613017565b601f01601f1916919091016040019291505056fea2646970667358221220e88e5c0cc6ec2b11ebe6db4a7a7a2e85a20bd22cf15080cbed3be9449a61329564736f6c634300080c0033",
  "linkReferences": {},
  "deployedLinkReferences": {}
}