{
  "_format": "hh-sol-artifact-1",
  "contractName": "PriceProvider",
  "sourceName": "contracts/oracles/PriceProvider.sol",
  "abi": [
    {
      "anonymous": false,
      "inputs": [
        {
          "indexed": true,
          "internalType": "address",
          "name": "previousOwner",
          "type": "address"
        },
        {
          "indexed": true,
          "internalType": "address",
          "name": "newOwner",
          "type": "address"
        }
      ],
      "name": "OwnershipTransferred",
      "type": "event"
    },
    {
      "inputs": [],
      "name": "baseTokenPriceInUsdProxyAggregator",
      "outputs": [
        {
          "internalType": "contract IChainlinkAggregator",
          "name": "",
          "type": "address"
        }
      ],
      "stateMutability": "view",
      "type": "function"
    },
    {
      "inputs": [],
      "name": "decimals",
      "outputs": [
        {
          "internalType": "uint256",
          "name": "",
          "type": "uint256"
        }
      ],
      "stateMutability": "pure",
      "type": "function"
    },
    {
      "inputs": [],
      "name": "eligibilityProvider",
      "outputs": [
        {
          "internalType": "contract IRewardEligibleDataProvider",
          "name": "",
          "type": "address"
        }
      ],
      "stateMutability": "view",
      "type": "function"
    },
    {
      "inputs": [],
      "name": "getLpTokenAddress",
      "outputs": [
        {
          "internalType": "address",
          "name": "",
          "type": "address"
        }
      ],
      "stateMutability": "view",
      "type": "function"
    },
    {
      "inputs": [],
      "name": "getLpTokenPrice",
      "outputs": [
        {
          "internalType": "uint256",
          "name": "",
          "type": "uint256"
        }
      ],
      "stateMutability": "view",
      "type": "function"
    },
    {
      "inputs": [],
      "name": "getLpTokenPriceUsd",
      "outputs": [
        {
          "internalType": "uint256",
          "name": "price",
          "type": "uint256"
        }
      ],
      "stateMutability": "view",
      "type": "function"
    },
    {
      "inputs": [],
      "name": "getTokenPrice",
      "outputs": [
        {
          "internalType": "uint256",
          "name": "",
          "type": "uint256"
        }
      ],
      "stateMutability": "view",
      "type": "function"
    },
    {
      "inputs": [],
      "name": "getTokenPriceUsd",
      "outputs": [
        {
          "internalType": "uint256",
          "name": "",
          "type": "uint256"
        }
      ],
      "stateMutability": "view",
      "type": "function"
    },
    {
      "inputs": [
        {
          "internalType": "contract IChainlinkAggregator",
          "name": "_baseTokenPriceInUsdProxyAggregator",
          "type": "address"
        },
        {
          "internalType": "contract IPoolHelper",
          "name": "_poolHelper",
          "type": "address"
        },
        {
          "internalType": "contract IBaseOracle",
          "name": "_oracle",
          "type": "address"
        }
      ],
      "name": "initialize",
      "outputs": [],
      "stateMutability": "nonpayable",
      "type": "function"
    },
    {
      "inputs": [],
      "name": "oracle",
      "outputs": [
        {
          "internalType": "contract IBaseOracle",
          "name": "",
          "type": "address"
        }
      ],
      "stateMutability": "view",
      "type": "function"
    },
    {
      "inputs": [],
      "name": "owner",
      "outputs": [
        {
          "internalType": "address",
          "name": "",
          "type": "address"
        }
      ],
      "stateMutability": "view",
      "type": "function"
    },
    {
      "inputs": [],
      "name": "poolHelper",
      "outputs": [
        {
          "internalType": "contract IPoolHelper",
          "name": "",
          "type": "address"
        }
      ],
      "stateMutability": "view",
      "type": "function"
    },
    {
      "inputs": [],
      "name": "renounceOwnership",
      "outputs": [],
      "stateMutability": "nonpayable",
      "type": "function"
    },
    {
      "inputs": [
        {
          "internalType": "contract IRewardEligibleDataProvider",
          "name": "_eligibilityProvider",
          "type": "address"
        }
      ],
      "name": "setRewardEligibilityProvider",
      "outputs": [],
      "stateMutability": "nonpayable",
      "type": "function"
    },
    {
      "inputs": [
        {
          "internalType": "address",
          "name": "newOwner",
          "type": "address"
        }
      ],
      "name": "transferOwnership",
      "outputs": [],
      "stateMutability": "nonpayable",
      "type": "function"
    },
    {
      "inputs": [],
      "name": "update",
      "outputs": [],
      "stateMutability": "nonpayable",
      "type": "function"
    }
  ],
  "bytecode": "0x608060405234801561001057600080fd5b50610d1b806100206000396000f3fe608060405234801561001057600080fd5b50600436106101005760003560e01c8063843b2ac411610097578063c0c53b8b11610066578063c0c53b8b14610195578063cf811d2a146101a8578063f2fde38b146101b0578063f857da9d146101c357610100565b8063843b2ac41461016a5780638c237c691461017d5780638da5cb5b14610185578063a2e620451461018d57610100565b80636e9a05c5116100d35780636e9a05c5146101485780636f5cdb6c14610150578063715018a6146101585780637dc0d1d01461016257610100565b8063313ce567146101055780634b94f50e1461012357806355ac8d301461012b5780636d2ed18414610140575b600080fd5b61010d6101cb565b60405161011a9190610c27565b60405180910390f35b61010d6101d3565b610133610255565b60405161011a9190610be6565b61010d610264565b61010d6102a9565b61010d61035f565b6101606103f1565b005b610133610471565b610160610178366004610b2c565b610480565b610133610516565b610133610593565b6101606105a2565b6101606101a3366004610b84565b610697565b610133610803565b6101606101be366004610b2c565b610812565b6101336108d7565b6305f5e10090565b609a54604080516304a39b9b60e31b815290516000926001600160a01b03169163251cdcd8916004808301926020929190829003018186803b15801561021857600080fd5b505afa15801561022c573d6000803e3d6000fd5b505050506040513d601f19601f820116820180604052508101906102509190610bce565b905090565b6098546001600160a01b031681565b609a54604080516350d25bcd60e01b815290516000926001600160a01b0316916350d25bcd916004808301926020929190829003018186803b15801561021857600080fd5b6000806102b461035f565b90506000609760009054906101000a90046001600160a01b03166001600160a01b03166350d25bcd6040518163ffffffff1660e01b815260040160206040518083038186803b15801561030657600080fd5b505afa15801561031a573d6000803e3d6000fd5b505050506040513d601f19601f8201168201806040525081019061033e9190610bce565b90506103586305f5e10061035284846108e6565b90610948565b9250505090565b60008061036a6101d3565b60985460405163714430fd60e11b81529192506001600160a01b03169063e28861fa9061039b908490600401610c27565b60206040518083038186803b1580156103b357600080fd5b505afa1580156103c7573d6000803e3d6000fd5b505050506040513d601f19601f820116820180604052508101906103eb9190610bce565b91505090565b6103f961098a565b6001600160a01b031661040a610593565b6001600160a01b031614610465576040805162461bcd60e51b815260206004820181905260248201527f4f776e61626c653a2063616c6c6572206973206e6f7420746865206f776e6572604482015290519081900360640190fd5b61046f600061098e565b565b609a546001600160a01b031681565b61048861098a565b6001600160a01b0316610499610593565b6001600160a01b0316146104f4576040805162461bcd60e51b815260206004820181905260248201527f4f776e61626c653a2063616c6c6572206973206e6f7420746865206f776e6572604482015290519081900360640190fd5b609980546001600160a01b0319166001600160a01b0392909216919091179055565b609854604080516321cf280b60e11b815290516000926001600160a01b03169163439e5016916004808301926020929190829003018186803b15801561055b57600080fd5b505afa15801561056f573d6000803e3d6000fd5b505050506040513d601f19601f820116820180604052508101906102509190610b48565b6065546001600160a01b031690565b609a60009054906101000a90046001600160a01b03166001600160a01b031663a17a26856040518163ffffffff1660e01b815260040160206040518083038186803b1580156105f057600080fd5b505afa158015610604573d6000803e3d6000fd5b505050506040513d601f19601f820116820180604052508101906106289190610b64565b1561046f57609a60009054906101000a90046001600160a01b03166001600160a01b031663a2e620456040518163ffffffff1660e01b8152600401600060405180830381600087803b15801561067d57600080fd5b505af1158015610691573d6000803e3d6000fd5b50505050565b600054610100900460ff16806106b057506106b06109e0565b806106be575060005460ff16155b6106f95760405162461bcd60e51b815260040180806020018281038252602e815260200180610c8d602e913960400191505060405180910390fd5b600054610100900460ff16158015610724576000805460ff1961ff0019909116610100171660011790555b6001600160a01b0384166107535760405162461bcd60e51b815260040161074a90610bfa565b60405180910390fd5b6001600160a01b0383166107795760405162461bcd60e51b815260040161074a90610bfa565b6001600160a01b03821661079f5760405162461bcd60e51b815260040161074a90610bfa565b6107a76109e6565b609880546001600160a01b038086166001600160a01b03199283161790925560978054878416908316179055609a8054928516929091169190911790556107ec6105a2565b8015610691576000805461ff001916905550505050565b6097546001600160a01b031681565b61081a61098a565b6001600160a01b031661082b610593565b6001600160a01b031614610886576040805162461bcd60e51b815260206004820181905260248201527f4f776e61626c653a2063616c6c6572206973206e6f7420746865206f776e6572604482015290519081900360640190fd5b6001600160a01b0381166108cb5760405162461bcd60e51b8152600401808060200182810382526026815260200180610c466026913960400191505060405180910390fd5b6108d48161098e565b50565b6099546001600160a01b031681565b6000826108f557506000610942565b8282028284828161090257fe5b041461093f5760405162461bcd60e51b8152600401808060200182810382526021815260200180610c6c6021913960400191505060405180910390fd5b90505b92915050565b600061093f83836040518060400160405280601a81526020017f536166654d6174683a206469766973696f6e206279207a65726f000000000000815250610a34565b3390565b606580546001600160a01b038381166001600160a01b0319831681179093556040519116919082907f8be0079c531659141344cd1fd0a4f28419497f9722a3daafe3b4186f6b6457e090600090a35050565b303b1590565b600054610100900460ff16610a2c5760405162461bcd60e51b815260040180806020018281038252602b815260200180610cbb602b913960400191505060405180910390fd5b61046f610ad6565b60008183610ac05760405162461bcd60e51b81526004018080602001828103825283818151815260200191508051906020019080838360005b83811015610a85578181015183820152602001610a6d565b50505050905090810190601f168015610ab25780820380516001836020036101000a031916815260200191505b509250505060405180910390fd5b506000838581610acc57fe5b0495945050505050565b600054610100900460ff16610b1c5760405162461bcd60e51b815260040180806020018281038252602b815260200180610cbb602b913960400191505060405180910390fd5b61046f610b2761098a565b61098e565b600060208284031215610b3d578081fd5b813561093f81610c30565b600060208284031215610b59578081fd5b815161093f81610c30565b600060208284031215610b75578081fd5b8151801515811461093f578182fd5b600080600060608486031215610b98578182fd5b8335610ba381610c30565b92506020840135610bb381610c30565b91506040840135610bc381610c30565b809150509250925092565b600060208284031215610bdf578081fd5b5051919050565b6001600160a01b0391909116815260200190565b6020808252601390820152724e6f7420612076616c6964206164647265737360681b604082015260600190565b90815260200190565b6001600160a01b03811681146108d457600080fdfe4f776e61626c653a206e6577206f776e657220697320746865207a65726f2061646472657373536166654d6174683a206d756c7469706c69636174696f6e206f766572666c6f77436f6e747261637420696e7374616e63652068617320616c7265616479206265656e20696e697469616c697a6564496e697469616c697a61626c653a20636f6e7472616374206973206e6f7420696e697469616c697a696e67a264697066735822122068537c0418259a15cb02b365180ccc20a5e9bc6e0a27a77618b5d18504d117cd64736f6c63430007060033",
  "linkReferences": {},
  "deployedLinkReferences": {}
}