{
  "_format": "hh-sol-artifact-1",
  "contractName": "MockLpContract",
  "sourceName": "contracts/mocks/sushi/MockLpContract.sol",
  "abi": [
    {
      "inputs": [
        {
          "internalType": "string",
          "name": "name",
          "type": "string"
        },
        {
          "internalType": "string",
          "name": "symbol",
          "type": "string"
        },
        {
          "internalType": "address",
          "name": "_rdntToken",
          "type": "address"
        },
        {
          "internalType": "uint256[]",
          "name": "_startBalances",
          "type": "uint256[]"
        }
      ],
      "stateMutability": "nonpayable",
      "type": "constructor"
    },
    {
      "anonymous": false,
      "inputs": [
        {
          "indexed": true,
          "internalType": "address",
          "name": "owner",
          "type": "address"
        },
        {
          "indexed": true,
          "internalType": "address",
          "name": "spender",
          "type": "address"
        },
        {
          "indexed": false,
          "internalType": "uint256",
          "name": "value",
          "type": "uint256"
        }
      ],
      "name": "Approval",
      "type": "event"
    },
    {
      "anonymous": false,
      "inputs": [
        {
          "indexed": true,
          "internalType": "address",
          "name": "from",
          "type": "address"
        },
        {
          "indexed": true,
          "internalType": "address",
          "name": "to",
          "type": "address"
        },
        {
          "indexed": false,
          "internalType": "uint256",
          "name": "value",
          "type": "uint256"
        }
      ],
      "name": "Transfer",
      "type": "event"
    },
    {
      "inputs": [
        {
          "internalType": "address",
          "name": "owner",
          "type": "address"
        },
        {
          "internalType": "address",
          "name": "spender",
          "type": "address"
        }
      ],
      "name": "allowance",
      "outputs": [
        {
          "internalType": "uint256",
          "name": "",
          "type": "uint256"
        }
      ],
      "stateMutability": "view",
      "type": "function"
    },
    {
      "inputs": [
        {
          "internalType": "address",
          "name": "spender",
          "type": "address"
        },
        {
          "internalType": "uint256",
          "name": "amount",
          "type": "uint256"
        }
      ],
      "name": "approve",
      "outputs": [
        {
          "internalType": "bool",
          "name": "",
          "type": "bool"
        }
      ],
      "stateMutability": "nonpayable",
      "type": "function"
    },
    {
      "inputs": [
        {
          "internalType": "address",
          "name": "account",
          "type": "address"
        }
      ],
      "name": "balanceOf",
      "outputs": [
        {
          "internalType": "uint256",
          "name": "",
          "type": "uint256"
        }
      ],
      "stateMutability": "view",
      "type": "function"
    },
    {
      "inputs": [],
      "name": "decimals",
      "outputs": [
        {
          "internalType": "uint8",
          "name": "",
          "type": "uint8"
        }
      ],
      "stateMutability": "view",
      "type": "function"
    },
    {
      "inputs": [
        {
          "internalType": "address",
          "name": "spender",
          "type": "address"
        },
        {
          "internalType": "uint256",
          "name": "subtractedValue",
          "type": "uint256"
        }
      ],
      "name": "decreaseAllowance",
      "outputs": [
        {
          "internalType": "bool",
          "name": "",
          "type": "bool"
        }
      ],
      "stateMutability": "nonpayable",
      "type": "function"
    },
    {
      "inputs": [],
      "name": "decreasePrice",
      "outputs": [],
      "stateMutability": "nonpayable",
      "type": "function"
    },
    {
      "inputs": [],
      "name": "getReserves",
      "outputs": [
        {
          "internalType": "uint256",
          "name": "_reserve0",
          "type": "uint256"
        },
        {
          "internalType": "uint256",
          "name": "_reserve1",
          "type": "uint256"
        },
        {
          "internalType": "uint256",
          "name": "_blockTimestampLast",
          "type": "uint256"
        }
      ],
      "stateMutability": "view",
      "type": "function"
    },
    {
      "inputs": [
        {
          "internalType": "address",
          "name": "spender",
          "type": "address"
        },
        {
          "internalType": "uint256",
          "name": "addedValue",
          "type": "uint256"
        }
      ],
      "name": "increaseAllowance",
      "outputs": [
        {
          "internalType": "bool",
          "name": "",
          "type": "bool"
        }
      ],
      "stateMutability": "nonpayable",
      "type": "function"
    },
    {
      "inputs": [],
      "name": "increasePrice",
      "outputs": [],
      "stateMutability": "nonpayable",
      "type": "function"
    },
    {
      "inputs": [],
      "name": "mint",
      "outputs": [],
      "stateMutability": "nonpayable",
      "type": "function"
    },
    {
      "inputs": [],
      "name": "mintSize",
      "outputs": [
        {
          "internalType": "uint256",
          "name": "",
          "type": "uint256"
        }
      ],
      "stateMutability": "nonpayable",
      "type": "function"
    },
    {
      "inputs": [],
      "name": "name",
      "outputs": [
        {
          "internalType": "string",
          "name": "",
          "type": "string"
        }
      ],
      "stateMutability": "view",
      "type": "function"
    },
    {
      "inputs": [],
      "name": "symbol",
      "outputs": [
        {
          "internalType": "string",
          "name": "",
          "type": "string"
        }
      ],
      "stateMutability": "view",
      "type": "function"
    },
    {
      "inputs": [],
      "name": "token0",
      "outputs": [
        {
          "internalType": "address",
          "name": "",
          "type": "address"
        }
      ],
      "stateMutability": "view",
      "type": "function"
    },
    {
      "inputs": [],
      "name": "totalSupply",
      "outputs": [
        {
          "internalType": "uint256",
          "name": "",
          "type": "uint256"
        }
      ],
      "stateMutability": "view",
      "type": "function"
    },
    {
      "inputs": [
        {
          "internalType": "address",
          "name": "recipient",
          "type": "address"
        },
        {
          "internalType": "uint256",
          "name": "amount",
          "type": "uint256"
        }
      ],
      "name": "transfer",
      "outputs": [
        {
          "internalType": "bool",
          "name": "",
          "type": "bool"
        }
      ],
      "stateMutability": "nonpayable",
      "type": "function"
    },
    {
      "inputs": [
        {
          "internalType": "address",
          "name": "sender",
          "type": "address"
        },
        {
          "internalType": "address",
          "name": "recipient",
          "type": "address"
        },
        {
          "internalType": "uint256",
          "name": "amount",
          "type": "uint256"
        }
      ],
      "name": "transferFrom",
      "outputs": [
        {
          "internalType": "bool",
          "name": "",
          "type": "bool"
        }
      ],
      "stateMutability": "nonpayable",
      "type": "function"
    }
  ],
  "bytecode": "0x60806040523480156200001157600080fd5b506040516200111638038062001116833981810160405260808110156200003757600080fd5b81019080805160405193929190846401000000008211156200005857600080fd5b9083019060208201858111156200006e57600080fd5b82516401000000008111828201881017156200008957600080fd5b82525081516020918201929091019080838360005b83811015620000b85781810151838201526020016200009e565b50505050905090810190601f168015620000e65780820380516001836020036101000a031916815260200191505b50604052602001805160405193929190846401000000008211156200010a57600080fd5b9083019060208201858111156200012057600080fd5b82516401000000008111828201881017156200013b57600080fd5b82525081516020918201929091019080838360005b838110156200016a57818101518382015260200162000150565b50505050905090810190601f168015620001985780820380516001836020036101000a031916815260200191505b50604081815260208301519201805192949193919284640100000000821115620001c157600080fd5b908301906020820185811115620001d757600080fd5b8251866020820283011164010000000082111715620001f557600080fd5b82525081516020918201928201910280838360005b83811015620002245781810151838201526020016200020a565b50505050905001604052505050838381600390805190602001906200024b929190620002d3565b50805162000261906004906020840190620002d3565b50506005805460ff1916601217905550805181906000906200027f57fe5b6020026020010151600681905550806001815181106200029b57fe5b602090810291909101015160075550600880546001600160a01b0319166001600160a01b0392909216919091179055506200037f9050565b828054600181600116156101000203166002900490600052602060002090601f0160209004810192826200030b576000855562000356565b82601f106200032657805160ff191683800117855562000356565b8280016001018555821562000356579182015b828111156200035657825182559160200191906001019062000339565b506200036492915062000368565b5090565b5b8082111562000364576000815560010162000369565b610d87806200038f6000396000f3fe608060405234801561001057600080fd5b506004361061010b5760003560e01c806339509351116100a2578063a457c2d711610071578063a457c2d7146102f1578063a9059cbb1461031d578063ba860d0e14610349578063dd62ed3e14610351578063f60ec92d1461037f5761010b565b8063395093511461028f5780634a0ef768146102bb57806370a08231146102c357806395d89b41146102e95761010b565b80631249c58b116100de5780631249c58b1461021757806318160ddd1461022157806323b872dd1461023b578063313ce567146102715761010b565b806306fdde03146101105780630902f1ac1461018d578063095ea7b3146101b35780630dfe1681146101f3575b600080fd5b610118610387565b6040805160208082528351818301528351919283929083019185019080838360005b8381101561015257818101518382015260200161013a565b50505050905090810190601f16801561017f5780820380516001836020036101000a031916815260200191505b509250505060405180910390f35b61019561041d565b60408051938452602084019290925282820152519081900360600190f35b6101df600480360360408110156101c957600080fd5b506001600160a01b038135169060200135610429565b604080519115158252519081900360200190f35b6101fb610447565b604080516001600160a01b039092168252519081900360200190f35b61021f610456565b005b610229610478565b60408051918252519081900360200190f35b6101df6004803603606081101561025157600080fd5b506001600160a01b0381358116916020810135909116906040013561047e565b610279610505565b6040805160ff9092168252519081900360200190f35b6101df600480360360408110156102a557600080fd5b506001600160a01b03813516906020013561050e565b61022961055c565b610229600480360360208110156102d957600080fd5b50356001600160a01b0316610563565b61011861057e565b6101df6004803603604081101561030757600080fd5b506001600160a01b0381351690602001356105df565b6101df6004803603604081101561033357600080fd5b506001600160a01b038135169060200135610647565b61021f61065b565b6102296004803603604081101561036757600080fd5b506001600160a01b0381358116916020013516610699565b61021f6106c4565b60038054604080516020601f60026000196101006001881615020190951694909404938401819004810282018101909252828152606093909290918301828280156104135780601f106103e857610100808354040283529160200191610413565b820191906000526020600020905b8154815290600101906020018083116103f657829003601f168201915b5050505050905090565b60065460075490914290565b600061043d6104366106f7565b84846106fb565b5060015b92915050565b6008546001600160a01b031690565b61047633610462610505565b60ff16600a0a61047061055c565b026107e7565b565b60025490565b600061048b8484846108d7565b6104fb846104976106f7565b6104f685604051806060016040528060288152602001610cbc602891396001600160a01b038a166000908152600160205260408120906104d56106f7565b6001600160a01b031681526020810191909152604001600020549190610a32565b6106fb565b5060019392505050565b60055460ff1690565b600061043d61051b6106f7565b846104f6856001600061052c6106f7565b6001600160a01b03908116825260208083019390935260409182016000908120918c168152925290205490610ac9565b620f424090565b6001600160a01b031660009081526020819052604090205490565b60048054604080516020601f60026000196101006001881615020190951694909404938401819004810282018101909252828152606093909290918301828280156104135780601f106103e857610100808354040283529160200191610413565b600061043d6105ec6106f7565b846104f685604051806060016040528060258152602001610d2d60259139600160006106166106f7565b6001600160a01b03908116825260208083019390935260409182016000908120918d16815292529020549190610a32565b600061043d6106546106f7565b84846108d7565b61067c6009610676600a600654610b2a90919063ffffffff16565b90610b83565b60065560075461069490600a90610676906009610b2a565b600755565b6001600160a01b03918216600090815260016020908152604080832093909416825291909152205490565b6106df600a6106766009600654610b2a90919063ffffffff16565b6006556007546106949060099061067690600a610b2a565b3390565b6001600160a01b0383166107405760405162461bcd60e51b8152600401808060200182810382526024815260200180610d096024913960400191505060405180910390fd5b6001600160a01b0382166107855760405162461bcd60e51b8152600401808060200182810382526022815260200180610c536022913960400191505060405180910390fd5b6001600160a01b03808416600081815260016020908152604080832094871680845294825291829020859055815185815291517f8c5be1e5ebec7d5bd14f71427d1e84f3dd0314c0f7b2291e5b200ac8c7c3b9259281900390910190a3505050565b6001600160a01b038216610842576040805162461bcd60e51b815260206004820152601f60248201527f45524332303a206d696e7420746f20746865207a65726f206164647265737300604482015290519081900360640190fd5b61084e60008383610bc5565b60025461085b9082610ac9565b6002556001600160a01b0382166000908152602081905260409020546108819082610ac9565b6001600160a01b0383166000818152602081815260408083209490945583518581529351929391927fddf252ad1be2c89b69c2b068fc378daa952ba7f163c4a11628f55a4df523b3ef9281900390910190a35050565b6001600160a01b03831661091c5760405162461bcd60e51b8152600401808060200182810382526025815260200180610ce46025913960400191505060405180910390fd5b6001600160a01b0382166109615760405162461bcd60e51b8152600401808060200182810382526023815260200180610c306023913960400191505060405180910390fd5b61096c838383610bc5565b6109a981604051806060016040528060268152602001610c75602691396001600160a01b0386166000908152602081905260409020549190610a32565b6001600160a01b0380851660009081526020819052604080822093909355908416815220546109d89082610ac9565b6001600160a01b038084166000818152602081815260409182902094909455805185815290519193928716927fddf252ad1be2c89b69c2b068fc378daa952ba7f163c4a11628f55a4df523b3ef92918290030190a3505050565b60008184841115610ac15760405162461bcd60e51b81526004018080602001828103825283818151815260200191508051906020019080838360005b83811015610a86578181015183820152602001610a6e565b50505050905090810190601f168015610ab35780820380516001836020036101000a031916815260200191505b509250505060405180910390fd5b505050900390565b600082820183811015610b23576040805162461bcd60e51b815260206004820152601b60248201527f536166654d6174683a206164646974696f6e206f766572666c6f770000000000604482015290519081900360640190fd5b9392505050565b600082610b3957506000610441565b82820282848281610b4657fe5b0414610b235760405162461bcd60e51b8152600401808060200182810382526021815260200180610c9b6021913960400191505060405180910390fd5b6000610b2383836040518060400160405280601a81526020017f536166654d6174683a206469766973696f6e206279207a65726f000000000000815250610bca565b505050565b60008183610c195760405162461bcd60e51b8152602060048201818152835160248401528351909283926044909101919085019080838360008315610a86578181015183820152602001610a6e565b506000838581610c2557fe5b049594505050505056fe45524332303a207472616e7366657220746f20746865207a65726f206164647265737345524332303a20617070726f766520746f20746865207a65726f206164647265737345524332303a207472616e7366657220616d6f756e7420657863656564732062616c616e6365536166654d6174683a206d756c7469706c69636174696f6e206f766572666c6f7745524332303a207472616e7366657220616d6f756e74206578636565647320616c6c6f77616e636545524332303a207472616e736665722066726f6d20746865207a65726f206164647265737345524332303a20617070726f76652066726f6d20746865207a65726f206164647265737345524332303a2064656372656173656420616c6c6f77616e63652062656c6f77207a65726fa264697066735822122049712bc1429ea82c76c5e33d6b998a0889cbc3857fc44725420edd2aea0c38a864736f6c63430007060033",
  "linkReferences": {},
  "deployedLinkReferences": {}
}