{
  "_format": "hh-sol-artifact-1",
  "contractName": "LendingPool",
  "sourceName": "contracts/protocol/lendingpool/LendingPool.sol",
  "abi": [
    {
      "anonymous": false,
      "inputs": [
        {
          "indexed": true,
          "internalType": "address",
          "name": "reserve",
          "type": "address"
        },
        {
          "indexed": false,
          "internalType": "address",
          "name": "user",
          "type": "address"
        },
        {
          "indexed": true,
          "internalType": "address",
          "name": "onBehalfOf",
          "type": "address"
        },
        {
          "indexed": false,
          "internalType": "uint256",
          "name": "amount",
          "type": "uint256"
        },
        {
          "indexed": false,
          "internalType": "uint256",
          "name": "borrowRateMode",
          "type": "uint256"
        },
        {
          "indexed": false,
          "internalType": "uint256",
          "name": "borrowRate",
          "type": "uint256"
        },
        {
          "indexed": true,
          "internalType": "uint16",
          "name": "referral",
          "type": "uint16"
        }
      ],
      "name": "Borrow",
      "type": "event"
    },
    {
      "anonymous": false,
      "inputs": [
        {
          "indexed": true,
          "internalType": "address",
          "name": "reserve",
          "type": "address"
        },
        {
          "indexed": false,
          "internalType": "address",
          "name": "user",
          "type": "address"
        },
        {
          "indexed": true,
          "internalType": "address",
          "name": "onBehalfOf",
          "type": "address"
        },
        {
          "indexed": false,
          "internalType": "uint256",
          "name": "amount",
          "type": "uint256"
        },
        {
          "indexed": true,
          "internalType": "uint16",
          "name": "referral",
          "type": "uint16"
        }
      ],
      "name": "Deposit",
      "type": "event"
    },
    {
      "anonymous": false,
      "inputs": [
        {
          "indexed": true,
          "internalType": "address",
          "name": "target",
          "type": "address"
        },
        {
          "indexed": true,
          "internalType": "address",
          "name": "initiator",
          "type": "address"
        },
        {
          "indexed": true,
          "internalType": "address",
          "name": "asset",
          "type": "address"
        },
        {
          "indexed": false,
          "internalType": "uint256",
          "name": "amount",
          "type": "uint256"
        },
        {
          "indexed": false,
          "internalType": "uint256",
          "name": "premium",
          "type": "uint256"
        },
        {
          "indexed": false,
          "internalType": "uint16",
          "name": "referralCode",
          "type": "uint16"
        }
      ],
      "name": "FlashLoan",
      "type": "event"
    },
    {
      "anonymous": false,
      "inputs": [
        {
          "indexed": true,
          "internalType": "address",
          "name": "collateralAsset",
          "type": "address"
        },
        {
          "indexed": true,
          "internalType": "address",
          "name": "debtAsset",
          "type": "address"
        },
        {
          "indexed": true,
          "internalType": "address",
          "name": "user",
          "type": "address"
        },
        {
          "indexed": false,
          "internalType": "uint256",
          "name": "debtToCover",
          "type": "uint256"
        },
        {
          "indexed": false,
          "internalType": "uint256",
          "name": "liquidatedCollateralAmount",
          "type": "uint256"
        },
        {
          "indexed": false,
          "internalType": "address",
          "name": "liquidator",
          "type": "address"
        },
        {
          "indexed": false,
          "internalType": "bool",
          "name": "receiveAToken",
          "type": "bool"
        }
      ],
      "name": "LiquidationCall",
      "type": "event"
    },
    {
      "anonymous": false,
      "inputs": [],
      "name": "Paused",
      "type": "event"
    },
    {
      "anonymous": false,
      "inputs": [
        {
          "indexed": true,
          "internalType": "address",
          "name": "reserve",
          "type": "address"
        },
        {
          "indexed": true,
          "internalType": "address",
          "name": "user",
          "type": "address"
        }
      ],
      "name": "RebalanceStableBorrowRate",
      "type": "event"
    },
    {
      "anonymous": false,
      "inputs": [
        {
          "indexed": true,
          "internalType": "address",
          "name": "reserve",
          "type": "address"
        },
        {
          "indexed": true,
          "internalType": "address",
          "name": "user",
          "type": "address"
        },
        {
          "indexed": true,
          "internalType": "address",
          "name": "repayer",
          "type": "address"
        },
        {
          "indexed": false,
          "internalType": "uint256",
          "name": "amount",
          "type": "uint256"
        }
      ],
      "name": "Repay",
      "type": "event"
    },
    {
      "anonymous": false,
      "inputs": [
        {
          "indexed": true,
          "internalType": "address",
          "name": "reserve",
          "type": "address"
        },
        {
          "indexed": false,
          "internalType": "uint256",
          "name": "liquidityRate",
          "type": "uint256"
        },
        {
          "indexed": false,
          "internalType": "uint256",
          "name": "stableBorrowRate",
          "type": "uint256"
        },
        {
          "indexed": false,
          "internalType": "uint256",
          "name": "variableBorrowRate",
          "type": "uint256"
        },
        {
          "indexed": false,
          "internalType": "uint256",
          "name": "liquidityIndex",
          "type": "uint256"
        },
        {
          "indexed": false,
          "internalType": "uint256",
          "name": "variableBorrowIndex",
          "type": "uint256"
        }
      ],
      "name": "ReserveDataUpdated",
      "type": "event"
    },
    {
      "anonymous": false,
      "inputs": [
        {
          "indexed": true,
          "internalType": "address",
          "name": "reserve",
          "type": "address"
        },
        {
          "indexed": true,
          "internalType": "address",
          "name": "user",
          "type": "address"
        }
      ],
      "name": "ReserveUsedAsCollateralDisabled",
      "type": "event"
    },
    {
      "anonymous": false,
      "inputs": [
        {
          "indexed": true,
          "internalType": "address",
          "name": "reserve",
          "type": "address"
        },
        {
          "indexed": true,
          "internalType": "address",
          "name": "user",
          "type": "address"
        }
      ],
      "name": "ReserveUsedAsCollateralEnabled",
      "type": "event"
    },
    {
      "anonymous": false,
      "inputs": [
        {
          "indexed": true,
          "internalType": "address",
          "name": "reserve",
          "type": "address"
        },
        {
          "indexed": true,
          "internalType": "address",
          "name": "user",
          "type": "address"
        },
        {
          "indexed": false,
          "internalType": "uint256",
          "name": "rateMode",
          "type": "uint256"
        }
      ],
      "name": "Swap",
      "type": "event"
    },
    {
      "anonymous": false,
      "inputs": [],
      "name": "Unpaused",
      "type": "event"
    },
    {
      "anonymous": false,
      "inputs": [
        {
          "indexed": true,
          "internalType": "address",
          "name": "reserve",
          "type": "address"
        },
        {
          "indexed": true,
          "internalType": "address",
          "name": "user",
          "type": "address"
        },
        {
          "indexed": true,
          "internalType": "address",
          "name": "to",
          "type": "address"
        },
        {
          "indexed": false,
          "internalType": "uint256",
          "name": "amount",
          "type": "uint256"
        }
      ],
      "name": "Withdraw",
      "type": "event"
    },
    {
      "inputs": [],
      "name": "FLASHLOAN_PREMIUM_TOTAL",
      "outputs": [
        {
          "internalType": "uint256",
          "name": "",
          "type": "uint256"
        }
      ],
      "stateMutability": "view",
      "type": "function"
    },
    {
      "inputs": [],
      "name": "LENDINGPOOL_REVISION",
      "outputs": [
        {
          "internalType": "uint256",
          "name": "",
          "type": "uint256"
        }
      ],
      "stateMutability": "view",
      "type": "function"
    },
    {
      "inputs": [],
      "name": "MAX_NUMBER_RESERVES",
      "outputs": [
        {
          "internalType": "uint256",
          "name": "",
          "type": "uint256"
        }
      ],
      "stateMutability": "view",
      "type": "function"
    },
    {
      "inputs": [],
      "name": "MAX_STABLE_RATE_BORROW_SIZE_PERCENT",
      "outputs": [
        {
          "internalType": "uint256",
          "name": "",
          "type": "uint256"
        }
      ],
      "stateMutability": "view",
      "type": "function"
    },
    {
      "inputs": [
        {
          "internalType": "address",
          "name": "asset",
          "type": "address"
        },
        {
          "internalType": "uint256",
          "name": "amount",
          "type": "uint256"
        },
        {
          "internalType": "uint256",
          "name": "interestRateMode",
          "type": "uint256"
        },
        {
          "internalType": "uint16",
          "name": "referralCode",
          "type": "uint16"
        },
        {
          "internalType": "address",
          "name": "onBehalfOf",
          "type": "address"
        }
      ],
      "name": "borrow",
      "outputs": [],
      "stateMutability": "nonpayable",
      "type": "function"
    },
    {
      "inputs": [
        {
          "internalType": "address",
          "name": "asset",
          "type": "address"
        },
        {
          "internalType": "uint256",
          "name": "amount",
          "type": "uint256"
        },
        {
          "internalType": "address",
          "name": "onBehalfOf",
          "type": "address"
        },
        {
          "internalType": "uint16",
          "name": "referralCode",
          "type": "uint16"
        }
      ],
      "name": "deposit",
      "outputs": [],
      "stateMutability": "nonpayable",
      "type": "function"
    },
    {
      "inputs": [
        {
          "internalType": "address",
          "name": "asset",
          "type": "address"
        },
        {
          "internalType": "uint256",
          "name": "amount",
          "type": "uint256"
        },
        {
          "internalType": "address",
          "name": "onBehalfOf",
          "type": "address"
        },
        {
          "internalType": "uint16",
          "name": "referralCode",
          "type": "uint16"
        }
      ],
      "name": "depositWithAutoDLP",
      "outputs": [],
      "stateMutability": "nonpayable",
      "type": "function"
    },
    {
      "inputs": [
        {
          "internalType": "address",
          "name": "asset",
          "type": "address"
        },
        {
          "internalType": "address",
          "name": "from",
          "type": "address"
        },
        {
          "internalType": "address",
          "name": "to",
          "type": "address"
        },
        {
          "internalType": "uint256",
          "name": "amount",
          "type": "uint256"
        },
        {
          "internalType": "uint256",
          "name": "balanceFromBefore",
          "type": "uint256"
        },
        {
          "internalType": "uint256",
          "name": "balanceToBefore",
          "type": "uint256"
        }
      ],
      "name": "finalizeTransfer",
      "outputs": [],
      "stateMutability": "nonpayable",
      "type": "function"
    },
    {
      "inputs": [
        {
          "internalType": "address",
          "name": "receiverAddress",
          "type": "address"
        },
        {
          "internalType": "address[]",
          "name": "assets",
          "type": "address[]"
        },
        {
          "internalType": "uint256[]",
          "name": "amounts",
          "type": "uint256[]"
        },
        {
          "internalType": "uint256[]",
          "name": "modes",
          "type": "uint256[]"
        },
        {
          "internalType": "address",
          "name": "onBehalfOf",
          "type": "address"
        },
        {
          "internalType": "bytes",
          "name": "params",
          "type": "bytes"
        },
        {
          "internalType": "uint16",
          "name": "referralCode",
          "type": "uint16"
        }
      ],
      "name": "flashLoan",
      "outputs": [],
      "stateMutability": "nonpayable",
      "type": "function"
    },
    {
      "inputs": [],
      "name": "getAddressesProvider",
      "outputs": [
        {
          "internalType": "contract ILendingPoolAddressesProvider",
          "name": "",
          "type": "address"
        }
      ],
      "stateMutability": "view",
      "type": "function"
    },
    {
      "inputs": [
        {
          "internalType": "address",
          "name": "asset",
          "type": "address"
        }
      ],
      "name": "getConfiguration",
      "outputs": [
        {
          "components": [
            {
              "internalType": "uint256",
              "name": "data",
              "type": "uint256"
            }
          ],
          "internalType": "struct DataTypes.ReserveConfigurationMap",
          "name": "",
          "type": "tuple"
        }
      ],
      "stateMutability": "view",
      "type": "function"
    },
    {
      "inputs": [
        {
          "internalType": "address",
          "name": "asset",
          "type": "address"
        }
      ],
      "name": "getReserveData",
      "outputs": [
        {
          "components": [
            {
              "components": [
                {
                  "internalType": "uint256",
                  "name": "data",
                  "type": "uint256"
                }
              ],
              "internalType": "struct DataTypes.ReserveConfigurationMap",
              "name": "configuration",
              "type": "tuple"
            },
            {
              "internalType": "uint128",
              "name": "liquidityIndex",
              "type": "uint128"
            },
            {
              "internalType": "uint128",
              "name": "variableBorrowIndex",
              "type": "uint128"
            },
            {
              "internalType": "uint128",
              "name": "currentLiquidityRate",
              "type": "uint128"
            },
            {
              "internalType": "uint128",
              "name": "currentVariableBorrowRate",
              "type": "uint128"
            },
            {
              "internalType": "uint128",
              "name": "currentStableBorrowRate",
              "type": "uint128"
            },
            {
              "internalType": "uint40",
              "name": "lastUpdateTimestamp",
              "type": "uint40"
            },
            {
              "internalType": "address",
              "name": "aTokenAddress",
              "type": "address"
            },
            {
              "internalType": "address",
              "name": "stableDebtTokenAddress",
              "type": "address"
            },
            {
              "internalType": "address",
              "name": "variableDebtTokenAddress",
              "type": "address"
            },
            {
              "internalType": "address",
              "name": "interestRateStrategyAddress",
              "type": "address"
            },
            {
              "internalType": "uint8",
              "name": "id",
              "type": "uint8"
            }
          ],
          "internalType": "struct DataTypes.ReserveData",
          "name": "",
          "type": "tuple"
        }
      ],
      "stateMutability": "view",
      "type": "function"
    },
    {
      "inputs": [
        {
          "internalType": "address",
          "name": "asset",
          "type": "address"
        }
      ],
      "name": "getReserveNormalizedIncome",
      "outputs": [
        {
          "internalType": "uint256",
          "name": "",
          "type": "uint256"
        }
      ],
      "stateMutability": "view",
      "type": "function"
    },
    {
      "inputs": [
        {
          "internalType": "address",
          "name": "asset",
          "type": "address"
        }
      ],
      "name": "getReserveNormalizedVariableDebt",
      "outputs": [
        {
          "internalType": "uint256",
          "name": "",
          "type": "uint256"
        }
      ],
      "stateMutability": "view",
      "type": "function"
    },
    {
      "inputs": [],
      "name": "getReservesList",
      "outputs": [
        {
          "internalType": "address[]",
          "name": "",
          "type": "address[]"
        }
      ],
      "stateMutability": "view",
      "type": "function"
    },
    {
      "inputs": [
        {
          "internalType": "address",
          "name": "user",
          "type": "address"
        }
      ],
      "name": "getUserAccountData",
      "outputs": [
        {
          "internalType": "uint256",
          "name": "totalCollateralETH",
          "type": "uint256"
        },
        {
          "internalType": "uint256",
          "name": "totalDebtETH",
          "type": "uint256"
        },
        {
          "internalType": "uint256",
          "name": "availableBorrowsETH",
          "type": "uint256"
        },
        {
          "internalType": "uint256",
          "name": "currentLiquidationThreshold",
          "type": "uint256"
        },
        {
          "internalType": "uint256",
          "name": "ltv",
          "type": "uint256"
        },
        {
          "internalType": "uint256",
          "name": "healthFactor",
          "type": "uint256"
        }
      ],
      "stateMutability": "view",
      "type": "function"
    },
    {
      "inputs": [
        {
          "internalType": "address",
          "name": "user",
          "type": "address"
        }
      ],
      "name": "getUserConfiguration",
      "outputs": [
        {
          "components": [
            {
              "internalType": "uint256",
              "name": "data",
              "type": "uint256"
            }
          ],
          "internalType": "struct DataTypes.UserConfigurationMap",
          "name": "",
          "type": "tuple"
        }
      ],
      "stateMutability": "view",
      "type": "function"
    },
    {
      "inputs": [
        {
          "internalType": "address",
          "name": "asset",
          "type": "address"
        },
        {
          "internalType": "address",
          "name": "aTokenAddress",
          "type": "address"
        },
        {
          "internalType": "address",
          "name": "stableDebtAddress",
          "type": "address"
        },
        {
          "internalType": "address",
          "name": "variableDebtAddress",
          "type": "address"
        },
        {
          "internalType": "address",
          "name": "interestRateStrategyAddress",
          "type": "address"
        }
      ],
      "name": "initReserve",
      "outputs": [],
      "stateMutability": "nonpayable",
      "type": "function"
    },
    {
      "inputs": [
        {
          "internalType": "contract ILendingPoolAddressesProvider",
          "name": "provider",
          "type": "address"
        }
      ],
      "name": "initialize",
      "outputs": [],
      "stateMutability": "nonpayable",
      "type": "function"
    },
    {
      "inputs": [],
      "name": "leverager",
      "outputs": [
        {
          "internalType": "contract ILeverager",
          "name": "",
          "type": "address"
        }
      ],
      "stateMutability": "view",
      "type": "function"
    },
    {
      "inputs": [
        {
          "internalType": "address",
          "name": "collateralAsset",
          "type": "address"
        },
        {
          "internalType": "address",
          "name": "debtAsset",
          "type": "address"
        },
        {
          "internalType": "address",
          "name": "user",
          "type": "address"
        },
        {
          "internalType": "uint256",
          "name": "debtToCover",
          "type": "uint256"
        },
        {
          "internalType": "bool",
          "name": "receiveAToken",
          "type": "bool"
        }
      ],
      "name": "liquidationCall",
      "outputs": [],
      "stateMutability": "nonpayable",
      "type": "function"
    },
    {
      "inputs": [],
      "name": "paused",
      "outputs": [
        {
          "internalType": "bool",
          "name": "",
          "type": "bool"
        }
      ],
      "stateMutability": "view",
      "type": "function"
    },
    {
      "inputs": [
        {
          "internalType": "address",
          "name": "asset",
          "type": "address"
        },
        {
          "internalType": "address",
          "name": "user",
          "type": "address"
        }
      ],
      "name": "rebalanceStableBorrowRate",
      "outputs": [],
      "stateMutability": "nonpayable",
      "type": "function"
    },
    {
      "inputs": [
        {
          "internalType": "address",
          "name": "asset",
          "type": "address"
        },
        {
          "internalType": "uint256",
          "name": "amount",
          "type": "uint256"
        },
        {
          "internalType": "uint256",
          "name": "rateMode",
          "type": "uint256"
        },
        {
          "internalType": "address",
          "name": "onBehalfOf",
          "type": "address"
        }
      ],
      "name": "repay",
      "outputs": [
        {
          "internalType": "uint256",
          "name": "",
          "type": "uint256"
        }
      ],
      "stateMutability": "nonpayable",
      "type": "function"
    },
    {
      "inputs": [
        {
          "internalType": "address",
          "name": "asset",
          "type": "address"
        },
        {
          "internalType": "uint256",
          "name": "configuration",
          "type": "uint256"
        }
      ],
      "name": "setConfiguration",
      "outputs": [],
      "stateMutability": "nonpayable",
      "type": "function"
    },
    {
      "inputs": [
        {
          "internalType": "contract ILeverager",
          "name": "_leverager",
          "type": "address"
        }
      ],
      "name": "setLeverager",
      "outputs": [],
      "stateMutability": "nonpayable",
      "type": "function"
    },
    {
      "inputs": [
        {
          "internalType": "bool",
          "name": "val",
          "type": "bool"
        }
      ],
      "name": "setPause",
      "outputs": [],
      "stateMutability": "nonpayable",
      "type": "function"
    },
    {
      "inputs": [
        {
          "internalType": "address",
          "name": "asset",
          "type": "address"
        },
        {
          "internalType": "address",
          "name": "rateStrategyAddress",
          "type": "address"
        }
      ],
      "name": "setReserveInterestRateStrategyAddress",
      "outputs": [],
      "stateMutability": "nonpayable",
      "type": "function"
    },
    {
      "inputs": [
        {
          "internalType": "address",
          "name": "asset",
          "type": "address"
        },
        {
          "internalType": "bool",
          "name": "useAsCollateral",
          "type": "bool"
        }
      ],
      "name": "setUserUseReserveAsCollateral",
      "outputs": [],
      "stateMutability": "nonpayable",
      "type": "function"
    },
    {
      "inputs": [
        {
          "internalType": "address",
          "name": "asset",
          "type": "address"
        },
        {
          "internalType": "uint256",
          "name": "rateMode",
          "type": "uint256"
        }
      ],
      "name": "swapBorrowRateMode",
      "outputs": [],
      "stateMutability": "nonpayable",
      "type": "function"
    },
    {
      "inputs": [
        {
          "internalType": "address",
          "name": "asset",
          "type": "address"
        },
        {
          "internalType": "uint256",
          "name": "amount",
          "type": "uint256"
        },
        {
          "internalType": "address",
          "name": "to",
          "type": "address"
        }
      ],
      "name": "withdraw",
      "outputs": [
        {
          "internalType": "uint256",
          "name": "",
          "type": "uint256"
        }
      ],
      "stateMutability": "nonpayable",
      "type": "function"
    }
  ],
  "bytecode": "0x60806040526000805534801561001457600080fd5b50615b7080620000256000396000f3fe608060405234801561001057600080fd5b50600436106101745760003560e01c8062a718a914610179578063074b2e431461018e5780631d2118f9146101ac57806335ea6a75146101bf578063386497fd146101df5780634417a583146101f2578063573ade81146102125780635a3b74b9146102255780635c975abb1461023857806369328dec1461024d5780637a708e92146102605780638afaff021461027357806394ba89a21461027b578063a415bcad1461028e578063ab9c4b5d146102a1578063ae507f9c146102b4578063b8d29276146102c7578063bedb86fb146102da578063bf92857c146102ed578063c44b11f714610312578063c4d66de814610325578063cd11238214610338578063d15e00531461034b578063d1946dbc1461035e578063d5ed393314610373578063db3e346114610386578063e82fec2f1461039b578063e8eda9df146103a3578063f187186c146103b6578063f8119d51146103c9578063fe65acfe146103d1575b600080fd5b61018c610187366004614fd9565b6103d9565b005b61019661064c565b6040516101a391906159d0565b60405180910390f35b61018c6101ba366004614f31565b610652565b6101d26101cd366004614ef9565b61068b565b6040516101a391906157ea565b6101966101ed366004614ef9565b61076d565b610205610200366004614ef9565b610794565b6040516101a391906157e0565b610196610220366004615273565b6107c7565b61018c61023336600461518a565b610af3565b610240610c95565b6040516101a39190615773565b61019661025b3660046151e2565b610c9e565b61018c61026e366004614f69565b610fb6565b610196611098565b61018c6102893660046151b7565b61109d565b61018c61029c3660046152bc565b61140a565b61018c6102af366004615096565b61148a565b61018c6102c2366004615223565b611b5c565b61018c6102d53660046151b7565b611c7d565b61018c6102e83660046152fa565b611ca1565b6103006102fb366004614ef9565b611d1c565b6040516101a396959493929190615a0a565b610205610320366004614ef9565b611e18565b61018c610333366004614ef9565b611e4b565b61018c610346366004614f31565b611f12565b610196610359366004614ef9565b612188565b6103666121a9565b6040516101a39190615726565b61018c610381366004615032565b61224e565b61038e612474565b6040516101a391906154ac565b610196612483565b61018c6103b1366004615223565b612489565b61018c6103c4366004614ef9565b612718565b610196612763565b61038e612769565b6103e1612778565b6034546040805163712d917160e01b815290516000926001600160a01b03169163712d9171916004808301926020929190829003018186803b15801561042657600080fd5b505afa15801561043a573d6000803e3d6000fd5b505050506040513d601f19601f8201168201806040525081019061045e9190614f15565b90506000603460009054906101000a90046001600160a01b03166001600160a01b0316635afaf0186040518163ffffffff1660e01b815260040160206040518083038186803b1580156104b057600080fd5b505afa1580156104c4573d6000803e3d6000fd5b505050506040513d601f19601f820116820180604052508101906104e89190614f15565b90506001600160a01b0381166104fb5750335b600080836001600160a01b031689898989898860405160240161052396959493929190615534565b60408051601f198184030181529181526020820180516001600160e01b0316633c42879760e01b179052516105589190615490565b600060405180830381855af49150503d8060008114610593576040519150601f19603f3d011682016040523d82523d6000602084013e610598565b606091505b50915091508160405180604001604052806002815260200161323360f01b815250906105e05760405162461bcd60e51b81526004016105d7919061577e565b60405180910390fd5b50600080828060200190518101906105f8919061534a565b9150915081600014816040516020016106119190615490565b6040516020818303038152906040529061063e5760405162461bcd60e51b81526004016105d7919061577e565b505050505050505050505050565b603b5490565b61065a6127b6565b6001600160a01b03918216600090815260356020526040902060070180546001600160a01b03191691909216179055565b610693614c49565b506001600160a01b0381811660009081526035602090815260409182902082516101a08101845281546101808201908152815260018201546001600160801b0380821694830194909452600160801b908190048416948201949094526002820154808416606083015284900483166080820152600382015492831660a08201529290910464ffffffffff1660c08301526004810154831660e0830152600581015483166101008301526006810154831661012083015260070154918216610140820152600160a01b90910460ff166101608201525b919050565b6001600160a01b038116600090815260356020526040812061078e90612875565b92915050565b61079c614cb4565b506001600160a01b031660009081526036602090815260409182902082519182019092529054815290565b60006107d1612778565b6001600160a01b038516600090815260356020526040812090806107f585846128f2565b91509150600086600281111561080757fe5b60405163fa0c214960e01b815290915073__$de8c0cf1a7d7c36c802af9a64fb9d86036$__9063fa0c21499061084b9087908c9086908c908a908a9060040161598f565b60006040518083038186803b15801561086357600080fd5b505af4158015610877573d6000803e3d6000fd5b5060009250600191506108879050565b82600281111561089357fe5b1461089e57826108a0565b835b9050808910156108ad5750875b6108b6856129f7565b60018260028111156108c457fe5b1415610935576005850154604051632770a7eb60e21b81526001600160a01b0390911690639dc29fac906108fe908a9085906004016154f1565b600060405180830381600087803b15801561091857600080fd5b505af115801561092c573d6000803e3d6000fd5b505050506109b3565b60068501546001860154604051637a94c56560e11b81526001600160a01b039092169163f5298aca91610980918b918691600160801b9091046001600160801b03169060040161550a565b600060405180830381600087803b15801561099a57600080fd5b505af11580156109ae573d6000803e3d6000fd5b505050505b60048501546001600160a01b03166109cf868c83856000612ab8565b6109e3826109dd8787612f28565b90612f80565b610a1b5760078601546001600160a01b0389166000908152603660205260408120610a1b929091600160a01b90910460ff1690612fc2565b610a306001600160a01b038c16338385613060565b6040516388dd91a160e01b81526001600160a01b038216906388dd91a190610a5e90339086906004016154f1565b600060405180830381600087803b158015610a7857600080fd5b505af1158015610a8c573d6000803e3d6000fd5b50505050336001600160a01b0316886001600160a01b03168c6001600160a01b03167f4cdde6e09bb755c9a5589ebaec640bbfedff1362d4b255ebf8339782b9942faa85604051610add91906159d0565b60405180910390a4509998505050505050505050565b610afb612778565b6001600160a01b03808316600090815260356020818152604080842033855260368352938190206038546034548351631f94a27560e31b81529351969773__$de8c0cf1a7d7c36c802af9a64fb9d86036$__97635fa297e5978a978d978d9792969295603795939493169263fca513a892600480840193919291829003018186803b158015610b8957600080fd5b505afa158015610b9d573d6000803e3d6000fd5b505050506040513d601f19601f82011682018060405250810190610bc19190614f15565b6040518963ffffffff1660e01b8152600401610be498979695949392919061590b565b60006040518083038186803b158015610bfc57600080fd5b505af4158015610c10573d6000803e3d6000fd5b505050506007810154336000908152603660205260409020610c3c91600160a01b900460ff16846130c0565b8115610c6b5760405133906001600160a01b03851690600080516020615af183398151915290600090a3610c90565b60405133906001600160a01b03851690600080516020615a8283398151915290600090a35b505050565b60395460ff1690565b6000610ca8612778565b6001600160a01b0380851660009081526035602052604080822060048082015492516370a0823160e01b8152919492909216929183916370a0823191610cf0913391016154ac565b60206040518083038186803b158015610d0857600080fd5b505afa158015610d1c573d6000803e3d6000fd5b505050506040513d601f19601f82011682018060405250810190610d409190615332565b905085600019811415610d505750805b73__$de8c0cf1a7d7c36c802af9a64fb9d86036$__63d09db04a898385603560366000336001600160a01b03166001600160a01b031681526020019081526020016000206037603854603460009054906101000a90046001600160a01b03166001600160a01b031663fca513a86040518163ffffffff1660e01b815260040160206040518083038186803b158015610de757600080fd5b505afa158015610dfb573d6000803e3d6000fd5b505050506040513d601f19601f82011682018060405250810190610e1f9190614f15565b6040518963ffffffff1660e01b8152600401610e429897969594939291906155fb565b60006040518083038186803b158015610e5a57600080fd5b505af4158015610e6e573d6000803e3d6000fd5b50505050610e7b846129f7565b610e89848985600085612ab8565b81811415610ee1576007840154336000908152603660205260408120610ebc929091600160a01b90910460ff16906130c0565b60405133906001600160a01b038a1690600080516020615a8283398151915290600090a35b6001840154604051636b81068560e11b81526001600160a01b0385169163d7020d0a91610f229133918b9187916001600160801b03909116906004016154c0565b600060405180830381600087803b158015610f3c57600080fd5b505af1158015610f50573d6000803e3d6000fd5b50505050856001600160a01b0316336001600160a01b0316896001600160a01b03167f3115d1449a7b732c986cba18244e897a450f61e1bb8d589cd2e69e6c8924f9f784604051610fa191906159d0565b60405180910390a493505050505b9392505050565b610fbe6127b6565b610fc785613164565b6040518060400160405280600281526020016106e760f31b815250906110005760405162461bcd60e51b81526004016105d7919061577e565b506001600160a01b038516600090815260356020526040908190209051630acce25f60e21b815273__$22cd43a9dda9ce44e9b92ba393b88fb9ac$__91632b33897c91611058919088908890889088906004016158dd565b60006040518083038186803b15801561107057600080fd5b505af4158015611084573d6000803e3d6000fd5b505050506110918561319d565b5050505050565b600281565b6110a5612778565b6001600160a01b038216600090815260356020526040812090806110c933846128f2565b9150915060008460028111156110db57fe5b3360009081526036602052604090819020905163a8695b1d60e01b815291925073__$de8c0cf1a7d7c36c802af9a64fb9d86036$__9163a8695b1d9161112c9188919088908890889060040161594d565b60006040518083038186803b15801561114457600080fd5b505af4158015611158573d6000803e3d6000fd5b50505050611165846129f7565b600181600281111561117357fe5b1415611283576005840154604051632770a7eb60e21b81526001600160a01b0390911690639dc29fac906111ad90339087906004016154f1565b600060405180830381600087803b1580156111c757600080fd5b505af11580156111db573d6000803e3d6000fd5b505050506006840154600185015460405163b3f1c93d60e01b81526001600160a01b039092169163b3f1c93d9161122b91339182918991600160801b90046001600160801b0316906004016154c0565b602060405180830381600087803b15801561124557600080fd5b505af1158015611259573d6000803e3d6000fd5b505050506040513d601f19601f8201168201806040525081019061127d9190615316565b50611399565b60068401546001850154604051637a94c56560e11b81526001600160a01b039092169163f5298aca916112ce9133918791600160801b9091046001600160801b03169060040161550a565b600060405180830381600087803b1580156112e857600080fd5b505af11580156112fc573d6000803e3d6000fd5b505050506005840154600385015460405163b3f1c93d60e01b81526001600160a01b039092169163b3f1c93d91611345913391829188916001600160801b0316906004016154c0565b602060405180830381600087803b15801561135f57600080fd5b505af1158015611373573d6000803e3d6000fd5b505050506040513d601f19601f820116820180604052508101906113979190615316565b505b60048401546113b790859088906001600160a01b0316600080612ab8565b336001600160a01b0316866001600160a01b03167fea368a40e9570069bb8e6511d668293ad2e1f03b0d982431fd223de9f3b70ca6876040516113fa91906159d0565b60405180910390a3505050505050565b611412612778565b6001600160a01b038086166000818152603560209081526040918290208251610100810184529384523391840191909152848416918301919091526060820187905260808201869052600481015490921660a082015261ffff841660c0820152600160e0820152611482906132a6565b505050505050565b611492612778565b61149a614cc7565b6115078b8b8080602002602001604051908101604052809392919081815260200183836020028082843760009201919091525050604080516020808f0282810182019093528e82529093508e92508d9182918501908490808284376000920191909152506137b092505050565b60008a6001600160401b038111801561151f57600080fd5b50604051908082528060200260200182016040528015611549578160200160208202803683370190505b50905060008b6001600160401b038111801561156457600080fd5b5060405190808252806020026020018201604052801561158e578160200160208202803683370190505b506001600160a01b038f1684526000604085015290505b60408301518c111561175257603560008e8e86604001518181106115c557fe5b90506020020160208101906115da9190614ef9565b6001600160a01b03166001600160a01b0316815260200190815260200160002060040160009054906101000a90046001600160a01b03168284604001518151811061162157fe5b60200260200101906001600160a01b031690816001600160a01b031681525050611678612710611672603b548e8e886040015181811061165d57fe5b905060200201356137ee90919063ffffffff16565b90613847565b8184604001518151811061168857fe5b602002602001018181525050818360400151815181106116a457fe5b60200260200101516001600160a01b0316634efecaa58f8d8d87604001518181106116cb57fe5b905060200201356040518363ffffffff1660e01b81526004016116ef9291906154f1565b602060405180830381600087803b15801561170957600080fd5b505af115801561171d573d6000803e3d6000fd5b505050506040513d601f19601f820116820180604052508101906117419190615332565b5060408301805160010190526115a5565b82600001516001600160a01b031663920f5c848e8e8e8e86338d8d6040518963ffffffff1660e01b8152600401611790989796959493929190615667565b602060405180830381600087803b1580156117aa57600080fd5b505af11580156117be573d6000803e3d6000fd5b505050506040513d601f19601f820116820180604052508101906117e29190615316565b604051806040016040528060028152602001611b1b60f11b8152509061181b5760405162461bcd60e51b81526004016105d7919061577e565b50600060408401525b60408301518c1115611b4c578c8c846040015181811061184057fe5b90506020020160208101906118559190614ef9565b6001600160a01b0316606084015260408301518b908b9081811061187557fe5b905060200201358360a00181815250508083604001518151811061189557fe5b60200260200101518360c0018181525050818360400151815181106118b657fe5b60209081029190910101516001600160a01b0316608084015260c083015160a08401516118e291612f28565b60e08401526000898985604001518181106118f957fe5b90506020020135600281111561190b57fe5b600281111561191657fe5b1415611a485760608301516001600160a01b03166000908152603560205260409020611941906129f7565b6119e183608001516001600160a01b03166318160ddd6040518163ffffffff1660e01b815260040160206040518083038186803b15801561198157600080fd5b505afa158015611995573d6000803e3d6000fd5b505050506040513d601f19601f820116820180604052508101906119b99190615332565b60c085015160608601516001600160a01b031660009081526035602052604090209190613886565b6060830151608084015160e08501516001600160a01b0383166000908152603560205260408120611a1794909390929091612ab8565b611a438e84608001518560e0015186606001516001600160a01b0316613060909392919063ffffffff16565b611ad7565b611ad760405180610100016040528085606001516001600160a01b03168152602001336001600160a01b03168152602001896001600160a01b031681526020018560a0015181526020018b8b8760400151818110611aa257fe5b90506020020135815260200185608001516001600160a01b031681526020018661ffff168152602001600015158152506132a6565b82606001516001600160a01b0316336001600160a01b03168f6001600160a01b03167f631042c832b07452973831137f2d73e395028b44b250dedc5abb0ee766e168ac8660a001518760c0015189604051611b34939291906159f0565b60405180910390a46040830180516001019052611824565b5050505050505050505050505050565b611b64612778565b326001600160a01b03831614611b7957600080fd5b611b8584848484612489565b603d546040516303bf24e560e01b81526001600160a01b039091169063ec67ff739082906303bf24e590611bbd9087906004016154ac565b60206040518083038186803b158015611bd557600080fd5b505afa158015611be9573d6000803e3d6000fd5b505050506040513d601f19601f82011682018060405250810190611c0d9190615332565b846040518363ffffffff1660e01b8152600401611c2b9291906159d9565b602060405180830381600087803b158015611c4557600080fd5b505af1158015611c59573d6000803e3d6000fd5b505050506040513d601f19601f820116820180604052508101906110919190615332565b611c856127b6565b6001600160a01b03909116600090815260356020526040902055565b611ca96127b6565b6039805460ff1916821515179081905560ff1615611cef576040517f9e87fac88ff661f02d44f95383c817fece4bce600a3dab7a54406878b965e75290600090a1611d19565b6040517fa45f47fdea8a1efdd9029a5691c7f759c32b7c698632b563573e155625d1693390600090a15b50565b600080600080600080611df5876035603660008b6001600160a01b03166001600160a01b031681526020019081526020016000206040518060200160405290816000820154815250506037603854603460009054906101000a90046001600160a01b03166001600160a01b031663fca513a86040518163ffffffff1660e01b815260040160206040518083038186803b158015611db857600080fd5b505afa158015611dcc573d6000803e3d6000fd5b505050506040513d601f19601f82011682018060405250810190611df09190614f15565b613971565b93995091975090945092509050611e0d868684613e32565b935091939550919395565b611e20614cb4565b506001600160a01b031660009081526035602090815260409182902082519182019092529054815290565b6000611e55613e66565b60015490915060ff1680611e6c5750611e6c613e6b565b80611e78575060005481115b611eb35760405162461bcd60e51b815260040180806020018281038252602e815260200180615ac3602e913960400191505060405180910390fd5b60015460ff16158015611ed2576001805460ff19168117905560008290555b603480546001600160a01b0319166001600160a01b0385161790556109c4603a556009603b556080603c558015610c90576001805460ff19169055505050565b611f1a612778565b6001600160a01b038083166000908152603560205260408082206005810154600682015460048084015494516370a0823160e01b81529396928316959183169490921692909185916370a0823191611f74918a91016154ac565b60206040518083038186803b158015611f8c57600080fd5b505afa158015611fa0573d6000803e3d6000fd5b505050506040513d601f19601f82011682018060405250810190611fc49190615332565b60405163548cad0960e01b815290915073__$de8c0cf1a7d7c36c802af9a64fb9d86036$__9063548cad09906120069088908b908990899089906004016158dd565b60006040518083038186803b15801561201e57600080fd5b505af4158015612032573d6000803e3d6000fd5b5050505061203f856129f7565b604051632770a7eb60e21b81526001600160a01b03851690639dc29fac9061206d90899085906004016154f1565b600060405180830381600087803b15801561208757600080fd5b505af115801561209b573d6000803e3d6000fd5b505050600386015460405163b3f1c93d60e01b81526001600160a01b038716925063b3f1c93d916120de918a91829187916001600160801b0316906004016154c0565b602060405180830381600087803b1580156120f857600080fd5b505af115801561210c573d6000803e3d6000fd5b505050506040513d601f19601f820116820180604052508101906121309190615316565b5061213f858884600080612ab8565b856001600160a01b0316876001600160a01b03167f9f439ae0c81e41a04d3fdfe07aed54e6a179fb0db15be7702eb66fa8ef6f530060405160405180910390a350505050505050565b6001600160a01b038116600090815260356020526040812061078e90613e71565b606060006038546001600160401b03811180156121c557600080fd5b506040519080825280602002602001820160405280156121ef578160200160208202803683370190505b50905060005b6038548110156122485760008181526037602052604090205482516001600160a01b039091169083908390811061222857fe5b6001600160a01b03909216602092830291909101909101526001016121f5565b50905090565b612256612778565b6001600160a01b038681166000908152603560209081526040918290206004015482518084019093526002835261363360f01b9183019190915290911633146122b25760405162461bcd60e51b81526004016105d7919061577e565b5061236e85603560366000896001600160a01b03166001600160a01b031681526020019081526020016000206037603854603460009054906101000a90046001600160a01b03166001600160a01b031663fca513a86040518163ffffffff1660e01b815260040160206040518083038186803b15801561233157600080fd5b505afa158015612345573d6000803e3d6000fd5b505050506040513d601f19601f820116820180604052508101906123699190614f15565b613ed0565b6001600160a01b03868116600090815260356020526040902060070154600160a01b900460ff16908581169087161461246b576123ab8385612f80565b612405576001600160a01b0386166000908152603660205260408120906123d590829084906130c0565b866001600160a01b0316886001600160a01b0316600080516020615a8283398151915260405160405180910390a3505b8115801561241257508315155b1561246b576001600160a01b038516600090815260366020526040902061243b818360016130c0565b856001600160a01b0316886001600160a01b0316600080516020615af183398151915260405160405180910390a3505b50505050505050565b603d546001600160a01b031681565b603a5490565b612491612778565b6001600160a01b038416600090815260356020526040908190209051630eca322b60e01b815273__$de8c0cf1a7d7c36c802af9a64fb9d86036$__90630eca322b906124e39084908890600401615981565b60006040518083038186803b1580156124fb57600080fd5b505af415801561250f573d6000803e3d6000fd5b5050505060048101546001600160a01b031661252a826129f7565b612538828783886000612ab8565b61254d6001600160a01b038716338388613060565b6040516370a0823160e01b81526001600160a01b038216906370a08231906125799087906004016154ac565b60206040518083038186803b15801561259157600080fd5b505afa1580156125a5573d6000803e3d6000fd5b505050506040513d601f19601f820116820180604052508101906125c99190615332565b61262e5760078201546001600160a01b03851660009081526036602052604090206125ff91600160a01b900460ff1660016130c0565b836001600160a01b0316866001600160a01b0316600080516020615af183398151915260405160405180910390a35b6001820154604051630ab714fb60e11b81526001600160a01b0383169163156e29f69161266b9188918a916001600160801b03169060040161550a565b602060405180830381600087803b15801561268557600080fd5b505af1158015612699573d6000803e3d6000fd5b505050506040513d601f19601f820116820180604052508101906126bd9190615316565b508261ffff16846001600160a01b0316876001600160a01b03167fde6857219544bb5b7746f48ed30be6386fefc61b2f864cacf559893bf50fd95133896040516127089291906154f1565b60405180910390a4505050505050565b603d546001600160a01b0316156127415760405162461bcd60e51b81526004016105d7906157b1565b603d80546001600160a01b0319166001600160a01b0392909216919091179055565b603c5490565b6034546001600160a01b031690565b6039546040805180820190915260028152610d8d60f21b60208201529060ff1615611d195760405162461bcd60e51b81526004016105d7919061577e565b603454604080516385c858b160e01b8152905133926001600160a01b0316916385c858b1916004808301926020929190829003018186803b1580156127fa57600080fd5b505afa15801561280e573d6000803e3d6000fd5b505050506040513d601f19601f820116820180604052508101906128329190614f15565b6001600160a01b03161460405180604001604052806002815260200161323760f01b81525090611d195760405162461bcd60e51b81526004016105d7919061577e565b600381015460009064ffffffffff600160801b90910481169042168114156128b35750506001810154600160801b90046001600160801b0316610768565b600183015460028401546000916128ea916001600160801b03600160801b928390048116926128e492041685613f46565b90613f53565b949350505050565b6005810154604080516370a0823160e01b81526001600160a01b0385811660048301529151600093849316916370a08231916024808301926020929190829003018186803b15801561294357600080fd5b505afa158015612957573d6000803e3d6000fd5b505050506040513d602081101561296d57600080fd5b50516006840154604080516370a0823160e01b81526001600160a01b038881166004830152915191909216916370a08231916024808301926020929190829003018186803b1580156129be57600080fd5b505afa1580156129d2573d6000803e3d6000fd5b505050506040513d60208110156129e857600080fd5b505190925090505b9250929050565b60068101546040805163b1bf962d60e01b815290516000926001600160a01b03169163b1bf962d916004808301926020929190829003018186803b158015612a3e57600080fd5b505afa158015612a52573d6000803e3d6000fd5b505050506040513d6020811015612a6857600080fd5b505160018301546003840154919250600160801b8082046001600160801b03908116939216910464ffffffffff16600080612aa68787868887614012565b9150915061246b8787878585886141cb565b612ac0614d13565b60058601546001600160a01b031680825260408051637b98f4df60e11b8152815163f731e9be92600480840193919291829003018186803b158015612b0457600080fd5b505afa158015612b18573d6000803e3d6000fd5b505050506040513d6040811015612b2e57600080fd5b50805160209182015160c084015260408084019190915260018801546006890154825163b1bf962d60e01b81529251612bd294600160801b9093046001600160801b0316936001600160a01b039092169263b1bf962d9260048082019391829003018186803b158015612ba057600080fd5b505afa158015612bb4573d6000803e3d6000fd5b505050506040513d6020811015612bca57600080fd5b505190613f53565b60e082018190526007870154604083015160c08401516001600160a01b03909216926329db497d9289928992899289929190612c0d8f6143ad565b6040518963ffffffff1660e01b815260040180896001600160a01b03168152602001886001600160a01b031681526020018781526020018681526020018581526020018481526020018381526020018281526020019850505050505050505060606040518083038186803b158015612c8457600080fd5b505afa158015612c98573d6000803e3d6000fd5b505050506040513d6060811015612cae57600080fd5b50805160208083015160409384015160a086015260808501526060840182905282518084019093526002835261353360f01b908301526001600160801b031015612d765760405162461bcd60e51b81526004018080602001828103825283818151815260200191508051906020019080838360005b83811015612d3b578181015183820152602001612d23565b50505050905090810190601f168015612d685780820380516001836020036101000a031916815260200191505b509250505060405180910390fd5b506080810151604080518082019091526002815261353560f01b6020820152906001600160801b031015612deb5760405162461bcd60e51b8152602060048201818152835160248401528351909283926044909101919085019080838360008315612d3b578181015183820152602001612d23565b5060a08101516040805180820190915260028152610d4d60f21b6020820152906001600160801b031015612e605760405162461bcd60e51b8152602060048201818152835160248401528351909283926044909101919085019080838360008315612d3b578181015183820152602001612d23565b5060608181015160028801805460808086015160038c0180546001600160801b03199081166001600160801b038085169190911790925560a0808a015191909516828816178216600160801b82841681029190911790965560018e01546040805198895260208901949094528784019190915280821697870197909752939095049092169183019190915291516001600160a01b038816927f804c9b842b2748a22bb64b345453a3de7ca54a6ca45ce00d415894979e22897a928290030190a2505050505050565b600082820183811015610faf576040805162461bcd60e51b815260206004820152601b60248201527a536166654d6174683a206164646974696f6e206f766572666c6f7760281b604482015290519081900360640190fd5b6000610faf83836040518060400160405280601e81526020017f536166654d6174683a207375627472616374696f6e206f766572666c6f7700008152506143b8565b604080518082019091526002815261373760f01b60208201526080831061302a5760405162461bcd60e51b8152602060048201818152835160248401528351909283926044909101919085019080838360008315612d3b578181015183820152602001612d23565b50816002028161303b57600061303e565b60015b60ff16901b826002026001901b19846000015416178360000181905550505050565b604080516001600160a01b0380861660248301528416604482015260648082018490528251808303909101815260849091019091526020810180516001600160e01b03166323b872dd60e01b1790526130ba908590614412565b50505050565b604080518082019091526002815261373760f01b6020820152608083106131285760405162461bcd60e51b8152602060048201818152835160248401528351909283926044909101919085019080838360008315612d3b578181015183820152602001612d23565b50816002026001018161313c57600061313f565b60015b60ff16901b826002026001016001901b19846000015416178360000181905550505050565b6000813f7fc5d2460186f7233c927e7db2dcc703c0e500b653ca82273b7bfad8045d85a4708181148015906128ea575050151592915050565b603854603c54604080518082019091526002815261363560f01b60208201529082106131dc5760405162461bcd60e51b81526004016105d7919061577e565b506001600160a01b038216600090815260356020526040812060070154600160a01b900460ff1615158061324557506000805260376020527fa0a618d80eda9243166be83cb7421d97e9dab6ddddd3c70ac7a6b4440256e8e7546001600160a01b038481169116145b905080610c9057506001600160a01b03919091166000818152603560209081526040808320600701805460ff60a01b1916600160a01b60ff8816021790558483526037909152902080546001600160a01b0319169091179055600101603855565b80516001600160a01b0390811660009081526035602090815260408083208186015185168452603683528184206034548351631f94a27560e31b81529351929691959491169263fca513a89260048083019392829003018186803b15801561330d57600080fd5b505afa158015613321573d6000803e3d6000fd5b505050506040513d601f19601f820116820180604052508101906133459190614f15565b905060006133e6613355856145c9565b600a0a6116728760600151856001600160a01b031663b3596f078a600001516040518263ffffffff1660e01b815260040161339091906154ac565b60206040518083038186803b1580156133a857600080fd5b505afa1580156133bc573d6000803e3d6000fd5b505050506040513d601f19601f820116820180604052508101906133e09190615332565b906137ee565b905073__$de8c0cf1a7d7c36c802af9a64fb9d86036$__63721a92f986600001518688604001518960600151868b60800151603a5460358c60376038548e6040518d63ffffffff1660e01b815260040161344b9c9b9a99989796959493929190615597565b60006040518083038186803b15801561346357600080fd5b505af4158015613477573d6000803e3d6000fd5b50505050613484846129f7565b60008060018760800151600281111561349957fe5b60028111156134a457fe5b1415613559576003860154600587015460208901516040808b015160608c0151915163b3f1c93d60e01b81526001600160801b0390951696506001600160a01b039093169363b3f1c93d9361350093929091889060040161556e565b602060405180830381600087803b15801561351a57600080fd5b505af115801561352e573d6000803e3d6000fd5b505050506040513d601f19601f820116820180604052508101906135529190615316565b9050613608565b600686015460208801516040808a015160608b015160018b0154925163b3f1c93d60e01b81526001600160a01b039095169463b3f1c93d946135b39490939291600160801b9091046001600160801b0316906004016154c0565b602060405180830381600087803b1580156135cd57600080fd5b505af11580156135e1573d6000803e3d6000fd5b505050506040513d601f19601f820116820180604052508101906136059190615316565b90505b801561362a57600786015461362a908690600160a01b900460ff166001612fc2565b61365987600001518860a0015160008a60e0015161364957600061364f565b8a606001515b8a93929190612ab8565b8660e00151156136f1578660a001516001600160a01b0316634efecaa5886020015189606001516040518363ffffffff1660e01b815260040161369d9291906154f1565b602060405180830381600087803b1580156136b757600080fd5b505af11580156136cb573d6000803e3d6000fd5b505050506040513d601f19601f820116820180604052508101906136ef9190615332565b505b8660c0015161ffff1687604001516001600160a01b031688600001516001600160a01b03167fc6a898309e823ee50bac64e45ca8adba6690e99e7841c45d754e2a38e9019d9b8a602001518b606001518c608001516001600281111561375357fe5b8e60800151600281111561376357fe5b600281111561376e57fe5b1461378d5760028d0154600160801b90046001600160801b031661378f565b885b60405161379f9493929190615641565b60405180910390a450505050505050565b805182511460405180604001604052806002815260200161373360f01b81525090610c905760405162461bcd60e51b81526004016105d7919061577e565b6000826137fd5750600061078e565b8282028284828161380a57fe5b0414610faf5760405162461bcd60e51b8152600401808060200182810382526021815260200180615aa26021913960400191505060405180910390fd5b6000610faf83836040518060400160405280601a815260200179536166654d6174683a206469766973696f6e206279207a65726f60301b8152506145d3565b60006138a361389484614638565b61389d84614638565b906146b6565b905060006138b96138b26147bb565b8390612f28565b60018601549091506138d59082906001600160801b0316613f53565b604080518082019091526002815261353160f01b60208201529091506001600160801b038211156139475760405162461bcd60e51b8152602060048201818152835160248401528351909283926044909101919085019080838360008315612d3b578181015183820152602001612d23565b5060019490940180546001600160801b0319166001600160801b0390951694909417909355505050565b6000806000806000613981614d61565b61398a8a6147ca565b156139a8576000806000806000199550955095509550955050613e24565b600060e08201525b878160e001511015613d835760e08101516139cc908b906147cf565b6139d557613d73565b60e0810151600090815260208a81526040808320546001600160a01b03166101e085018190528352908d90529020613a0c8161484e565b506080860181905260c08601929092525060a0840191909152600a0a60208301526101e082015160405163b3596f0760e01b81526001600160a01b038a169163b3596f0791613a5e91906004016154ac565b60206040518083038186803b158015613a7657600080fd5b505afa158015613a8a573d6000803e3d6000fd5b505050506040513d601f19601f82011682018060405250810190613aae9190615332565b825260c082015115801590613ace575060e0820151613ace908c90614879565b15613bec578060040160009054906101000a90046001600160a01b03166001600160a01b03166370a082318e6040518263ffffffff1660e01b8152600401613b1691906154ac565b60206040518083038186803b158015613b2e57600080fd5b505afa158015613b42573d6000803e3d6000fd5b505050506040513d601f19601f82011682018060405250810190613b669190615332565b6040830181905260208301518351600092613b859291611672916137ee565b610120840151909150613b989082612f28565b61012084015260a0830151613bbe90613bb29083906137ee565b61016085015190612f28565b61016084015260c0830151613be490613bd89083906137ee565b61018085015190612f28565b610180840152505b60e0820151613bfc908c906148ff565b15613d71578060050160009054906101000a90046001600160a01b03166001600160a01b03166370a082318e6040518263ffffffff1660e01b8152600401613c4491906154ac565b60206040518083038186803b158015613c5c57600080fd5b505afa158015613c70573d6000803e3d6000fd5b505050506040513d601f19601f82011682018060405250810190613c949190615332565b826060018181525050613d3e8160060160009054906101000a90046001600160a01b03166001600160a01b03166370a082318f6040518263ffffffff1660e01b8152600401613ce391906154ac565b60206040518083038186803b158015613cfb57600080fd5b505afa158015613d0f573d6000803e3d6000fd5b505050506040513d601f19601f82011682018060405250810190613d339190615332565b606084015190612f28565b6060830181905260208301518351613d6a92613d5e9291611672916137ee565b61014084015190612f28565b6101408301525b505b60e08101805160010190526139b0565b600081610120015111613d97576000613dac565b610120810151610160820151613dac91613847565b610160820152610120810151613dc3576000613dd8565b610120810151610180820151613dd891613847565b6101808201819052610120820151610140830151613df59261497e565b610100820181905261012082015161014083015161016084015161018090940151919850965091945090925090505b965096509650965096915050565b600080613e3f85846149a2565b905083811015613e53576000915050610faf565b613e5d8185612f80565b95945050505050565b600290565b303b1590565b600381015460009064ffffffffff600160801b9091048116904216811415613ea857505060018101546001600160801b0316610768565b600183015460028401546000916128ea916001600160801b03918216916128e4911685614a3f565b604080516020810190915284548152600090613ef29088908890878787613971565b945050505050670de0b6b3a7640000811015604051806040016040528060018152602001601b60f91b81525090613f3c5760405162461bcd60e51b81526004016105d7919061577e565b5050505050505050565b6000610faf838342614a7d565b6000821580613f60575081155b15613f6d5750600061078e565b81676765c793fa10079d601a1b1981613f8257fe5b0483111560405180604001604052806002815260200161068760f31b81525090613fed5760405162461bcd60e51b8152602060048201818152835160248401528351909283926044909101919085019080838360008315612d3b578181015183820152602001612d23565b50676765c793fa10079d601b1b6002815b04838502018161400a57fe5b049392505050565b600285015460009081906001600160801b03168585821561419c5760006140398488614a3f565b9050614045818a613f53565b604080518082019091526002815261353160f01b60208201529093506001600160801b038411156140b75760405162461bcd60e51b8152602060048201818152835160248401528351909283926044909101919085019080838360008315612d3b578181015183820152602001612d23565b5060018b0180546001600160801b0319166001600160801b038516179055891561419a5760028b01546000906140fd90600160801b90046001600160801b031689613f46565b9050614109818a613f53565b6040805180820190915260028152611a9960f11b60208201529093506001600160801b0384111561417b5760405162461bcd60e51b8152602060048201818152835160248401528351909283926044909101919085019080838360008315612d3b578181015183820152602001612d23565b505060018b0180546001600160801b03808516600160801b0291161790555b505b600399909901805464ffffffffff60801b1916600160801b4264ffffffffff1602179055989650505050505050565b6141d3614dfb565b6141dc876143ad565b61012082018190526141ee5750611482565b8660050160009054906101000a90046001600160a01b03166001600160a01b031663797743386040518163ffffffff1660e01b815260040160806040518083038186803b15801561423e57600080fd5b505afa158015614252573d6000803e3d6000fd5b505050506040513d608081101561426857600080fd5b508051602080830151604084015160609094015164ffffffffff1661014086015260a0850193909352918352908201526142a28686613f53565b60808201526142b18684613f53565b606082015260a08101516101408201516142d3919064ffffffffff8516614a7d565b60c0820181905260208201516142e891613f53565b6040820181905260808201518251606084015161430d93926109dd9290918391612f28565b60e0820181905261012082015161432491906149a2565b61010082018190521561246b5760048088015461010083015160408051637df5bd3b60e01b81529384019190915260248301879052516001600160a01b0390911691637df5bd3b91604480830192600092919082900301818387803b15801561438c57600080fd5b505af11580156143a0573d6000803e3d6000fd5b5050505050505050505050565b5460401c61ffff1690565b6000818484111561440a5760405162461bcd60e51b8152602060048201818152835160248401528351909283926044909101919085019080838360008315612d3b578181015183820152602001612d23565b505050900390565b614424826001600160a01b0316613164565b614475576040805162461bcd60e51b815260206004820152601f60248201527f5361666545524332303a2063616c6c20746f206e6f6e2d636f6e747261637400604482015290519081900360640190fd5b600080836001600160a01b0316836040518082805190602001908083835b602083106144b25780518252601f199092019160209182019101614493565b6001836020036101000a0380198251168184511680821785525050505050509050019150506000604051808303816000865af19150503d8060008114614514576040519150601f19603f3d011682016040523d82523d6000602084013e614519565b606091505b509150915081614570576040805162461bcd60e51b815260206004820181905260248201527f5361666545524332303a206c6f772d6c6576656c2063616c6c206661696c6564604482015290519081900360640190fd5b8051156130ba5780806020019051602081101561458c57600080fd5b50516130ba5760405162461bcd60e51b815260040180806020018281038252602a815260200180615b11602a913960400191505060405180910390fd5b5460301c60ff1690565b600081836146225760405162461bcd60e51b8152602060048201818152835160248401528351909283926044909101919085019080838360008315612d3b578181015183820152602001612d23565b50600083858161462e57fe5b0495945050505050565b6000633b9aca0082810290839082041460405180604001604052806002815260200161068760f31b815250906146af5760405162461bcd60e51b8152602060048201818152835160248401528351909283926044909101919085019080838360008315612d3b578181015183820152602001612d23565b5092915050565b604080518082019091526002815261035360f41b60208201526000908261471e5760405162461bcd60e51b8152602060048201818152835160248401528351909283926044909101919085019080838360008315612d3b578181015183820152602001612d23565b5060408051808201909152600280825261068760f31b6020830152830490676765c793fa10079d601b1b8219048511156147995760405162461bcd60e51b8152602060048201818152835160248401528351909283926044909101919085019080838360008315612d3b578181015183820152602001612d23565b508281676765c793fa10079d601b1b860201816147b257fe5b04949350505050565b676765c793fa10079d601b1b90565b511590565b60006080821060405180604001604052806002815260200161373760f01b8152509061483c5760405162461bcd60e51b8152602060048201818152835160248401528351909283926044909101919085019080838360008315612d3b578181015183820152602001612d23565b50509051600360029092021c16151590565b5461ffff80821692601083901c821692602081901c831692603082901c60ff169260409290921c1690565b60006080821060405180604001604052806002815260200161373760f01b815250906148e65760405162461bcd60e51b8152602060048201818152835160248401528351909283926044909101919085019080838360008315612d3b578181015183820152602001612d23565b5050815160016002830281019190911c16151592915050565b60006080821060405180604001604052806002815260200161373760f01b8152509061496c5760405162461bcd60e51b8152602060048201818152835160248401528351909283926044909101919085019080838360008315612d3b578181015183820152602001612d23565b50509051600160029092021c16151590565b60008261498e5750600019610faf565b6128ea8361499c86856149a2565b90614b53565b60008215806149af575081155b156149bc5750600061078e565b8161138819816149c857fe5b0483111560405180604001604052806002815260200161068760f31b81525090614a335760405162461bcd60e51b8152602060048201818152835160248401528351909283926044909101919085019080838360008315612d3b578181015183820152602001612d23565b50612710600281613ffe565b600080614a534264ffffffffff8516612f80565b90506128ea614a606147bb565b6301e13380614a6f87856137ee565b81614a7657fe5b0490612f28565b600080614a918364ffffffffff8616612f80565b905080614aa857614aa06147bb565b915050610faf565b6000198101600060028311614abe576000614ac3565b600283035b90506301e1338087046000614ad88280613f53565b90506000614ae68284613f53565b905060006002614afa846133e08a8a6137ee565b81614b0157fe5b04905060006006614b18846133e089818d8d6137ee565b81614b1f57fe5b049050614b4381614b3d8481614b358a8e6137ee565b614b3d6147bb565b90612f28565b9c9b505050505050505050505050565b604080518082019091526002815261035360f41b602082015260009082614bbb5760405162461bcd60e51b8152602060048201818152835160248401528351909283926044909101919085019080838360008315612d3b578181015183820152602001612d23565b5060408051808201909152600280825261068760f31b6020830152830490670de0b6b3a7640000821904851115614c335760405162461bcd60e51b8152602060048201818152835160248401528351909283926044909101919085019080838360008315612d3b578181015183820152602001612d23565b508281670de0b6b3a7640000860201816147b257fe5b604051806101800160405280614c5d614cb4565b815260006020820181905260408201819052606082018190526080820181905260a0820181905260c0820181905260e082018190526101008201819052610120820181905261014082018190526101609091015290565b6040518060200160405280600081525090565b6040805161012081018252600080825260208201819052918101829052606081018290526080810182905260a0810182905260c0810182905260e0810182905261010081019190915290565b60405180610100016040528060006001600160a01b03168152602001600081526020016000815260200160008152602001600081526020016000815260200160008152602001600081525090565b604051806102400160405280600081526020016000815260200160008152602001600081526020016000815260200160008152602001600081526020016000815260200160008152602001600081526020016000815260200160008152602001600081526020016000815260200160001515815260200160006001600160a01b031681526020016000151581526020016000151581525090565b60405180610160016040528060008152602001600081526020016000815260200160008152602001600081526020016000815260200160008152602001600081526020016000815260200160008152602001600064ffffffffff1681525090565b803561076881615a5e565b60008083601f840112614e78578081fd5b5081356001600160401b03811115614e8e578182fd5b60208301915083602080830285010111156129f057600080fd5b60008083601f840112614eb9578182fd5b5081356001600160401b03811115614ecf578182fd5b6020830191508360208285010111156129f057600080fd5b803561ffff8116811461076857600080fd5b600060208284031215614f0a578081fd5b8135610faf81615a5e565b600060208284031215614f26578081fd5b8151610faf81615a5e565b60008060408385031215614f43578081fd5b8235614f4e81615a5e565b91506020830135614f5e81615a5e565b809150509250929050565b600080600080600060a08688031215614f80578081fd5b8535614f8b81615a5e565b94506020860135614f9b81615a5e565b93506040860135614fab81615a5e565b92506060860135614fbb81615a5e565b91506080860135614fcb81615a5e565b809150509295509295909350565b600080600080600060a08688031215614ff0578081fd5b8535614ffb81615a5e565b9450602086013561500b81615a5e565b9350604086013561501b81615a5e565b9250606086013591506080860135614fcb81615a73565b60008060008060008060c0878903121561504a578081fd5b863561505581615a5e565b9550602087013561506581615a5e565b9450604087013561507581615a5e565b959894975094956060810135955060808101359460a0909101359350915050565b600080600080600080600080600080600060e08c8e0312156150b6578485fd5b6150bf8c614e5c565b9a506001600160401b0360208d01358110156150d9578586fd5b6150e98e60208f01358f01614e67565b909b50995060408d01358110156150fe578586fd5b61510e8e60408f01358f01614e67565b909950975060608d0135811015615123578586fd5b6151338e60608f01358f01614e67565b909750955061514460808e01614e5c565b94508060a08e01351115615156578384fd5b506151678d60a08e01358e01614ea8565b909350915061517860c08d01614ee7565b90509295989b509295989b9093969950565b6000806040838503121561519c578182fd5b82356151a781615a5e565b91506020830135614f5e81615a73565b600080604083850312156151c9578182fd5b82356151d481615a5e565b946020939093013593505050565b6000806000606084860312156151f6578081fd5b833561520181615a5e565b925060208401359150604084013561521881615a5e565b809150509250925092565b60008060008060808587031215615238578182fd5b843561524381615a5e565b935060208501359250604085013561525a81615a5e565b915061526860608601614ee7565b905092959194509250565b60008060008060808587031215615288578182fd5b843561529381615a5e565b9350602085013592506040850135915060608501356152b181615a5e565b939692955090935050565b600080600080600060a086880312156152d3578283fd5b85356152de81615a5e565b94506020860135935060408601359250614fbb60608701614ee7565b60006020828403121561530b578081fd5b8135610faf81615a73565b600060208284031215615327578081fd5b8151610faf81615a73565b600060208284031215615343578081fd5b5051919050565b6000806040838503121561535c578182fd5b825160208401519092506001600160401b038082111561537a578283fd5b818501915085601f83011261538d578283fd5b81518181111561539957fe5b604051601f8201601f1916810160200183811182821017156153b757fe5b6040528181528382016020018810156153ce578485fd5b6153df826020830160208701615a32565b809450505050509250929050565b6001600160a01b03169052565b6000815180845260208085019450808401835b838110156154295781518752958201959082019060010161540d565b509495945050505050565b60008284528282602086013780602084860101526020601f19601f85011685010190509392505050565b6003811061546857fe5b9052565b519052565b6001600160801b03169052565b64ffffffffff169052565b60ff169052565b600082516154a2818460208701615a32565b9190910192915050565b6001600160a01b0391909116815260200190565b6001600160a01b03948516815292909316602083015260408201526001600160801b03909116606082015260800190565b6001600160a01b03929092168252602082015260400190565b6001600160a01b0393909316835260208301919091526001600160801b0316604082015260600190565b6001600160a01b0396871681529486166020860152928516604085015260608401919091521515608083015290911660a082015260c00190565b6001600160a01b0394851681529290931660208301526040820152606081019190915260800190565b6001600160a01b039c8d168152602081019b909b52988b1660408b015260608a0197909752608089019590955260a088019390935260c087019190915260e08601526101008501526101208401526101408301529091166101608201526101800190565b6001600160a01b039889168152602081019790975260408701959095526060860193909352608085019190915260a084015260c083015290911660e08201526101000190565b6001600160a01b0394909416845260208401929092526040830152606082015260800190565b60a0808252810188905260008960c08301825b8b8110156156aa57823561568d81615a5e565b6001600160a01b031682526020928301929091019060010161567a565b5083810360208501528881526001600160fb1b038911156156c9578283fd5b602089029150818a602083013701602081810183815284830390910160408501526156f481896153fa565b91505061570460608401876153ed565b8281036080840152615717818587615434565b9b9a5050505050505050505050565b6020808252825182820181905260009190848201906040850190845b818110156157675783516001600160a01b031683529284019291840191600101615742565b50909695505050505050565b901515815260200190565b600060208252825180602084015261579d816040850160208701615a32565b601f01601f19169190910160400192915050565b60208082526015908201527413195d995c9859d95c88105b1c9958591e4814d95d605a1b604082015260600190565b9051815260200190565b6000610180820190506157fe82845161546c565b60208301516158106020840182615471565b5060408301516158236040840182615471565b5060608301516158366060840182615471565b5060808301516158496080840182615471565b5060a083015161585c60a0840182615471565b5060c083015161586f60c084018261547e565b5060e083015161588260e08401826153ed565b5061010080840151615896828501826153ed565b5050610120808401516158ab828501826153ed565b5050610140808401516158c0828501826153ed565b5050610160808401516158d582850182615489565b505092915050565b9485526001600160a01b03938416602086015291831660408501528216606084015216608082015260a00190565b9788526001600160a01b03968716602089015294151560408801526060870193909352608086019190915260a085015260c08401521660e08201526101000190565b600060a082019050868252856020830152846040830152836060830152615977608083018461545e565b9695505050505050565b918252602082015260400190565b8681526020810186905260c081016159aa604083018761545e565b6001600160a01b03949094166060820152608081019290925260a0909101529392505050565b90815260200190565b9182526001600160a01b0316602082015260400190565b928352602083019190915261ffff16604082015260600190565b958652602086019490945260408501929092526060840152608083015260a082015260c00190565b60005b83811015615a4d578181015183820152602001615a35565b838111156130ba5750506000910152565b6001600160a01b0381168114611d1957600080fd5b8015158114611d1957600080fdfe44c58d81365b66dd4b1a7f36c25aa97b8c71c361ee4937adc1a00000227db5dd536166654d6174683a206d756c7469706c69636174696f6e206f766572666c6f77436f6e747261637420696e7374616e63652068617320616c7265616479206265656e20696e697469616c697a656400058a56ea94653cdf4f152d227ace22d4c00ad99e2a43f58cb7d9e3feb295f25361666545524332303a204552433230206f7065726174696f6e20646964206e6f742073756363656564a2646970667358221220a7f11c4b2aff019d8b965cfd977f2501134313a81b6aaf850aa535bb1f58194564736f6c63430007060033",
  "linkReferences": {
    "contracts/protocol/libraries/logic/ReserveLogic.sol": {
      "ReserveLogic": [
        {
          "length": 20,
          "start": 4174
        }
      ]
    },
    "contracts/protocol/libraries/logic/ValidationLogic.sol": {
      "ValidationLogic": [
        {
          "length": 20,
          "start": 2110
        },
        {
          "length": 20,
          "start": 2911
        },
        {
          "length": 20,
          "start": 3447
        },
        {
          "length": 20,
          "start": 4386
        },
        {
          "length": 20,
          "start": 8187
        },
        {
          "length": 20,
          "start": 9438
        },
        {
          "length": 20,
          "start": 13327
        }
      ]
    }
  },
  "deployedLinkReferences": {
    "contracts/protocol/libraries/logic/ReserveLogic.sol": {
      "ReserveLogic": [
        {
          "length": 20,
          "start": 4137
        }
      ]
    },
    "contracts/protocol/libraries/logic/ValidationLogic.sol": {
      "ValidationLogic": [
        {
          "length": 20,
          "start": 2073
        },
        {
          "length": 20,
          "start": 2874
        },
        {
          "length": 20,
          "start": 3410
        },
        {
          "length": 20,
          "start": 4349
        },
        {
          "length": 20,
          "start": 8150
        },
        {
          "length": 20,
          "start": 9401
        },
        {
          "length": 20,
          "start": 13290
        }
      ]
    }
  }
}