{
  "_format": "hh-sol-artifact-1",
  "contractName": "EligibilityDataProvider",
  "sourceName": "contracts/eligibility/EligibilityDataProvider.sol",
  "abi": [
    {
      "inputs": [
        {
          "internalType": "contract ILendingPool",
          "name": "_lendingPool",
          "type": "address"
        },
        {
          "internalType": "contract IMiddleFeeDistribution",
          "name": "_middleFeeDistribution",
          "type": "address"
        },
        {
          "internalType": "contract IPriceProvider",
          "name": "_priceProvider",
          "type": "address"
        }
      ],
      "stateMutability": "nonpayable",
      "type": "constructor"
    },
    {
      "anonymous": false,
      "inputs": [
        {
          "indexed": true,
          "internalType": "address",
          "name": "token",
          "type": "address"
        }
      ],
      "name": "AddToken",
      "type": "event"
    },
    {
      "anonymous": false,
      "inputs": [
        {
          "indexed": false,
          "internalType": "contract IChefIncentivesController",
          "name": "_chef",
          "type": "address"
        }
      ],
      "name": "ChefIncentivesControllerUpdated",
      "type": "event"
    },
    {
      "anonymous": false,
      "inputs": [
        {
          "indexed": false,
          "internalType": "address",
          "name": "_user",
          "type": "address"
        },
        {
          "indexed": false,
          "internalType": "uint256",
          "name": "_time",
          "type": "uint256"
        }
      ],
      "name": "DqTimeUpdated",
      "type": "event"
    },
    {
      "anonymous": false,
      "inputs": [
        {
          "indexed": false,
          "internalType": "address",
          "name": "_lpToken",
          "type": "address"
        }
      ],
      "name": "LPTokenUpdated",
      "type": "event"
    },
    {
      "anonymous": false,
      "inputs": [
        {
          "indexed": true,
          "internalType": "address",
          "name": "previousOwner",
          "type": "address"
        },
        {
          "indexed": true,
          "internalType": "address",
          "name": "newOwner",
          "type": "address"
        }
      ],
      "name": "OwnershipTransferred",
      "type": "event"
    },
    {
      "anonymous": false,
      "inputs": [
        {
          "indexed": false,
          "internalType": "uint256",
          "name": "requiredDepositRatio",
          "type": "uint256"
        }
      ],
      "name": "RequiredDepositRatioUpdated",
      "type": "event"
    },
    {
      "inputs": [],
      "name": "RATIO_DIVISOR",
      "outputs": [
        {
          "internalType": "uint256",
          "name": "",
          "type": "uint256"
        }
      ],
      "stateMutability": "view",
      "type": "function"
    },
    {
      "inputs": [],
      "name": "chef",
      "outputs": [
        {
          "internalType": "contract IChefIncentivesController",
          "name": "",
          "type": "address"
        }
      ],
      "stateMutability": "view",
      "type": "function"
    },
    {
      "inputs": [
        {
          "internalType": "address",
          "name": "",
          "type": "address"
        }
      ],
      "name": "disqualifiedTime",
      "outputs": [
        {
          "internalType": "uint256",
          "name": "",
          "type": "uint256"
        }
      ],
      "stateMutability": "view",
      "type": "function"
    },
    {
      "inputs": [
        {
          "internalType": "address",
          "name": "_user",
          "type": "address"
        }
      ],
      "name": "getDqTime",
      "outputs": [
        {
          "internalType": "uint256",
          "name": "",
          "type": "uint256"
        }
      ],
      "stateMutability": "view",
      "type": "function"
    },
    {
      "inputs": [
        {
          "internalType": "address",
          "name": "_user",
          "type": "address"
        }
      ],
      "name": "isEligibleForRewards",
      "outputs": [
        {
          "internalType": "bool",
          "name": "isEligible",
          "type": "bool"
        }
      ],
      "stateMutability": "view",
      "type": "function"
    },
    {
      "inputs": [
        {
          "internalType": "address",
          "name": "_user",
          "type": "address"
        }
      ],
      "name": "isMarketDisqualified",
      "outputs": [
        {
          "internalType": "bool",
          "name": "",
          "type": "bool"
        }
      ],
      "stateMutability": "view",
      "type": "function"
    },
    {
      "inputs": [
        {
          "internalType": "address",
          "name": "",
          "type": "address"
        }
      ],
      "name": "lastEligibleStatus",
      "outputs": [
        {
          "internalType": "bool",
          "name": "",
          "type": "bool"
        }
      ],
      "stateMutability": "view",
      "type": "function"
    },
    {
      "inputs": [
        {
          "internalType": "address",
          "name": "user",
          "type": "address"
        }
      ],
      "name": "lastEligibleTime",
      "outputs": [
        {
          "internalType": "uint256",
          "name": "lastEligibleTimestamp",
          "type": "uint256"
        }
      ],
      "stateMutability": "view",
      "type": "function"
    },
    {
      "inputs": [],
      "name": "lendingPool",
      "outputs": [
        {
          "internalType": "contract ILendingPool",
          "name": "",
          "type": "address"
        }
      ],
      "stateMutability": "view",
      "type": "function"
    },
    {
      "inputs": [
        {
          "internalType": "address",
          "name": "user",
          "type": "address"
        }
      ],
      "name": "lockedUsdValue",
      "outputs": [
        {
          "internalType": "uint256",
          "name": "",
          "type": "uint256"
        }
      ],
      "stateMutability": "view",
      "type": "function"
    },
    {
      "inputs": [],
      "name": "lpToken",
      "outputs": [
        {
          "internalType": "address",
          "name": "",
          "type": "address"
        }
      ],
      "stateMutability": "view",
      "type": "function"
    },
    {
      "inputs": [],
      "name": "middleFeeDistribution",
      "outputs": [
        {
          "internalType": "contract IMiddleFeeDistribution",
          "name": "",
          "type": "address"
        }
      ],
      "stateMutability": "view",
      "type": "function"
    },
    {
      "inputs": [],
      "name": "owner",
      "outputs": [
        {
          "internalType": "address",
          "name": "",
          "type": "address"
        }
      ],
      "stateMutability": "view",
      "type": "function"
    },
    {
      "inputs": [],
      "name": "priceProvider",
      "outputs": [
        {
          "internalType": "contract IPriceProvider",
          "name": "",
          "type": "address"
        }
      ],
      "stateMutability": "view",
      "type": "function"
    },
    {
      "inputs": [
        {
          "internalType": "address",
          "name": "user",
          "type": "address"
        }
      ],
      "name": "refresh",
      "outputs": [],
      "stateMutability": "nonpayable",
      "type": "function"
    },
    {
      "inputs": [],
      "name": "renounceOwnership",
      "outputs": [],
      "stateMutability": "nonpayable",
      "type": "function"
    },
    {
      "inputs": [],
      "name": "requiredDepositRatio",
      "outputs": [
        {
          "internalType": "uint256",
          "name": "",
          "type": "uint256"
        }
      ],
      "stateMutability": "view",
      "type": "function"
    },
    {
      "inputs": [
        {
          "internalType": "address",
          "name": "user",
          "type": "address"
        }
      ],
      "name": "requiredUsdValue",
      "outputs": [
        {
          "internalType": "uint256",
          "name": "required",
          "type": "uint256"
        }
      ],
      "stateMutability": "view",
      "type": "function"
    },
    {
      "inputs": [
        {
          "internalType": "contract IChefIncentivesController",
          "name": "_chef",
          "type": "address"
        }
      ],
      "name": "setChefIncentivesController",
      "outputs": [],
      "stateMutability": "nonpayable",
      "type": "function"
    },
    {
      "inputs": [
        {
          "internalType": "address",
          "name": "_user",
          "type": "address"
        },
        {
          "internalType": "uint256",
          "name": "_time",
          "type": "uint256"
        }
      ],
      "name": "setDqTime",
      "outputs": [],
      "stateMutability": "nonpayable",
      "type": "function"
    },
    {
      "inputs": [
        {
          "internalType": "address",
          "name": "_lpToken",
          "type": "address"
        }
      ],
      "name": "setLPToken",
      "outputs": [],
      "stateMutability": "nonpayable",
      "type": "function"
    },
    {
      "inputs": [
        {
          "internalType": "uint256",
          "name": "_requiredDepositRatio",
          "type": "uint256"
        }
      ],
      "name": "setRequiredDepositRatio",
      "outputs": [],
      "stateMutability": "nonpayable",
      "type": "function"
    },
    {
      "inputs": [
        {
          "internalType": "address",
          "name": "newOwner",
          "type": "address"
        }
      ],
      "name": "transferOwnership",
      "outputs": [],
      "stateMutability": "nonpayable",
      "type": "function"
    },
    {
      "inputs": [],
      "name": "updatePrice",
      "outputs": [],
      "stateMutability": "nonpayable",
      "type": "function"
    },
    {
      "inputs": [
        {
          "internalType": "address",
          "name": "",
          "type": "address"
        },
        {
          "internalType": "address",
          "name": "",
          "type": "address"
        }
      ],
      "name": "userDeposits",
      "outputs": [
        {
          "internalType": "uint256",
          "name": "",
          "type": "uint256"
        }
      ],
      "stateMutability": "view",
      "type": "function"
    }
  ],
  "bytecode": "0x60806040523480156200001157600080fd5b50604051620019583803806200195883398101604081905262000034916200015b565b60006200004062000157565b600080546001600160a01b0319166001600160a01b0383169081178255604051929350917f8be0079c531659141344cd1fd0a4f28419497f9722a3daafe3b4186f6b6457e0908290a3506001600160a01b038316620000bc5760405162461bcd60e51b8152600401620000b390620001ae565b60405180910390fd5b6001600160a01b038216620000e55760405162461bcd60e51b8152600401620000b390620001ae565b6001600160a01b0381166200010e5760405162461bcd60e51b8152600401620000b390620001ae565b600180546001600160a01b039485166001600160a01b0319918216179091556003805493851693821693909317909255600480549190931691161790556101f4600555620001fe565b3390565b60008060006060848603121562000170578283fd5b83516200017d81620001e5565b60208501519093506200019081620001e5565b6040850151909250620001a381620001e5565b809150509250925092565b60208082526013908201527f4e6f7420612076616c6964206164647265737300000000000000000000000000604082015260600190565b6001600160a01b0381168114620001fb57600080fd5b50565b61174a806200020e6000396000f3fe608060405234801561001057600080fd5b50600436106101735760003560e01c80636d9077cb116100de578063b888879e11610097578063e2c75ca011610071578063e2c75ca0146102cb578063e38fdc36146102de578063f2fde38b146102f1578063f4640c931461030457610173565b8063b888879e146102a8578063d52874da146102b0578063dbbbbc63146102b857610173565b80636d9077cb146102575780636f21a1791461026a578063715018a61461027d5780638da5cb5b14610285578063a0cfb9ff1461028d578063a59a9973146102a057610173565b80635fcbd285116101305780635fcbd28514610206578063660186e61461020e578063673a7e2814610221578063696c9a7f146102295780636a678a9c1461023c5780636a7e9f331461024f57610173565b80630afb0409146101785780631fc8bc5d1461018d57806321cc01c9146101ab578063436d8039146101b3578063563014e5146101d35780635de20b42146101e6575b600080fd5b61018b6101863660046113d9565b610317565b005b6101956103dd565b6040516101a29190611582565b60405180910390f35b6101956103ec565b6101c66101c1366004611411565b6103fb565b6040516101a29190611668565b6101c66101e13660046113d9565b610418565b6101f96101f43660046113d9565b6107a3565b6040516101a291906115af565b6101956107b8565b6101f961021c3660046113d9565b6107c7565b61018b6107f9565b6101f96102373660046113d9565b610856565b61018b61024a3660046113d9565b61088e565b6101c6610965565b6101c66102653660046113d9565b61096b565b6101c66102783660046113d9565b610ba4565b61018b610bbf565b610195610c61565b6101c661029b3660046113d9565b610c70565b610195610c82565b610195610c91565b6101c6610ca0565b61018b6102c63660046113d9565b610ca6565b61018b6102d9366004611449565b610d49565b6101c66102ec3660046113d9565b610dcc565b61018b6102ff3660046113d9565b610e80565b61018b6103123660046114a7565b610f78565b6002546001600160a01b0316331461034a5760405162461bcd60e51b815260040161034190611631565b60405180910390fd5b6001600160a01b03811661035a57fe5b6103626107f9565b600061036d826107c7565b905080801561039357506001600160a01b03821660009081526008602052604090205415155b156103b2576001600160a01b0382166000908152600860205260408120555b6001600160a01b03919091166000908152600760205260409020805460ff1916911515919091179055565b6002546001600160a01b031681565b6003546001600160a01b031681565b600a60209081526000928352604080842090915290825290205481565b60008061042483610dcc565b90506000600360009054906101000a90046001600160a01b03166001600160a01b03166328f407486040518163ffffffff1660e01b815260040160206040518083038186803b15801561047657600080fd5b505afa15801561048a573d6000803e3d6000fd5b505050506040513d601f19601f820116820180604052508101906104ae91906113f5565b90506000600360009054906101000a90046001600160a01b03166001600160a01b031663cd57ed6c6040518163ffffffff1660e01b815260040160206040518083038186803b15801561050057600080fd5b505afa158015610514573d6000803e3d6000fd5b505050506040513d601f19601f8201168201806040525081019061053891906113f5565b90506000826001600160a01b0316636bd3b87c876040518263ffffffff1660e01b81526004016105689190611582565b60006040518083038186803b15801561058057600080fd5b505afa158015610594573d6000803e3d6000fd5b505050506040513d6000823e601f3d908101601f191682016040526105bc9190810190611474565b90506000826001600160a01b0316636bd3b87c886040518263ffffffff1660e01b81526004016105ec9190611582565b60006040518083038186803b15801561060457600080fd5b505afa158015610618573d6000803e3d6000fd5b505050506040513d6000823e601f3d908101601f191682016040526106409190810190611474565b825181519192506000918291905b8115801561065a575080155b1561066457610795565b816106aa5760018103905084818151811061067b57fe5b602002602001015160200151995084818151811061069557fe5b6020026020010151600001518301925061077b565b806106f0576001820391508582815181106106c157fe5b60200260200101516020015199508582815181106106db57fe5b6020026020010151600001518401935061077b565b8460018203815181106106ff57fe5b60200260200101516020015186600184038151811061071a57fe5b602002602001015160200151101561073e5760018103905084818151811061067b57fe5b60018203915085828151811061075057fe5b602002602001015160200151995085828151811061076a57fe5b602002602001015160000151840193505b886107868585611027565b1061079057610795565b61064e565b505050505050505050919050565b60076020526000908152604090205460ff1681565b6006546001600160a01b031681565b6000806107d38361096b565b905060006107e084610dcc565b905080158015906107f15750808210155b949350505050565b600480546040805163a2e6204560e01b815290516001600160a01b039092169263a2e6204592828201926000929082900301818387803b15801561083c57600080fd5b505af1158015610850573d6000803e3d6000fd5b50505050565b60008061086283610dcc565b1180156108755750610873826107c7565b155b801561088857504261088683610418565b115b92915050565b61089661117b565b6000546001600160a01b039081169116146108e6576040805162461bcd60e51b815260206004820181905260248201526000805160206116f5833981519152604482015290519081900360640190fd5b6006546001600160a01b03161561090f5760405162461bcd60e51b8152600401610341906115ba565b600680546001600160a01b0319166001600160a01b0383161790556040517ff9d1c90c609623055381582a51735b38df3243eb09629a9170b15c2ab6bc07399061095a908390611582565b60405180910390a150565b61271081565b600080600360009054906101000a90046001600160a01b03166001600160a01b03166328f407486040518163ffffffff1660e01b815260040160206040518083038186803b1580156109bc57600080fd5b505afa1580156109d0573d6000803e3d6000fd5b505050506040513d601f19601f820116820180604052508101906109f491906113f5565b90506000600360009054906101000a90046001600160a01b03166001600160a01b031663cd57ed6c6040518163ffffffff1660e01b815260040160206040518083038186803b158015610a4657600080fd5b505afa158015610a5a573d6000803e3d6000fd5b505050506040513d601f19601f82011682018060405250810190610a7e91906113f5565b90506000826001600160a01b0316630483a7f6866040518263ffffffff1660e01b8152600401610aae9190611582565b60006040518083038186803b158015610ac657600080fd5b505afa158015610ada573d6000803e3d6000fd5b505050506040513d6000823e601f3d908101601f19168201604052610b0291908101906114d7565b5050925050506000826001600160a01b0316630483a7f6876040518263ffffffff1660e01b8152600401610b369190611582565b60006040518083038186803b158015610b4e57600080fd5b505afa158015610b62573d6000803e3d6000fd5b505050506040513d6000823e601f3d908101601f19168201604052610b8a91908101906114d7565b505092505050610b9a8282611027565b9695505050505050565b6001600160a01b031660009081526008602052604090205490565b610bc761117b565b6000546001600160a01b03908116911614610c17576040805162461bcd60e51b815260206004820181905260248201526000805160206116f5833981519152604482015290519081900360640190fd5b600080546040516001600160a01b03909116907f8be0079c531659141344cd1fd0a4f28419497f9722a3daafe3b4186f6b6457e0908390a3600080546001600160a01b0319169055565b6000546001600160a01b031690565b60086020526000908152604090205481565b6001546001600160a01b031681565b6004546001600160a01b031681565b60055481565b610cae61117b565b6000546001600160a01b03908116911614610cfe576040805162461bcd60e51b815260206004820181905260248201526000805160206116f5833981519152604482015290519081900360640190fd5b600280546001600160a01b0319166001600160a01b0383161790556040517f3edc4c109bdc9b34f00f24744f770e8de831fd903d0fc75d4d990d5d81b75b989061095a908390611582565b6002546001600160a01b03163314610d735760405162461bcd60e51b8152600401610341906115e8565b6001600160a01b03821660009081526008602052604090819020829055517f1e85ba2a5b06819d522e519e6ebf963f35ad4a709dc2a541ed39ad80f4b3a3be90610dc09084908490611596565b60405180910390a15050565b600154604051632fe4a15f60e21b815260009182916001600160a01b039091169063bf92857c90610e01908690600401611582565b60c06040518083038186803b158015610e1957600080fd5b505afa158015610e2d573d6000803e3d6000fd5b505050506040513d601f19601f82011682018060405250810190610e519190611539565b50505050509050610e79612710610e736005548461117f90919063ffffffff16565b906111d8565b9392505050565b610e8861117b565b6000546001600160a01b03908116911614610ed8576040805162461bcd60e51b815260206004820181905260248201526000805160206116f5833981519152604482015290519081900360640190fd5b6001600160a01b038116610f1d5760405162461bcd60e51b81526004018080602001828103825260268152602001806116ae6026913960400191505060405180910390fd5b600080546040516001600160a01b03808516939216917f8be0079c531659141344cd1fd0a4f28419497f9722a3daafe3b4186f6b6457e091a3600080546001600160a01b0319166001600160a01b0392909216919091179055565b610f8061117b565b6000546001600160a01b03908116911614610fd0576040805162461bcd60e51b815260206004820181905260248201526000805160206116f5833981519152604482015290519081900360640190fd5b612710811115610ff25760405162461bcd60e51b81526004016103419061160a565b60058190556040517f063aaf80a21dd5cad9d8adcdc5a53acaa3c2de05dc44c7e2f68783a87460d7fe9061095a908390611668565b6004805460408051631b4bb46160e21b8152905160009384936001600160a01b031692636d2ed1849281830192602092829003018186803b15801561106b57600080fd5b505afa15801561107f573d6000803e3d6000fd5b505050506040513d601f19601f820116820180604052508101906110a391906114bf565b90506000600460009054906101000a90046001600160a01b03166001600160a01b0316636e9a05c56040518163ffffffff1660e01b815260040160206040518083038186803b1580156110f557600080fd5b505afa158015611109573d6000803e3d6000fd5b505050506040513d601f19601f8201168201806040525081019061112d91906114bf565b90506000611147670de0b6b3a7640000610e73878661117f565b90506000611161670de0b6b3a7640000610e73898661117f565b9050600061116f838361121a565b98975050505050505050565b3390565b60008261118e57506000610888565b8282028284828161119b57fe5b0414610e795760405162461bcd60e51b81526004018080602001828103825260218152602001806116d46021913960400191505060405180910390fd5b6000610e7983836040518060400160405280601a81526020017f536166654d6174683a206469766973696f6e206279207a65726f000000000000815250611274565b600082820183811015610e79576040805162461bcd60e51b815260206004820152601b60248201527f536166654d6174683a206164646974696f6e206f766572666c6f770000000000604482015290519081900360640190fd5b600081836113005760405162461bcd60e51b81526004018080602001828103825283818151815260200191508051906020019080838360005b838110156112c55781810151838201526020016112ad565b50505050905090810190601f1680156112f25780820380516001836020036101000a031916815260200191505b509250505060405180910390fd5b50600083858161130c57fe5b0495945050505050565b600082601f830112611326578081fd5b8151602067ffffffffffffffff8083111561133d57fe5b61134a8283850201611671565b838152828101908684016080808702890186018a1015611368578788fd5b875b878110156113ca5781838c031215611380578889fd5b60408051838101818110898211171561139557fe5b82528451815288850151898201528482015191810191909152606080850151908201528552938601939181019160010161136a565b50919998505050505050505050565b6000602082840312156113ea578081fd5b8135610e7981611695565b600060208284031215611406578081fd5b8151610e7981611695565b60008060408385031215611423578081fd5b823561142e81611695565b9150602083013561143e81611695565b809150509250929050565b6000806040838503121561145b578182fd5b823561146681611695565b946020939093013593505050565b600060208284031215611485578081fd5b815167ffffffffffffffff81111561149b578182fd5b6107f184828501611316565b6000602082840312156114b8578081fd5b5035919050565b6000602082840312156114d0578081fd5b5051919050565b600080600080600060a086880312156114ee578081fd5b85519450602086015193506040860151925060608601519150608086015167ffffffffffffffff811115611520578182fd5b61152c88828901611316565b9150509295509295909350565b60008060008060008060c08789031215611551578081fd5b865195506020870151945060408701519350606087015192506080870151915060a087015190509295509295509295565b6001600160a01b0391909116815260200190565b6001600160a01b03929092168252602082015260400190565b901515815260200190565b6020808252601490820152731314081d1bdad95b88185b1c9958591e481cd95d60621b604082015260600190565b6020808252600890820152674f6e6c792043494360c01b604082015260600190565b6020808252600d908201526c496e76616c696420726174696f60981b604082015260600190565b60208082526019908201527f43616e206f6e6c792062652063616c6c65642062792043494300000000000000604082015260600190565b90815260200190565b60405181810167ffffffffffffffff8111828210171561168d57fe5b604052919050565b6001600160a01b03811681146116aa57600080fd5b5056fe4f776e61626c653a206e6577206f776e657220697320746865207a65726f2061646472657373536166654d6174683a206d756c7469706c69636174696f6e206f766572666c6f774f776e61626c653a2063616c6c6572206973206e6f7420746865206f776e6572a26469706673582212200be6b309ffbd6fe49b9b75c03a580ab2fe07a30661e518492a360bdaa38d8a2d64736f6c63430007060033",
  "linkReferences": {},
  "deployedLinkReferences": {}
}