{
  "_format": "hh-sol-artifact-1",
  "contractName": "Migration",
  "sourceName": "contracts/radiant/token/Migration.sol",
  "abi": [
    {
      "inputs": [
        {
          "internalType": "contract ERC20",
          "name": "_tokenV1",
          "type": "address"
        },
        {
          "internalType": "contract ERC20",
          "name": "_tokenV2",
          "type": "address"
        }
      ],
      "stateMutability": "nonpayable",
      "type": "constructor"
    },
    {
      "anonymous": false,
      "inputs": [
        {
          "indexed": true,
          "internalType": "address",
          "name": "user",
          "type": "address"
        },
        {
          "indexed": false,
          "internalType": "uint256",
          "name": "amount",
          "type": "uint256"
        }
      ],
      "name": "Migrate",
      "type": "event"
    },
    {
      "anonymous": false,
      "inputs": [
        {
          "indexed": true,
          "internalType": "address",
          "name": "previousOwner",
          "type": "address"
        },
        {
          "indexed": true,
          "internalType": "address",
          "name": "newOwner",
          "type": "address"
        }
      ],
      "name": "OwnershipTransferred",
      "type": "event"
    },
    {
      "anonymous": false,
      "inputs": [
        {
          "indexed": false,
          "internalType": "address",
          "name": "account",
          "type": "address"
        }
      ],
      "name": "Paused",
      "type": "event"
    },
    {
      "anonymous": false,
      "inputs": [
        {
          "indexed": false,
          "internalType": "address",
          "name": "account",
          "type": "address"
        }
      ],
      "name": "Unpaused",
      "type": "event"
    },
    {
      "inputs": [
        {
          "internalType": "uint256",
          "name": "_amount",
          "type": "uint256"
        }
      ],
      "name": "exchange",
      "outputs": [],
      "stateMutability": "nonpayable",
      "type": "function"
    },
    {
      "inputs": [],
      "name": "owner",
      "outputs": [
        {
          "internalType": "address",
          "name": "",
          "type": "address"
        }
      ],
      "stateMutability": "view",
      "type": "function"
    },
    {
      "inputs": [
        {
          "internalType": "bool",
          "name": "_doPause",
          "type": "bool"
        }
      ],
      "name": "pauseMigration",
      "outputs": [],
      "stateMutability": "nonpayable",
      "type": "function"
    },
    {
      "inputs": [],
      "name": "paused",
      "outputs": [
        {
          "internalType": "bool",
          "name": "",
          "type": "bool"
        }
      ],
      "stateMutability": "view",
      "type": "function"
    },
    {
      "inputs": [],
      "name": "renounceOwnership",
      "outputs": [],
      "stateMutability": "nonpayable",
      "type": "function"
    },
    {
      "inputs": [],
      "name": "tokenV1",
      "outputs": [
        {
          "internalType": "contract ERC20",
          "name": "",
          "type": "address"
        }
      ],
      "stateMutability": "view",
      "type": "function"
    },
    {
      "inputs": [],
      "name": "tokenV2",
      "outputs": [
        {
          "internalType": "contract ERC20",
          "name": "",
          "type": "address"
        }
      ],
      "stateMutability": "view",
      "type": "function"
    },
    {
      "inputs": [
        {
          "internalType": "address",
          "name": "newOwner",
          "type": "address"
        }
      ],
      "name": "transferOwnership",
      "outputs": [],
      "stateMutability": "nonpayable",
      "type": "function"
    },
    {
      "inputs": [
        {
          "internalType": "contract ERC20",
          "name": "_token",
          "type": "address"
        },
        {
          "internalType": "uint256",
          "name": "_amount",
          "type": "uint256"
        }
      ],
      "name": "withdrawToken",
      "outputs": [],
      "stateMutability": "nonpayable",
      "type": "function"
    }
  ],
  "bytecode": "0x608060405234801561001057600080fd5b50604051610bcd380380610bcd83398101604081905261002f916101a9565b61003833610084565b6000805460ff60a01b19169055600180546001600160a01b038085166001600160a01b031992831617909255600280549284169290911691909117905561007d6100d4565b50506101db565b600080546001600160a01b038381166001600160a01b0319831681178455604051919092169283917f8be0079c531659141344cd1fd0a4f28419497f9722a3daafe3b4186f6b6457e09190a35050565b6100dc610134565b6000805460ff60a01b1916600160a01b1790557f62e78cea01bee320cd4e420270b5ea74000d11b0c9f74754ebdbfc544b05a2586101173390565b6040516001600160a01b03909116815260200160405180910390a1565b610147600054600160a01b900460ff1690565b1561018b5760405162461bcd60e51b815260206004820152601060248201526f14185d5cd8589b194e881c185d5cd95960821b604482015260640160405180910390fd5b565b80516001600160a01b03811681146101a457600080fd5b919050565b600080604083850312156101bb578182fd5b6101c48361018d565b91506101d26020840161018d565b90509250929050565b6109e3806101ea6000396000f3fe608060405234801561001057600080fd5b50600436106100a35760003560e01c8063715018a6116100765780638da5cb5b1161005b5780638da5cb5b146101385780639e281a9814610149578063f2fde38b1461015c57600080fd5b8063715018a61461011d57806383b25b891461012557600080fd5b80631382d8c2146100a857806334fa505d146100d857806353556559146100ed5780635c975abb14610100575b600080fd5b6002546100bb906001600160a01b031681565b6040516001600160a01b0390911681526020015b60405180910390f35b6100eb6100e6366004610894565b61016f565b005b6100eb6100fb3660046108f7565b61018f565b600054600160a01b900460ff1660405190151581526020016100cf565b6100eb6101fe565b6001546100bb906001600160a01b031681565b6000546001600160a01b03166100bb565b6100eb6101573660046108cc565b610212565b6100eb61016a366004610871565b610244565b6101776102d6565b8061018757610184610330565b50565b610184610385565b6101976103c8565b6101af336001546001600160a01b0316903084610422565b6101c6336002546001600160a01b031690836104d9565b60405181815233907fa59785389b00cbd19745afbe8d59b28e3161395c6b1e3525861a2b0dede0b90d9060200160405180910390a250565b6102066102d6565b6102106000610527565b565b61021a6102d6565b61024061022f6000546001600160a01b031690565b6001600160a01b03841690836104d9565b5050565b61024c6102d6565b6001600160a01b0381166102cd5760405162461bcd60e51b815260206004820152602660248201527f4f776e61626c653a206e6577206f776e657220697320746865207a65726f206160448201527f646472657373000000000000000000000000000000000000000000000000000060648201526084015b60405180910390fd5b61018481610527565b6000546001600160a01b031633146102105760405162461bcd60e51b815260206004820181905260248201527f4f776e61626c653a2063616c6c6572206973206e6f7420746865206f776e657260448201526064016102c4565b61033861058f565b6000805460ff60a01b191690557f5db9ee0a495bf2e6ff9c91a7834c1ba4fdd244a5e8aa4e537bd38aeae4b073aa335b6040516001600160a01b03909116815260200160405180910390a1565b61038d6103c8565b6000805460ff60a01b1916600160a01b1790557f62e78cea01bee320cd4e420270b5ea74000d11b0c9f74754ebdbfc544b05a2586103683390565b600054600160a01b900460ff16156102105760405162461bcd60e51b815260206004820152601060248201527f5061757361626c653a207061757365640000000000000000000000000000000060448201526064016102c4565b6040516001600160a01b03808516602483015283166044820152606481018290526104d39085907f23b872dd00000000000000000000000000000000000000000000000000000000906084015b60408051601f198184030181529190526020810180517bffffffffffffffffffffffffffffffffffffffffffffffffffffffff167fffffffff00000000000000000000000000000000000000000000000000000000909316929092179091526105e8565b50505050565b6040516001600160a01b0383166024820152604481018290526105229084907fa9059cbb000000000000000000000000000000000000000000000000000000009060640161046f565b505050565b600080546001600160a01b038381167fffffffffffffffffffffffff0000000000000000000000000000000000000000831681178455604051919092169283917f8be0079c531659141344cd1fd0a4f28419497f9722a3daafe3b4186f6b6457e09190a35050565b600054600160a01b900460ff166102105760405162461bcd60e51b815260206004820152601460248201527f5061757361626c653a206e6f742070617573656400000000000000000000000060448201526064016102c4565b600061063d826040518060400160405280602081526020017f5361666545524332303a206c6f772d6c6576656c2063616c6c206661696c6564815250856001600160a01b03166106cd9092919063ffffffff16565b805190915015610522578080602001905181019061065b91906108b0565b6105225760405162461bcd60e51b815260206004820152602a60248201527f5361666545524332303a204552433230206f7065726174696f6e20646964206e60448201527f6f7420737563636565640000000000000000000000000000000000000000000060648201526084016102c4565b60606106dc84846000856106e4565b949350505050565b60608247101561075c5760405162461bcd60e51b815260206004820152602660248201527f416464726573733a20696e73756666696369656e742062616c616e636520666f60448201527f722063616c6c000000000000000000000000000000000000000000000000000060648201526084016102c4565b600080866001600160a01b03168587604051610778919061090f565b60006040518083038185875af1925050503d80600081146107b5576040519150601f19603f3d011682016040523d82523d6000602084013e6107ba565b606091505b50915091506107cb878383876107d6565b979650505050505050565b6060831561084257825161083b576001600160a01b0385163b61083b5760405162461bcd60e51b815260206004820152601d60248201527f416464726573733a2063616c6c20746f206e6f6e2d636f6e747261637400000060448201526064016102c4565b50816106dc565b6106dc83838151156108575781518083602001fd5b8060405162461bcd60e51b81526004016102c4919061092b565b600060208284031215610882578081fd5b813561088d8161098a565b9392505050565b6000602082840312156108a5578081fd5b813561088d8161099f565b6000602082840312156108c1578081fd5b815161088d8161099f565b600080604083850312156108de578081fd5b82356108e98161098a565b946020939093013593505050565b600060208284031215610908578081fd5b5035919050565b6000825161092181846020870161095e565b9190910192915050565b602081526000825180602084015261094a81604085016020870161095e565b601f01601f19169190910160400192915050565b60005b83811015610979578181015183820152602001610961565b838111156104d35750506000910152565b6001600160a01b038116811461018457600080fd5b801515811461018457600080fdfea2646970667358221220ca28fe748db490276e23d4f97a741b82d539e8ec9d75c0c8510a1514634d7acd64736f6c63430008040033",
  "linkReferences": {},
  "deployedLinkReferences": {}
}