{
  "_format": "hh-sol-artifact-1",
  "contractName": "Leverager",
  "sourceName": "contracts/leverage/Leverager.sol",
  "abi": [
    {
      "inputs": [
        {
          "internalType": "contract ILendingPool",
          "name": "_lendingPool",
          "type": "address"
        },
        {
          "internalType": "contract IRewardEligibleDataProvider",
          "name": "_rewardEligibleDataProvider",
          "type": "address"
        },
        {
          "internalType": "contract IAaveOracle",
          "name": "_aaveOracle",
          "type": "address"
        },
        {
          "internalType": "contract ILockZap",
          "name": "_lockZap",
          "type": "address"
        },
        {
          "internalType": "contract IWETH",
          "name": "_weth",
          "type": "address"
        },
        {
          "internalType": "uint256",
          "name": "_feePercent",
          "type": "uint256"
        },
        {
          "internalType": "address",
          "name": "_treasury",
          "type": "address"
        }
      ],
      "stateMutability": "nonpayable",
      "type": "constructor"
    },
    {
      "anonymous": false,
      "inputs": [
        {
          "indexed": false,
          "internalType": "uint256",
          "name": "_feePercent",
          "type": "uint256"
        }
      ],
      "name": "FeePercentUpdated",
      "type": "event"
    },
    {
      "anonymous": false,
      "inputs": [
        {
          "indexed": true,
          "internalType": "address",
          "name": "previousOwner",
          "type": "address"
        },
        {
          "indexed": true,
          "internalType": "address",
          "name": "newOwner",
          "type": "address"
        }
      ],
      "name": "OwnershipTransferred",
      "type": "event"
    },
    {
      "anonymous": false,
      "inputs": [
        {
          "indexed": false,
          "internalType": "address",
          "name": "_treasury",
          "type": "address"
        }
      ],
      "name": "TreasuryUpdated",
      "type": "event"
    },
    {
      "stateMutability": "payable",
      "type": "fallback"
    },
    {
      "inputs": [],
      "name": "API_ETH_MOCK_ADDRESS",
      "outputs": [
        {
          "internalType": "address",
          "name": "",
          "type": "address"
        }
      ],
      "stateMutability": "view",
      "type": "function"
    },
    {
      "inputs": [],
      "name": "BORROW_RATIO_DECIMALS",
      "outputs": [
        {
          "internalType": "uint256",
          "name": "",
          "type": "uint256"
        }
      ],
      "stateMutability": "view",
      "type": "function"
    },
    {
      "inputs": [],
      "name": "FEE_PERCENT_DIVISOR",
      "outputs": [
        {
          "internalType": "uint256",
          "name": "",
          "type": "uint256"
        }
      ],
      "stateMutability": "view",
      "type": "function"
    },
    {
      "inputs": [],
      "name": "aaveOracle",
      "outputs": [
        {
          "internalType": "contract IAaveOracle",
          "name": "",
          "type": "address"
        }
      ],
      "stateMutability": "view",
      "type": "function"
    },
    {
      "inputs": [],
      "name": "eligibilityDataProvider",
      "outputs": [
        {
          "internalType": "contract IRewardEligibleDataProvider",
          "name": "",
          "type": "address"
        }
      ],
      "stateMutability": "view",
      "type": "function"
    },
    {
      "inputs": [],
      "name": "feePercent",
      "outputs": [
        {
          "internalType": "uint256",
          "name": "",
          "type": "uint256"
        }
      ],
      "stateMutability": "view",
      "type": "function"
    },
    {
      "inputs": [
        {
          "internalType": "address",
          "name": "asset",
          "type": "address"
        }
      ],
      "name": "getConfiguration",
      "outputs": [
        {
          "components": [
            {
              "internalType": "uint256",
              "name": "data",
              "type": "uint256"
            }
          ],
          "internalType": "struct DataTypes.ReserveConfigurationMap",
          "name": "",
          "type": "tuple"
        }
      ],
      "stateMutability": "view",
      "type": "function"
    },
    {
      "inputs": [
        {
          "internalType": "address",
          "name": "asset",
          "type": "address"
        }
      ],
      "name": "getVDebtToken",
      "outputs": [
        {
          "internalType": "address",
          "name": "",
          "type": "address"
        }
      ],
      "stateMutability": "view",
      "type": "function"
    },
    {
      "inputs": [],
      "name": "lendingPool",
      "outputs": [
        {
          "internalType": "contract ILendingPool",
          "name": "",
          "type": "address"
        }
      ],
      "stateMutability": "view",
      "type": "function"
    },
    {
      "inputs": [],
      "name": "lockZap",
      "outputs": [
        {
          "internalType": "contract ILockZap",
          "name": "",
          "type": "address"
        }
      ],
      "stateMutability": "view",
      "type": "function"
    },
    {
      "inputs": [
        {
          "internalType": "address",
          "name": "asset",
          "type": "address"
        },
        {
          "internalType": "uint256",
          "name": "amount",
          "type": "uint256"
        },
        {
          "internalType": "uint256",
          "name": "interestRateMode",
          "type": "uint256"
        },
        {
          "internalType": "uint256",
          "name": "borrowRatio",
          "type": "uint256"
        },
        {
          "internalType": "uint256",
          "name": "loopCount",
          "type": "uint256"
        },
        {
          "internalType": "bool",
          "name": "isBorrow",
          "type": "bool"
        }
      ],
      "name": "loop",
      "outputs": [],
      "stateMutability": "nonpayable",
      "type": "function"
    },
    {
      "inputs": [
        {
          "internalType": "uint256",
          "name": "interestRateMode",
          "type": "uint256"
        },
        {
          "internalType": "uint256",
          "name": "borrowRatio",
          "type": "uint256"
        },
        {
          "internalType": "uint256",
          "name": "loopCount",
          "type": "uint256"
        }
      ],
      "name": "loopETH",
      "outputs": [],
      "stateMutability": "payable",
      "type": "function"
    },
    {
      "inputs": [
        {
          "internalType": "address",
          "name": "asset",
          "type": "address"
        }
      ],
      "name": "ltv",
      "outputs": [
        {
          "internalType": "uint256",
          "name": "",
          "type": "uint256"
        }
      ],
      "stateMutability": "view",
      "type": "function"
    },
    {
      "inputs": [],
      "name": "owner",
      "outputs": [
        {
          "internalType": "address",
          "name": "",
          "type": "address"
        }
      ],
      "stateMutability": "view",
      "type": "function"
    },
    {
      "inputs": [],
      "name": "renounceOwnership",
      "outputs": [],
      "stateMutability": "nonpayable",
      "type": "function"
    },
    {
      "inputs": [
        {
          "internalType": "uint256",
          "name": "_feePercent",
          "type": "uint256"
        }
      ],
      "name": "setFeePercent",
      "outputs": [],
      "stateMutability": "nonpayable",
      "type": "function"
    },
    {
      "inputs": [
        {
          "internalType": "address",
          "name": "_treasury",
          "type": "address"
        }
      ],
      "name": "setTreasury",
      "outputs": [],
      "stateMutability": "nonpayable",
      "type": "function"
    },
    {
      "inputs": [
        {
          "internalType": "address",
          "name": "newOwner",
          "type": "address"
        }
      ],
      "name": "transferOwnership",
      "outputs": [],
      "stateMutability": "nonpayable",
      "type": "function"
    },
    {
      "inputs": [],
      "name": "treasury",
      "outputs": [
        {
          "internalType": "address",
          "name": "",
          "type": "address"
        }
      ],
      "stateMutability": "view",
      "type": "function"
    },
    {
      "inputs": [],
      "name": "weth",
      "outputs": [
        {
          "internalType": "contract IWETH",
          "name": "",
          "type": "address"
        }
      ],
      "stateMutability": "view",
      "type": "function"
    },
    {
      "inputs": [
        {
          "internalType": "address",
          "name": "user",
          "type": "address"
        }
      ],
      "name": "wethToZap",
      "outputs": [
        {
          "internalType": "uint256",
          "name": "",
          "type": "uint256"
        }
      ],
      "stateMutability": "view",
      "type": "function"
    },
    {
      "inputs": [
        {
          "internalType": "address",
          "name": "user",
          "type": "address"
        },
        {
          "internalType": "address",
          "name": "asset",
          "type": "address"
        },
        {
          "internalType": "uint256",
          "name": "amount",
          "type": "uint256"
        },
        {
          "internalType": "uint256",
          "name": "borrowRatio",
          "type": "uint256"
        },
        {
          "internalType": "uint256",
          "name": "loopCount",
          "type": "uint256"
        }
      ],
      "name": "wethToZapEstimation",
      "outputs": [
        {
          "internalType": "uint256",
          "name": "",
          "type": "uint256"
        }
      ],
      "stateMutability": "view",
      "type": "function"
    },
    {
      "inputs": [
        {
          "internalType": "uint256",
          "name": "amount",
          "type": "uint256"
        },
        {
          "internalType": "address",
          "name": "borrower",
          "type": "address"
        },
        {
          "internalType": "address",
          "name": "onBehalfOf",
          "type": "address"
        }
      ],
      "name": "zapWETHWithBorrow",
      "outputs": [
        {
          "internalType": "uint256",
          "name": "liquidity",
          "type": "uint256"
        }
      ],
      "stateMutability": "nonpayable",
      "type": "function"
    },
    {
      "inputs": [
        {
          "internalType": "uint256",
          "name": "amount",
          "type": "uint256"
        },
        {
          "internalType": "address",
          "name": "borrower",
          "type": "address"
        }
      ],
      "name": "zapWETHWithBorrow",
      "outputs": [
        {
          "internalType": "uint256",
          "name": "liquidity",
          "type": "uint256"
        }
      ],
      "stateMutability": "nonpayable",
      "type": "function"
    },
    {
      "stateMutability": "payable",
      "type": "receive"
    }
  ],
  "bytecode": "0x60806040523480156200001157600080fd5b5060405162002de938038062002de9833981016040819052620000349162000206565b60006200004062000202565b600080546001600160a01b0319166001600160a01b0383169081178255604051929350917f8be0079c531659141344cd1fd0a4f28419497f9722a3daafe3b4186f6b6457e0908290a3506001600160a01b038716620000bc5760405162461bcd60e51b8152600401620000b390620002a4565b60405180910390fd5b6001600160a01b038616620000e55760405162461bcd60e51b8152600401620000b390620002a4565b6001600160a01b0385166200010e5760405162461bcd60e51b8152600401620000b390620002a4565b6001600160a01b038416620001375760405162461bcd60e51b8152600401620000b390620002a4565b6001600160a01b038316620001605760405162461bcd60e51b8152600401620000b390620002a4565b6001600160a01b038116620001895760405162461bcd60e51b8152600401620000b390620002a4565b600180546001600160a01b03199081166001600160a01b03998a1617909155600280548216978916979097179096556003805487169488169490941790935560058054861694871694909417909355600480548516918616919091179055600691909155600780549092169216919091179055620002f4565b3390565b600080600080600080600060e0888a03121562000221578283fd5b87516200022e81620002db565b60208901519097506200024181620002db565b60408901519096506200025481620002db565b60608901519095506200026781620002db565b60808901519094506200027a81620002db565b60a089015160c08a015191945092506200029481620002db565b8091505092959891949750929550565b60208082526013908201527f4e6f7420612076616c6964206164647265737300000000000000000000000000604082015260600190565b6001600160a01b0381168114620002f157600080fd5b50565b612ae580620003046000396000f3fe60806040526004361061014f5760003560e01c80637ce3489b116100b6578063ac459a841161006f578063ac459a8414610373578063c44b11f714610393578063cd498dc4146103c0578063ec67ff73146103e0578063f0f4426014610400578063f2fde38b1461042057610189565b80637ce3489b146102ec5780637fd6f15c1461030c5780638da5cb5b146103215780639c978eec14610336578063a59a99731461034b578063a8d5a4521461036057610189565b806361d027b31161010857806361d027b3146102585780636372b2811461026d578063667f374514610282578063715018a6146102a25780637473eea6146102b757806376e82e8b146102d757610189565b806303bf24e5146101a157806306346c30146101d7578063171b3e43146101f957806334ec9478146102195780633fc8cef31461022e578063602acb7e1461024357610189565b36610189576004546001600160a01b031633146101875760405162461bcd60e51b815260040161017e906128f1565b60405180910390fd5b005b60405162461bcd60e51b815260040161017e906128c3565b3480156101ad57600080fd5b506101c16101bc366004612522565b610440565b6040516101ce919061297c565b60405180910390f35b3480156101e357600080fd5b506101ec610754565b6040516101ce9190612834565b34801561020557600080fd5b506101876102143660046125aa565b610763565b34801561022557600080fd5b506101c1610aef565b34801561023a57600080fd5b506101ec610af5565b34801561024f57600080fd5b506101ec610b04565b34801561026457600080fd5b506101ec610b1c565b34801561027957600080fd5b506101ec610b2b565b34801561028e57600080fd5b506101ec61029d366004612522565b610b3a565b3480156102ae57600080fd5b50610187610bcc565b3480156102c357600080fd5b506101c16102d2366004612522565b610c6e565b3480156102e357600080fd5b506101ec610cff565b3480156102f857600080fd5b50610187610307366004612716565b610d0e565b34801561031857600080fd5b506101c1610dc8565b34801561032d57600080fd5b506101ec610dce565b34801561034257600080fd5b506101c1610ddd565b34801561035757600080fd5b506101ec610de2565b61018761036e3660046127b6565b610df1565b34801561037f57600080fd5b506101c161038e366004612775565b611274565b34801561039f57600080fd5b506103b36103ae366004612522565b61142a565b6040516101ce9190612972565b3480156103cc57600080fd5b506101c16103db36600461255a565b6114b8565b3480156103ec57600080fd5b506101c16103fb366004612746565b611894565b34801561040c57600080fd5b5061018761041b366004612522565b611a47565b34801561042c57600080fd5b5061018761043b366004612522565b611aea565b6002546040516371c7ee1b60e11b815260009182916001600160a01b039091169063e38fdc3690610475908690600401612834565b60206040518083038186803b15801561048d57600080fd5b505afa1580156104a1573d6000803e3d6000fd5b505050506040513d601f19601f820116820180604052508101906104c5919061272e565b600254604051636d9077cb60e01b81529192506000916001600160a01b0390911690636d9077cb906104fb908790600401612834565b60206040518083038186803b15801561051357600080fd5b505afa158015610527573d6000803e3d6000fd5b505050506040513d601f19601f8201168201806040525081019061054b919061272e565b905081811061055f5760009250505061074f565b600061056b8383611be2565b6005546004805460405163b3596f0760e01b81529394506000936001600160a01b039384169363b3596f07936105a5939091169101612834565b60206040518083038186803b1580156105bd57600080fd5b505afa1580156105d1573d6000803e3d6000fd5b505050506040513d601f19601f820116820180604052508101906105f5919061272e565b60055460048054604051630495f95f60e51b81529394506000936001600160a01b03938416936392bf2be09361062f939091169101612834565b60206040518083038186803b15801561064757600080fd5b505afa15801561065b573d6000803e3d6000fd5b505050506040513d601f19601f8201168201806040525081019061067f919061253e565b6001600160a01b031663313ce5676040518163ffffffff1660e01b815260040160206040518083038186803b1580156106b757600080fd5b505afa1580156106cb573d6000803e3d6000fd5b505050506040513d601f19601f820116820180604052508101906106ef91906127e1565b905060006107256305f5e10061071f858160ff8716600a0a6107198a670de0b6b3a7640000611c24565b90611c24565b90611c7d565b905061074161073a606461071f846006611c24565b8290611cbf565b965061074f95505050505050565b919050565b6003546001600160a01b031681565b6127108311156107855760405162461bcd60e51b815260040161017e9061294b565b6000816107a1576107a16001600160a01b038816333089611d19565b600154604051636eb1769f60e11b81526001600160a01b03808a169263dd62ed3e926107d39230921690600401612848565b60206040518083038186803b1580156107eb57600080fd5b505afa1580156107ff573d6000803e3d6000fd5b505050506040513d601f19601f82011682018060405250810190610823919061272e565b61084357600154610843906001600160a01b038981169116600019611d79565b600754604051636eb1769f60e11b81526001600160a01b03808a169263dd62ed3e926108759230921690600401612848565b60206040518083038186803b15801561088d57600080fd5b505afa1580156108a1573d6000803e3d6000fd5b505050506040513d601f19601f820116820180604052508101906108c5919061272e565b6108e5576007546108e5906001600160a01b038981169116600019611d79565b600061090261271061071f6006548a611c2490919063ffffffff16565b60075490915061091f906001600160a01b038a8116911683611e91565b6109298782611be2565b9650826109995760015460405163e8eda9df60e01b81526001600160a01b039091169063e8eda9df90610966908b908b9033908890600401612862565b600060405180830381600087803b15801561098057600080fd5b505af1158015610994573d6000803e3d6000fd5b505050505b60005b84811015610ad1576109b461271061071f8a89611c24565b60015460405163a415bcad60e01b81529199506001600160a01b03169063a415bcad906109ed908c908c908c908990339060040161288f565b600060405180830381600087803b158015610a0757600080fd5b505af1158015610a1b573d6000803e3d6000fd5b50505050610a3a61271061071f6006548b611c2490919063ffffffff16565b600754909250610a57906001600160a01b038b8116911684611e91565b6001546001600160a01b031663e8eda9df8a610a738b86611be2565b33876040518563ffffffff1660e01b8152600401610a949493929190612862565b600060405180830381600087803b158015610aae57600080fd5b505af1158015610ac2573d6000803e3d6000fd5b5050505060018101905061099c565b50610ae4610ade33610440565b33611894565b505050505050505050565b61271081565b6004546001600160a01b031681565b73eeeeeeeeeeeeeeeeeeeeeeeeeeeeeeeeeeeeeeee81565b6007546001600160a01b031681565b6005546001600160a01b031681565b6001546040516335ea6a7560e01b815260009182916001600160a01b03909116906335ea6a7590610b6f908690600401612834565b6101806040518083038186803b158015610b8857600080fd5b505afa158015610b9c573d6000803e3d6000fd5b505050506040513d601f19601f82011682018060405250810190610bc09190612626565b61012001519392505050565b610bd4611ee3565b6000546001600160a01b03908116911614610c24576040805162461bcd60e51b81526020600482018190526024820152600080516020612a30833981519152604482015290519081900360640190fd5b600080546040516001600160a01b03909116907f8be0079c531659141344cd1fd0a4f28419497f9722a3daafe3b4186f6b6457e0908390a3600080546001600160a01b0319169055565b60015460405163c44b11f760e01b815260009182916001600160a01b039091169063c44b11f790610ca3908690600401612834565b60206040518083038186803b158015610cbb57600080fd5b505afa158015610ccf573d6000803e3d6000fd5b505050506040513d601f19601f82011682018060405250810190610cf3919061260b565b5161ffff169392505050565b6002546001600160a01b031681565b610d16611ee3565b6000546001600160a01b03908116911614610d66576040805162461bcd60e51b81526020600482018190526024820152600080516020612a30833981519152604482015290519081900360640190fd5b612710811115610d885760405162461bcd60e51b815260040161017e9061294b565b60068190556040517f64d1887078a96d281ed60dd69ba75bfb6b5cd2cb4c2d2538b2eb7816a4c646ea90610dbd90839061297c565b60405180910390a150565b60065481565b6000546001600160a01b031690565b600481565b6001546001600160a01b031681565b60048054600154604051636eb1769f60e11b815260009334936001600160a01b039081169363dd62ed3e93610e2c9330939092169101612848565b60206040518083038186803b158015610e4457600080fd5b505afa158015610e58573d6000803e3d6000fd5b505050506040513d601f19601f82011682018060405250810190610e7c919061272e565b610e9f57600154600454610e9f916001600160a01b039182169116600019611d79565b60048054600754604051636eb1769f60e11b81526001600160a01b039283169363dd62ed3e93610ed493309391169101612848565b60206040518083038186803b158015610eec57600080fd5b505afa158015610f00573d6000803e3d6000fd5b505050506040513d601f19601f82011682018060405250810190610f24919061272e565b610f4757600754600454610f47916001600160a01b039182169116600019611d79565b6000610f6461271061071f60065485611c2490919063ffffffff16565b600754909150610f7d906001600160a01b031682611ee7565b610f878282611be2565b9150600460009054906101000a90046001600160a01b03166001600160a01b031663d0e30db0836040518263ffffffff1660e01b81526004016000604051808303818588803b158015610fd957600080fd5b505af1158015610fed573d6000803e3d6000fd5b50506001546004805460405163e8eda9df60e01b81526001600160a01b03938416965063e8eda9df955061102b9450921691879133918a9101612862565b600060405180830381600087803b15801561104557600080fd5b505af1158015611059573d6000803e3d6000fd5b5050505060005b8481101561125e5761107861271061071f8589611c24565b6001546004805460405163a415bcad60e01b81529396506001600160a01b039283169363a415bcad936110b69392169188918d918b9133910161288f565b600060405180830381600087803b1580156110d057600080fd5b505af11580156110e4573d6000803e3d6000fd5b505060048054604051632e1a7d4d60e01b81526001600160a01b039091169350632e1a7d4d92506111179187910161297c565b600060405180830381600087803b15801561113157600080fd5b505af1158015611145573d6000803e3d6000fd5b5050505061116461271061071f60065486611c2490919063ffffffff16565b60075490925061117d906001600160a01b031683611ee7565b6004546001600160a01b031663d0e30db06111988585611be2565b6040518263ffffffff1660e01b81526004016000604051808303818588803b1580156111c357600080fd5b505af11580156111d7573d6000803e3d6000fd5b50506001546004546001600160a01b03918216945063e8eda9df93501690506112008686611be2565b33886040518563ffffffff1660e01b81526004016112219493929190612862565b600060405180830381600087803b15801561123b57600080fd5b505af115801561124f573d6000803e3d6000fd5b50505050600181019050611060565b5061126b610ade33610440565b50505050505050565b60008315611423576001546004805460405163a415bcad60e01b81526000936001600160a01b039081169363a415bcad936112bb939216918a9160029188918c910161288f565b600060405180830381600087803b1580156112d557600080fd5b505af11580156112e9573d6000803e3d6000fd5b505060048054600354604051636eb1769f60e11b81526001600160a01b03928316955063dd62ed3e94506113239330939092169101612848565b60206040518083038186803b15801561133b57600080fd5b505afa15801561134f573d6000803e3d6000fd5b505050506040513d601f19601f82011682018060405250810190611373919061272e565b61139657600354600454611396916001600160a01b039182169116600019611d79565b600354604051631783d44360e31b81526001600160a01b039091169063bc1ea218906113cd90889030908890600090600401612985565b602060405180830381600087803b1580156113e757600080fd5b505af11580156113fb573d6000803e3d6000fd5b505050506040513d601f19601f8201168201806040525081019061141f919061272e565b9150505b9392505050565b611432612483565b60015460405163c44b11f760e01b81526001600160a01b039091169063c44b11f790611462908590600401612834565b60206040518083038186803b15801561147a57600080fd5b505afa15801561148e573d6000803e3d6000fd5b505050506040513d601f19601f820116820180604052508101906114b2919061260b565b92915050565b60006001600160a01b03851673eeeeeeeeeeeeeeeeeeeeeeeeeeeeeeeeeeeeeeee14156114ee576004546001600160a01b031694505b6002546040516371c7ee1b60e11b81526000916001600160a01b03169063e38fdc369061151f908a90600401612834565b60206040518083038186803b15801561153757600080fd5b505afa15801561154b573d6000803e3d6000fd5b505050506040513d601f19601f8201168201806040525081019061156f919061272e565b600254604051636d9077cb60e01b81529192506000916001600160a01b0390911690636d9077cb906115a5908b90600401612834565b60206040518083038186803b1580156115bd57600080fd5b505afa1580156115d1573d6000803e3d6000fd5b505050506040513d601f19601f820116820180604052508101906115f5919061272e565b9050600061161461271061071f6006548a611c2490919063ffffffff16565b90506116208782611be2565b965061163661162f8989611f74565b8490611cbf565b925060005b858110156116995761165361271061071f8a8a611c24565b975061167061271061071f6006548b611c2490919063ffffffff16565b915061168f6116888a6116838b86611be2565b611f74565b8590611cbf565b935060010161163b565b508282106116ad576000935050505061188b565b60006116b98484611be2565b6005546004805460405163b3596f0760e01b81529394506000936001600160a01b039384169363b3596f07936116f3939091169101612834565b60206040518083038186803b15801561170b57600080fd5b505afa15801561171f573d6000803e3d6000fd5b505050506040513d601f19601f82011682018060405250810190611743919061272e565b60055460048054604051630495f95f60e51b81529394506000936001600160a01b03938416936392bf2be09361177d939091169101612834565b60206040518083038186803b15801561179557600080fd5b505afa1580156117a9573d6000803e3d6000fd5b505050506040513d601f19601f820116820180604052508101906117cd919061253e565b6001600160a01b031663313ce5676040518163ffffffff1660e01b815260040160206040518083038186803b15801561180557600080fd5b505afa158015611819573d6000803e3d6000fd5b505050506040513d601f19601f8201168201806040525081019061183d91906127e1565b905060006118676305f5e10061071f858160ff8716600a0a6107198a670de0b6b3a7640000611c24565b905061187c61073a606461071f846006611c24565b975061188b9650505050505050565b95945050505050565b600082156114b2576001546004805460405163a415bcad60e01b81526000936001600160a01b039081169363a415bcad936118db93921691899160029188918b910161288f565b600060405180830381600087803b1580156118f557600080fd5b505af1158015611909573d6000803e3d6000fd5b505060048054600354604051636eb1769f60e11b81526001600160a01b03928316955063dd62ed3e94506119439330939092169101612848565b60206040518083038186803b15801561195b57600080fd5b505afa15801561196f573d6000803e3d6000fd5b505050506040513d601f19601f82011682018060405250810190611993919061272e565b6119b6576003546004546119b6916001600160a01b039182169116600019611d79565b600354604051631783d44360e31b81526001600160a01b039091169063bc1ea218906119ed90879030908890600090600401612985565b602060405180830381600087803b158015611a0757600080fd5b505af1158015611a1b573d6000803e3d6000fd5b505050506040513d601f19601f82011682018060405250810190611a3f919061272e565b949350505050565b611a4f611ee3565b6000546001600160a01b03908116911614611a9f576040805162461bcd60e51b81526020600482018190526024820152600080516020612a30833981519152604482015290519081900360640190fd5b600780546001600160a01b0319166001600160a01b0383161790556040517f7dae230f18360d76a040c81f050aa14eb9d6dc7901b20fc5d855e2a20fe814d190610dbd908390612834565b611af2611ee3565b6000546001600160a01b03908116911614611b42576040805162461bcd60e51b81526020600482018190526024820152600080516020612a30833981519152604482015290519081900360640190fd5b6001600160a01b038116611b875760405162461bcd60e51b81526004018080602001828103825260268152602001806129e96026913960400191505060405180910390fd5b600080546040516001600160a01b03808516939216917f8be0079c531659141344cd1fd0a4f28419497f9722a3daafe3b4186f6b6457e091a3600080546001600160a01b0319166001600160a01b0392909216919091179055565b600061142383836040518060400160405280601e81526020017f536166654d6174683a207375627472616374696f6e206f766572666c6f770000815250612197565b600082611c33575060006114b2565b82820282848281611c4057fe5b04146114235760405162461bcd60e51b8152600401808060200182810382526021815260200180612a0f6021913960400191505060405180910390fd5b600061142383836040518060400160405280601a81526020017f536166654d6174683a206469766973696f6e206279207a65726f00000000000081525061222e565b600082820183811015611423576040805162461bcd60e51b815260206004820152601b60248201527f536166654d6174683a206164646974696f6e206f766572666c6f770000000000604482015290519081900360640190fd5b604080516001600160a01b0380861660248301528416604482015260648082018490528251808303909101815260849091019091526020810180516001600160e01b03166323b872dd60e01b179052611d73908590612293565b50505050565b801580611dff575060408051636eb1769f60e11b81523060048201526001600160a01b03848116602483015291519185169163dd62ed3e91604480820192602092909190829003018186803b158015611dd157600080fd5b505afa158015611de5573d6000803e3d6000fd5b505050506040513d6020811015611dfb57600080fd5b5051155b611e3a5760405162461bcd60e51b8152600401808060200182810382526036815260200180612a7a6036913960400191505060405180910390fd5b604080516001600160a01b038416602482015260448082018490528251808303909101815260649091019091526020810180516001600160e01b031663095ea7b360e01b179052611e8c908490612293565b505050565b604080516001600160a01b038416602482015260448082018490528251808303909101815260649091019091526020810180516001600160e01b031663a9059cbb60e01b179052611e8c908490612293565b3390565b604080516000808252602082019092526001600160a01b038416908390604051611f1191906127fb565b60006040518083038185875af1925050503d8060008114611f4e576040519150601f19603f3d011682016040523d82523d6000602084013e611f53565b606091505b5050905080611e8c5760405162461bcd60e51b815260040161017e9061291e565b60055460405163b3596f0760e01b815260009182916001600160a01b039091169063b3596f0790611fa9908790600401612834565b60206040518083038186803b158015611fc157600080fd5b505afa158015611fd5573d6000803e3d6000fd5b505050506040513d601f19601f82011682018060405250810190611ff9919061272e565b90506000846001600160a01b031663313ce5676040518163ffffffff1660e01b815260040160206040518083038186803b15801561203657600080fd5b505afa15801561204a573d6000803e3d6000fd5b505050506040513d601f19601f8201168201806040525081019061206e91906127e1565b9050600061218d600260009054906101000a90046001600160a01b03166001600160a01b0316636a7e9f336040518163ffffffff1660e01b815260040160206040518083038186803b1580156120c357600080fd5b505afa1580156120d7573d6000803e3d6000fd5b505050506040513d601f19601f820116820180604052508101906120fb919061272e565b60025460408051636a943a6d60e11b8152905161071f926001600160a01b03169163d52874da916004808301926020929190829003018186803b15801561214157600080fd5b505afa158015612155573d6000803e3d6000fd5b505050506040513d601f19601f82011682018060405250810190612179919061272e565b61071960ff8716600a0a61071f898c611c24565b9695505050505050565b600081848411156122265760405162461bcd60e51b81526004018080602001828103825283818151815260200191508051906020019080838360005b838110156121eb5781810151838201526020016121d3565b50505050905090810190601f1680156122185780820380516001836020036101000a031916815260200191505b509250505060405180910390fd5b505050900390565b6000818361227d5760405162461bcd60e51b81526020600482018181528351602484015283519092839260449091019190850190808383600083156121eb5781810151838201526020016121d3565b50600083858161228957fe5b0495945050505050565b6122a5826001600160a01b031661244a565b6122f6576040805162461bcd60e51b815260206004820152601f60248201527f5361666545524332303a2063616c6c20746f206e6f6e2d636f6e747261637400604482015290519081900360640190fd5b600080836001600160a01b0316836040518082805190602001908083835b602083106123335780518252601f199092019160209182019101612314565b6001836020036101000a0380198251168184511680821785525050505050509050019150506000604051808303816000865af19150503d8060008114612395576040519150601f19603f3d011682016040523d82523d6000602084013e61239a565b606091505b5091509150816123f1576040805162461bcd60e51b815260206004820181905260248201527f5361666545524332303a206c6f772d6c6576656c2063616c6c206661696c6564604482015290519081900360640190fd5b805115611d735780806020019051602081101561240d57600080fd5b5051611d735760405162461bcd60e51b815260040180806020018281038252602a815260200180612a50602a913960400191505060405180910390fd5b6000813f7fc5d2460186f7233c927e7db2dcc703c0e500b653ca82273b7bfad8045d85a470818114801590611a3f575050151592915050565b6040518060200160405280600081525090565b805161074f816129d0565b6000602082840312156124b2578081fd5b6040516020810181811067ffffffffffffffff821117156124cf57fe5b6040529151825250919050565b80516fffffffffffffffffffffffffffffffff8116811461074f57600080fd5b805164ffffffffff8116811461074f57600080fd5b805160ff8116811461074f57600080fd5b600060208284031215612533578081fd5b8135611423816129d0565b60006020828403121561254f578081fd5b8151611423816129d0565b600080600080600060a08688031215612571578081fd5b853561257c816129d0565b9450602086013561258c816129d0565b94979496505050506040830135926060810135926080909101359150565b60008060008060008060c087890312156125c2578081fd5b86356125cd816129d0565b95506020870135945060408701359350606087013592506080870135915060a087013580151581146125fd578182fd5b809150509295509295509295565b60006020828403121561261c578081fd5b61142383836124a1565b6000610180808385031215612639578182fd5b612642816129ac565b905061264e84846124a1565b815261265c602084016124dc565b602082015261266d604084016124dc565b604082015261267e606084016124dc565b606082015261268f608084016124dc565b60808201526126a060a084016124dc565b60a08201526126b160c084016124fc565b60c08201526126c260e08401612496565b60e08201526101006126d5818501612496565b908201526101206126e7848201612496565b908201526101406126f9848201612496565b9082015261016061270b848201612511565b908201529392505050565b600060208284031215612727578081fd5b5035919050565b60006020828403121561273f578081fd5b5051919050565b60008060408385031215612758578182fd5b82359150602083013561276a816129d0565b809150509250929050565b600080600060608486031215612789578283fd5b83359250602084013561279b816129d0565b915060408401356127ab816129d0565b809150509250925092565b6000806000606084860312156127ca578081fd5b505081359360208301359350604090920135919050565b6000602082840312156127f2578081fd5b61142382612511565b60008251815b8181101561281b5760208186018101518583015201612801565b818111156128295782828501525b509190910192915050565b6001600160a01b0391909116815260200190565b6001600160a01b0392831681529116602082015260400190565b6001600160a01b03948516815260208101939093529216604082015261ffff909116606082015260800190565b6001600160a01b0395861681526020810194909452604084019290925261ffff166060830152909116608082015260a00190565b60208082526014908201527311985b1b189858dac81b9bdd08185b1b1bddd95960621b604082015260600190565b602080825260139082015272149958d95a5d99481b9bdd08185b1b1bddd959606a1b604082015260600190565b60208082526013908201527211551217d514905394d1915497d19052531151606a1b604082015260600190565b6020808252600d908201526c496e76616c696420726174696f60981b604082015260600190565b9051815260200190565b90815260200190565b9384526001600160a01b039283166020850152911660408301521515606082015260800190565b60405181810167ffffffffffffffff811182821017156129c857fe5b604052919050565b6001600160a01b03811681146129e557600080fd5b5056fe4f776e61626c653a206e6577206f776e657220697320746865207a65726f2061646472657373536166654d6174683a206d756c7469706c69636174696f6e206f766572666c6f774f776e61626c653a2063616c6c6572206973206e6f7420746865206f776e65725361666545524332303a204552433230206f7065726174696f6e20646964206e6f7420737563636565645361666545524332303a20617070726f76652066726f6d206e6f6e2d7a65726f20746f206e6f6e2d7a65726f20616c6c6f77616e6365a264697066735822122002f450f7103fc8f6600d8720c6367811fbab773c9925c17cc4b5f5886e6ec07664736f6c63430007060033",
  "linkReferences": {},
  "deployedLinkReferences": {}
}