{
  "_format": "hh-sol-artifact-1",
  "contractName": "LockerList",
  "sourceName": "contracts/staking/LockerList.sol",
  "abi": [
    {
      "inputs": [],
      "stateMutability": "nonpayable",
      "type": "constructor"
    },
    {
      "anonymous": false,
      "inputs": [
        {
          "indexed": true,
          "internalType": "address",
          "name": "locker",
          "type": "address"
        }
      ],
      "name": "LockerAdded",
      "type": "event"
    },
    {
      "anonymous": false,
      "inputs": [
        {
          "indexed": true,
          "internalType": "address",
          "name": "locker",
          "type": "address"
        }
      ],
      "name": "LockerRemoved",
      "type": "event"
    },
    {
      "anonymous": false,
      "inputs": [
        {
          "indexed": true,
          "internalType": "address",
          "name": "previousOwner",
          "type": "address"
        },
        {
          "indexed": true,
          "internalType": "address",
          "name": "newOwner",
          "type": "address"
        }
      ],
      "name": "OwnershipTransferred",
      "type": "event"
    },
    {
      "inputs": [
        {
          "internalType": "address",
          "name": "user",
          "type": "address"
        }
      ],
      "name": "addToList",
      "outputs": [],
      "stateMutability": "nonpayable",
      "type": "function"
    },
    {
      "inputs": [
        {
          "internalType": "uint256",
          "name": "page",
          "type": "uint256"
        },
        {
          "internalType": "uint256",
          "name": "limit",
          "type": "uint256"
        }
      ],
      "name": "getUsers",
      "outputs": [
        {
          "internalType": "address[]",
          "name": "",
          "type": "address[]"
        }
      ],
      "stateMutability": "view",
      "type": "function"
    },
    {
      "inputs": [],
      "name": "lockersCount",
      "outputs": [
        {
          "internalType": "uint256",
          "name": "",
          "type": "uint256"
        }
      ],
      "stateMutability": "view",
      "type": "function"
    },
    {
      "inputs": [],
      "name": "owner",
      "outputs": [
        {
          "internalType": "address",
          "name": "",
          "type": "address"
        }
      ],
      "stateMutability": "view",
      "type": "function"
    },
    {
      "inputs": [
        {
          "internalType": "address",
          "name": "user",
          "type": "address"
        }
      ],
      "name": "removeFromList",
      "outputs": [],
      "stateMutability": "nonpayable",
      "type": "function"
    },
    {
      "inputs": [],
      "name": "renounceOwnership",
      "outputs": [],
      "stateMutability": "nonpayable",
      "type": "function"
    },
    {
      "inputs": [
        {
          "internalType": "address",
          "name": "newOwner",
          "type": "address"
        }
      ],
      "name": "transferOwnership",
      "outputs": [],
      "stateMutability": "nonpayable",
      "type": "function"
    }
  ],
  "bytecode": "0x608060405234801561001057600080fd5b50600061001b61006a565b600080546001600160a01b0319166001600160a01b0383169081178255604051929350917f8be0079c531659141344cd1fd0a4f28419497f9722a3daafe3b4186f6b6457e0908290a35061006e565b3390565b6108168061007d6000396000f3fe608060405234801561001057600080fd5b506004361061007d5760003560e01c80638da5cb5b1161005b5780638da5cb5b146100c857806396fad1e8146100dd578063bd659784146100f2578063f2fde38b146101055761007d565b8063257f9abf1461008257806345982a6614610097578063715018a6146100c0575b600080fd5b6100956100903660046106e8565b610118565b005b6100aa6100a536600461070f565b6102b7565b6040516100b79190610744565b60405180910390f35b61009561032f565b6100d06103d1565b6040516100b79190610730565b6100e56103e0565b6040516100b79190610791565b6100956101003660046106e8565b6103e6565b6100956101133660046106e8565b610507565b6101206105ff565b6000546001600160a01b03908116911614610170576040805162461bcd60e51b815260206004820181905260248201526000805160206107c1833981519152604482015290519081900360640190fd5b6001600160a01b03811660009081526003602052604090205460ff16151560011461019757fe5b6001600160a01b0381166000908152600360209081526040808320805460ff191690556002909152812054600180549192600019830192909190839081106101db57fe5b60009182526020808320909101546001600160a01b039081168084526002909252604080842087905590871683528220919091556001805491925082918590811061022257fe5b9060005260206000200160006101000a8154816001600160a01b0302191690836001600160a01b03160217905550600180548061025b57fe5b600082815260208120820160001990810180546001600160a01b03191690559091019091556040516001600160a01b038616917f95266445d018e5b30f957c915e91b04bb4a19bf0f8f21020a08dad9be7931df491a250505050565b60606103288383600180548060200260200160405190810160405280929190818152602001828054801561031457602002820191906000526020600020905b81546001600160a01b031681526001909101906020018083116102f6575b50505050506106039092919063ffffffff16565b9392505050565b6103376105ff565b6000546001600160a01b03908116911614610387576040805162461bcd60e51b815260206004820181905260248201526000805160206107c1833981519152604482015290519081900360640190fd5b600080546040516001600160a01b03909116907f8be0079c531659141344cd1fd0a4f28419497f9722a3daafe3b4186f6b6457e0908390a3600080546001600160a01b0319169055565b6000546001600160a01b031690565b60015490565b6103ee6105ff565b6000546001600160a01b0390811691161461043e576040805162461bcd60e51b815260206004820181905260248201526000805160206107c1833981519152604482015290519081900360640190fd5b6001600160a01b03811660009081526003602052604090205460ff166104d0576001600160a01b0381166000818152600360209081526040808320805460ff191660019081179091558054600290935290832082905581810181559091527fb10e2d527612073b26eecdfd717e6a320cf44b4afac2b0732d9fcbe2b7fa0cf60180546001600160a01b03191690911790555b6040516001600160a01b038216907f7c5af8d36d8be103bc583da8e01d3e98f15216cc7ef38832c7550b34e8feb43a90600090a250565b61050f6105ff565b6000546001600160a01b0390811691161461055f576040805162461bcd60e51b815260206004820181905260248201526000805160206107c1833981519152604482015290519081900360640190fd5b6001600160a01b0381166105a45760405162461bcd60e51b815260040180806020018281038252602681526020018061079b6026913960400191505060405180910390fd5b600080546040516001600160a01b03808516939216917f8be0079c531659141344cd1fd0a4f28419497f9722a3daafe3b4186f6b6457e091a3600080546001600160a01b0319166001600160a01b0392909216919091179055565b3390565b60608167ffffffffffffffff8111801561061c57600080fd5b50604051908082528060200260200182016040528015610646578160200160208202803683370190505b50905060005b828110156106e057845181848602011061069357600082828151811061066e57fe5b60200260200101906001600160a01b031690816001600160a01b0316815250506106d8565b848184860201815181106106a357fe5b60200260200101518282815181106106b757fe5b60200260200101906001600160a01b031690816001600160a01b0316815250505b60010161064c565b509392505050565b6000602082840312156106f9578081fd5b81356001600160a01b0381168114610328578182fd5b60008060408385031215610721578081fd5b50508035926020909101359150565b6001600160a01b0391909116815260200190565b6020808252825182820181905260009190848201906040850190845b818110156107855783516001600160a01b031683529284019291840191600101610760565b50909695505050505050565b9081526020019056fe4f776e61626c653a206e6577206f776e657220697320746865207a65726f20616464726573734f776e61626c653a2063616c6c6572206973206e6f7420746865206f776e6572a2646970667358221220d52bea52dda03a1cff827aa5ea9ef4c62ac6f8c0824329b52a4e9a96d635701d64736f6c63430007060033",
  "linkReferences": {},
  "deployedLinkReferences": {}
}