{
  "_format": "hh-sol-artifact-1",
  "contractName": "StargateBorrow",
  "sourceName": "contracts/stargate/StargateBorrow.sol",
  "abi": [
    {
      "inputs": [
        {
          "internalType": "contract IStargateRouter",
          "name": "_router",
          "type": "address"
        }
      ],
      "stateMutability": "nonpayable",
      "type": "constructor"
    },
    {
      "inputs": [
        {
          "internalType": "address",
          "name": "asset",
          "type": "address"
        },
        {
          "internalType": "uint256",
          "name": "amount",
          "type": "uint256"
        },
        {
          "internalType": "uint256",
          "name": "interestRateMode",
          "type": "uint256"
        },
        {
          "internalType": "uint16",
          "name": "dstChainId",
          "type": "uint16"
        }
      ],
      "name": "borrow",
      "outputs": [],
      "stateMutability": "payable",
      "type": "function"
    },
    {
      "inputs": [],
      "name": "lendingPool",
      "outputs": [
        {
          "internalType": "contract ILendingPool",
          "name": "",
          "type": "address"
        }
      ],
      "stateMutability": "view",
      "type": "function"
    },
    {
      "inputs": [
        {
          "internalType": "uint16",
          "name": "",
          "type": "uint16"
        },
        {
          "internalType": "address",
          "name": "",
          "type": "address"
        }
      ],
      "name": "poolIdPerChain",
      "outputs": [
        {
          "internalType": "uint256",
          "name": "",
          "type": "uint256"
        }
      ],
      "stateMutability": "view",
      "type": "function"
    },
    {
      "inputs": [
        {
          "internalType": "uint16",
          "name": "_dstChainId",
          "type": "uint16"
        },
        {
          "internalType": "uint8",
          "name": "_functionType",
          "type": "uint8"
        },
        {
          "internalType": "bytes",
          "name": "_toAddress",
          "type": "bytes"
        },
        {
          "internalType": "bytes",
          "name": "_transferAndCallPayload",
          "type": "bytes"
        },
        {
          "components": [
            {
              "internalType": "uint256",
              "name": "dstGasForCall",
              "type": "uint256"
            },
            {
              "internalType": "uint256",
              "name": "dstNativeAmount",
              "type": "uint256"
            },
            {
              "internalType": "bytes",
              "name": "dstNativeAddr",
              "type": "bytes"
            }
          ],
          "internalType": "struct IStargateRouter.lzTxObj",
          "name": "_lzTxParams",
          "type": "tuple"
        }
      ],
      "name": "quoteLayerZeroSwapFee",
      "outputs": [
        {
          "internalType": "uint256",
          "name": "",
          "type": "uint256"
        },
        {
          "internalType": "uint256",
          "name": "",
          "type": "uint256"
        }
      ],
      "stateMutability": "view",
      "type": "function"
    },
    {
      "inputs": [],
      "name": "router",
      "outputs": [
        {
          "internalType": "contract IStargateRouter",
          "name": "",
          "type": "address"
        }
      ],
      "stateMutability": "view",
      "type": "function"
    }
  ],
  "bytecode": "0x608060405234801561001057600080fd5b50604051610a96380380610a9683398101604081905261002f91610054565b600080546001600160a01b0319166001600160a01b0392909216919091179055610082565b600060208284031215610065578081fd5b81516001600160a01b038116811461007b578182fd5b9392505050565b610a05806100916000396000f3fe60806040526004361061004a5760003560e01c80630f4e37db1461004f578063501187b114610085578063a59a9973146100b3578063c858f5f9146100d5578063f887ea40146100ea575b600080fd5b34801561005b57600080fd5b5061006f61006a3660046105cd565b6100ff565b60405161007c9190610973565b60405180910390f35b34801561009157600080fd5b506100a56100a03660046105ff565b61011c565b60405161007c92919061097c565b3480156100bf57600080fd5b506100c86101b8565b60405161007c9190610886565b6100e86100e3366004610568565b6101c7565b005b3480156100f657600080fd5b506100c86103a3565b600260209081526000928352604080842090915290825290205481565b60008054604051630a51236960e01b815282916001600160a01b031690630a51236990610159908c908c908c908c908c908c908c90600401610917565b604080518083038186803b15801561017057600080fd5b505afa158015610184573d6000803e3d6000fd5b505050506040513d601f19601f820116820180604052508101906101a89190610753565b9150915097509795505050505050565b6001546001600160a01b031681565b60015460405163a415bcad60e01b81526001600160a01b039091169063a415bcad90610200908790879087906000903390600401610852565b600060405180830381600087803b15801561021a57600080fd5b505af115801561022e573d6000803e3d6000fd5b505060005460405163095ea7b360e01b81526001600160a01b03808916945063095ea7b393506102649216908790600401610839565b602060405180830381600087803b15801561027e57600080fd5b505af1158015610292573d6000803e3d6000fd5b505050506040513d601f19601f820116820180604052508101906102b691906105ad565b506000546001600160a01b0316639fbf10fc348360018033896102e560646102df8360636103b2565b90610414565b6040518060600160405280600081526020016000815260200160405180604001604052806002815260200161060f60f31b8152508152503360405160200161032d919061081c565b60408051601f198184030181526020830182526000835290516001600160e01b031960e08d901b16815261036b99989796959493929060040161089a565b6000604051808303818588803b15801561038457600080fd5b505af1158015610398573d6000803e3d6000fd5b505050505050505050565b6000546001600160a01b031681565b6000826103c15750600061040e565b828202828482816103ce57fe5b041461040b5760405162461bcd60e51b81526004018080602001828103825260218152602001806109af6021913960400191505060405180910390fd5b90505b92915050565b600061040b83836040518060400160405280601a81526020017f536166654d6174683a206469766973696f6e206279207a65726f000000000000815250600081836104dd5760405162461bcd60e51b81526004018080602001828103825283818151815260200191508051906020019080838360005b838110156104a257818101518382015260200161048a565b50505050905090810190601f1680156104cf5780820380516001836020036101000a031916815260200191505b509250505060405180910390fd5b5060008385816104e957fe5b0495945050505050565b80356001600160a01b038116811461050a57600080fd5b919050565b60008083601f840112610520578081fd5b50813567ffffffffffffffff811115610537578182fd5b60208301915083602082850101111561054f57600080fd5b9250929050565b803561ffff8116811461050a57600080fd5b6000806000806080858703121561057d578384fd5b610586856104f3565b935060208501359250604085013591506105a260608601610556565b905092959194509250565b6000602082840312156105be578081fd5b8151801515811461040b578182fd5b600080604083850312156105df578182fd5b6105e883610556565b91506105f6602084016104f3565b90509250929050565b600080600080600080600060a0888a031215610619578283fd5b61062288610556565b965060208089013560ff81168114610638578485fd5b9650604089013567ffffffffffffffff80821115610654578586fd5b6106608c838d0161050f565b909850965060608b0135915080821115610678578586fd5b6106848c838d0161050f565b909650945060808b013591508082111561069c578384fd5b908a01906060828d0312156106af578384fd5b6040516060810181811083821117156106c457fe5b6040908152833582528484013585830152830135828111156106e4578586fd5b8084019350508c601f8401126106f8578485fd5b82358281111561070457fe5b610716601f8201601f1916860161098a565b92508083528d8582860101111561072b578586fd5b8085850186850137820190930193909352506040810191909152959894975092955090939092565b60008060408385031215610765578182fd5b505080516020909101519092909150565b60008284528282602086013780602084860101526020601f19601f85011685010190509392505050565b60008151808452815b818110156107c5576020818501810151868301820152016107a9565b818111156107d65782602083870101525b50601f01601f19169290920160200192915050565b6000815183526020820151602084015260408201516060604085015261081460608501826107a0565b949350505050565b60609190911b6bffffffffffffffffffffffff1916815260140190565b6001600160a01b03929092168252602082015260400190565b6001600160a01b0395861681526020810194909452604084019290925261ffff166060830152909116608082015260a00190565b6001600160a01b0391909116815260200190565b600061012061ffff8c1683528a602084015289604084015260018060a01b03891660608401528760808401528660a08401528060c08401526108de818401876107eb565b905082810360e08401526108f281866107a0565b905082810361010084015261090781856107a0565b9c9b505050505050505050505050565b600061ffff8916825260ff8816602083015260a0604083015261093e60a083018789610776565b8281036060840152610951818688610776565b9050828103608084015261096581856107eb565b9a9950505050505050505050565b90815260200190565b918252602082015260400190565b60405181810167ffffffffffffffff811182821017156109a657fe5b60405291905056fe536166654d6174683a206d756c7469706c69636174696f6e206f766572666c6f77a26469706673582212204c4f7b1114574a7b4d041239621af3d29a8d3781f7bd58d8a350cfc543eebc8664736f6c63430007060033",
  "linkReferences": {},
  "deployedLinkReferences": {}
}